:100000000C947C030C94B4030C94B4030C94B403CC
:100010000C94B4030C94B4030C94B4030C94B40384
:100020000C94B4030C94B4030C94522F0C942A3007
:100030000C94072F0C94B4030C94B4030C94B403E5
:100040000C94B4030C94B4030C94B4030C94B40354
:100050000C94B4030C942E2F0C94B4030C94B4039E
:100060000C94B4030C94B4030C94B4030C94B40334
:100070000C94B4030C94B4030C94B4030C94B40324
:100080000C94B4030C94B4030C94B4030C94B40314
:100090000C94B4030C94B4030C94B4030C94B40304
:1000A0000C94B4030C94B4030C94B40305010980BC
:1000B000A101850319012AB700150126B700950192
:1000C00075108100C0050C0901A101850419012AE0
:1000D000A002150126A002950175108100C00660DE
:1000E000FF0961A1010962150026FF00952075082E
:1000F00081020963150026FF00952075089102C052
:1001000005010906A101050719E029E715002501E8
:10011000950875018102950175088101050719008F
:1001200029FF150026FF00950675088100050819AE
:1001300001290515002501950575019102950175A7
:10014000039101C00000000000000000000000005A
:10015000000000000000000000000000000000009F
:1001600000000000000000007E0F00D4FFFFFFC76A
:100170000000007800000000000000002A2B28008A
:100180000000000000000000000000000000002946
:10019000000000002C1E3420212224342627252E86
:1001A000362D3738271E1F202122232425263333BE
:1001B000362E37381F0405060708090A0B0C0D0EEA
:1001C0000F101112131415161718191A1B1C1D2FB6
:1001D0003130232D350405060708090A0B0C0D0ED6
:1001E0000F101112131415161718191A1B1C1D2F96
:1001F0003130354C09025B00030100A0FA0904000C
:10020000000103010100092111010001224400073E
:100210000581030800010904010002030000000930
:10022000211101000122220007058203200001079D
:100230000503032000010904020001030000000976
:100240002111010001223200070584032000011260
:100250000100020000000804CA05000100010203B9
:10026000011C037600690061006C003A00660036EC
:100270000034006300320062003300630000000EAF
:10028000034100640065006C006900650000000E19
:100290000341006200650063003100330000000488
:1002A000030904167C14001A000800150017001C2E
:1002B0000018000C00120013002F0030002A004B21
:1002C000002B0004001600070009000A000B000DB7
:1002D000000E000F0033003400000028004E00E143
:1002E000001D001B0006001900050011001000365B
:1002F00000370000003800E50052006352E000E3E0
:1003000000E2002152000000002C000000E600E79F
:100310000000002252500051004F0035001E021F05
:1003200002200221022202230224022502010001EE
:10033000002602270201004A0020781E001F00202C
:100340000021002200230024002500260027003180
:1003500000000001004D0001000100010001003714
:1003600000010001002D002E022502000001002ED8
:1003700000490046000100010001000100000000EA
:100380000001000000010001000000010001000167
:10039000000100A5003A003B003C003D003E003F4C
:1003A00000010001000100AE00AC00AB004C00A950
:1003B00000A6004000410042004300440045000107
:1003C00000010001000100010000000100AA00A7D7
:1003D0000001000100010001000100010001000115
:1003E0000001000000010001004600A800007C019F
:1003F00000010001000000000001000000010001F8
:1004000000000001000100010001000100010001E5
:1004100000010001000100010001000100010001D4
:1004200000010001000100010001000100010001C4
:1004300000010001000100010001000100010001B4
:1004400000000001000100010001000100010001A5
:100450000001000100010001000100000001000195
:1004600000010001000100010001002C000000005B
:100470000001000000010001000000215201000104
:1004800000010001000100B204D315E915000002CB
:10049000000200AE04D315E915000003000100B30B
:1004A00004D315E9150000040002009804D315E9EF
:1004B00015400705000100B404D315E91500000636
:1004C0000002009A04D315E915000007000200B0ED
:1004D00004D315E915000008000100B504D315E99F
:1004E00015000012000200B604D315E91500001330
:1004F000000200B804D315E915000014000100BA89
:1005000004D315E91500001500000000004907019B
:100510000F0000FD377A585A000004E6D6B44602B0
:1005200000210116000000742FE5A3E0055501A489
:100530005D003D8889C65436C3174FE4DB9B3F946A
:10054000C5F1D9A7A8C4F50104CCD93CB36C0DA959
:1005500052C532C70D26735BC08AA1EB7867B8ED30
:1005600013D7830D0E7B258B72E466E6D74287FE98
:10057000975A057BA355FB4E29BB929F7CF4931998
:10058000BE1778CE296E01D573C366ED3FD08209C0
:100590000EEC459684DF72534A72785845A82C17A2
:1005A0000D5FED8E94CB1AC1A3784F60011991BAFB
:1005B000E5E3BEB470FBDFBF06BAB27A55E38E7EC8
:1005C0000AA0185914C0C3ABF5049696F569EF64F8
:1005D000D83B3F79BB7FA2ECEB551F76346C0F9272
:1005E0000CBBF89DB951CB65EBA9AA9136B4E5FCDB
:1005F0000686515BF0F7E6BA9CA45D361F65B23AF9
:100600003A0E1EAC41921714B8E4E04DA2A629BCE4
:1006100000446E54E1EE6822968C3ACDE554E1FE3A
:100620000649EB0FDABAA175C18B7BEBE9C6E7BED1
:1006300098E1D7865F1C1B9C2B4095F1566EB50F39
:10064000B44BAA6F47D39B7B7D6384C270C4C2E462
:10065000439FDF00C44A3DAA54767C5C8369718362
:10066000D3F05A3FEE40A6AF83F6238165448EBB9C
:100670003B7A164283E07CFD87C7D61F085E3DF4B7
:100680002E21F48497335322CAC37BF182558137DC
:1006900093CF80EE108018F947D5A8BA2285E86E6E
:1006A000A76F674EC2BB52AE95A18CB473C8F2E877
:1006B0009A3E3681F102AE37903CB27446271E2F27
:1006C00042F87EC55E22EE79FB5928CB6A257D8EE5
:1006D0009D0DFB85D300006908135ED9C058E0006A
:1006E00001C003D60A00002AD3B59BB1C467FB0240
:1006F0000000000004595A0011241FBECFEFDAE0B9
:10070000DEBFCDBF04B603FE18C08091C004909137
:10071000C104A091C204B091C3048730904BA7409C
:10072000B04B59F41092C0041092C1041092C2044C
:100730001092C304E0E0F8E3099511E0A0E0B1E015
:10074000E8E4F3E602C005900D92A437B107D9F7AB
:1007500024E0A4E7B1E001C01D92A03CB207E1F79C
:100760000E94C8280C9447310C9400009C019A9573
:1007700081159F4118F5F901EE27F270832F8170E2
:10078000B90166277470A9014427587034FF0CC062
:100790008295807FEF2B09F08062672B09F08064DF
:1007A000452B69F080680895EF2B09F08260672B74
:1007B00009F08460452B19F08860089580E0089561
:1007C000CF93DF93EB010E94B603FE010995DF9101
:1007D000CF910895282F92959F70963091F060F4F4
:1007E000925F9F70923030F481E0203F79F030F4D6
:1007F000283E30F080E008959A5FF3CF243FD1F790
:10080000089581E0283EE0F3213FF9CF08958093D9
:100810009604089580939704089521E030E001C084
:10082000220F8A95EAF780919704822B0E940A048E
:10083000089521E030E0A90102C0440F551F8A95B8
:10084000E2F7CA0180959091970489230E940A04D7
:100850000895292F943098F58F3088F590E03FE087
:10086000239F800D911D1124282F277041E001C086
:10087000440F2A95EAF723E0969587952A95E1F7A4
:10088000FC01EE0FFF1FE80FF91FEC55FD4F20E0B4
:1008900030E070E05191DF011197CB01022E02C0D0
:1008A000969587950A94E2F7817081958527842330
:1008B00085278C932F5F3F4F2330310559F70895DB
:1008C000292F943078F58F3068F590E03FE0239F32
:1008D000800D911D1124682F677023E096958795F0
:1008E0002A95E1F7FC01EE0FFF1FE80FF91FEC5509
:1008F000FD4F40E050E080E0219130E0062E02C044
:10090000369527950A94E2F721703327042E01C00B
:10091000220F0A94EAF7822B4F5F5F4F4330510555
:1009200059F7089580E008959091970421E030E010
:10093000F90101C0EE0F8A95EAF7D90102C0AA0FAA
:10094000BB1F6A95E2F7EA2B01C0220F4A95EAF72E
:10095000892F8E23E81305C0892F822B0E940A0459
:1009600008952095822F8923F9CF8091520290918A
:100970005102981301C008958F5F8770FACF90914C
:10098000E403809589238093E403282F27702111A5
:1009900011C0891779F09091BD0492FF0BC0869524
:1009A000869586950E9419041092E4031092E6033E
:1009B0001092E50308959091E103982B9093E10341
:1009C0000895982F90958091E10389238093E10306
:1009D00008958091E003882331F01092E003109293
:1009E000DF031092DE030895803E9105D1F1C8F433
:1009F0008133910509F47FC048F48932910509F4E7
:100A00006FC08A32910509F47DC00895893391053C
:100A1000E1F082389105C9F08533910509F45BC096
:100A20000895843E9105D1F148F4823E910531F15B
:100A3000833E910541F181EE90E00895863E910557
:100A4000C1F1873E9105E1F108952091BC04237026
:100A5000211165C02091BD0423FF14C089E290E0FC
:100A600008952091BC0420FD43C03091BD0430FFA7
:100A700009C024FF4EC080E090E008952091BC049E
:100A800022FDF7CF08952091BC0422FD45C030918E
:100A9000BD0430FD44C024FFF5CFEDCF2091BD044F
:100AA00021FFF0CF8091BC0484FDE5CF87EE90E07C
:100AB00008952091BC0423FFE5CF24FDDCCFF6CFC1
:100AC0002091BC0423FD2EC03091BD0431FFE3CF43
:100AD00084EE90E008952091BC0425FFD3CFBECFD3
:100AE0002091BC0425FD21C02091BD0423FFCACF65
:100AF00089E390E008952091BC0426FFC3CF8AE2E9
:100B000090E008952091BC0426FFBCCF81E390E0E3
:100B1000089583EE90E0089582EE90E0089580EECF
:100B200090E0089586EE90E0089585E390E0AACFE6
:100B30009091BC0492FF10C041E0282F2471243012
:100B400009F040E031E0282F2871283009F030E02A
:100B5000431711F02CE0822793FF10C041E0282FAB
:100B60002471243109F040E031E0282F2871283128
:100B700009F030E0431711F02CE082273091BD04DA
:100B800030FF10C051E0282F2171213009F050E0D2
:100B900041E0282F2871283009F040E0541711F067
:100BA00029E0822731FF10C041E0282F2171213137
:100BB00009F040E031E0282F2871283109F030E0B9
:100BC000431711F029E0822794FD877E08951F9333
:100BD000CF93DF930E94F404EC01811522E5920784
:100BE00008F053C0811540E5940708F0DDC0803E51
:100BF0009105F8F48D3C910508F0AEC0883A910556
:100C000080F4853A910508F099C08130910521F072
:100C10000497813A910550F4CE01DF91CF911F9155
:100C20000895885A91094B9708F48BC0C0E0D0E032
:100C3000F3CF811550E49507F8F4C11580E2D80789
:100C400008F0CBC0C83ED10538F3CE019A95811586
:100C50009F4160F78D2F0E949805182FCE0199278C
:100C60000E94F404212F30E0322F2227E901CC2703
:100C7000DF71C82BD92BD0CF99270E94F404CC2741
:100C8000DF70C82BD92BD06AC7CF803842E59407D4
:100C9000C8F5803652E5950708F067C0C03482E594
:100CA000D807B0F08C2F86958695877020E2829FBA
:100CB000C0011124C37021E030E0A90102C0440F3B
:100CC000551FCA95E2F7EA01C82BD92BDC68A4CFDF
:100CD000C03252E5D50708F041C08C2F8695869525
:100CE00020E2829FC0011124C37021E030E0A901FD
:100CF00002C0440F551FCA95E2F7EA01C82BD92B51
:100D0000DD688ACF803C52E5950760F48F71C03A68
:100D1000D24508F03FC090E0982F8827EC01C46FBF
:100D2000D06A7ACF805C9245809708F07FCFDC2F25
:100D3000CC27CC27DF71C06FD06A6ECFA497D06468
:100D40006BCFC85AD0E0CC0FDD1FC35CDE4F0990DB
:100D5000D881C02DD46460CFD0655ECFCF71D0E094
:100D6000DC2FCC27C16FD06A57CF869586958770C8
:100D700020E2829FC0011124C37021E030E0A9016C
:100D800002C0440F551FCA95E2F7EA01C82BD92BC0
:100D9000DA6842CF0E949805C82FD0E0DC2FCC271C
:100DA000CC27DF71D06238CF8F710E94980565E043
:100DB000D695C7956A95E1F7CF70D0E0DC2FCC27A8
:100DC000282F30E084FF05C054E0220F331F5A95CE
:100DD000E1F7C22BD32BD0691FCF8D2F8F710E94CB
:100DE0009805182FCE0199270E94F404212F30E096
:100DF000322F222722273F71282B392BE901D2CF0E
:100E000080E00895F894E82FE295EF70F0E041A1BA
:100E10008F7021E030E0B90102C0660F771F8A951C
:100E2000E2F7CB01962F9095942391A392A1892B61
:100E300082A37894089581152CE7920741F42091BC
:100E40000D0130910E01232B11F480E090E0089504
:100E5000EBE4F3E080E090E068ED77E24FEF57E2FB
:100E600024E738E277836683518740873387228778
:100E700097878687019670968830910599F708952F
:100E8000809198049091990490930C0180930B01A8
:100E90000895A0E0B0E0EFE4F7E00C948630FB01A9
:100EA0008FEF9FEF4430510508F465C04091BC04BA
:100EB00041FB882780F990E0880F991F42FBAA2404
:100EC000A0F8B12CAA0CBB1CAA0CBB1C8A299B291C
:100ED00040FB882480F8912C8829992943FBCC2455
:100EE000C0F8D12C53E0CC0CDD1C5A95E1F78C29CD
:100EF0009D2944FBEE24E0F8F12C64E0EE0CFF1C8D
:100F00006A95E1F78E299F2945FB002700F910E03B
:100F100075E0000F111F7A95E1F7802B912B46FBAE
:100F2000222720F9C22F20E0D22FA6E0CC0FDD1F10
:100F3000AA95E1F78C2B9D2B47FB442740F920E82D
:100F4000429FA0011124842B952B2091BD04322FA8
:100F50003170932B26952170B22FBB0FA0E08A2B06
:100F60009B2B092E000CAA0BBB0B80839183A283C1
:100F7000B38380E090E0CDB7DEB7ECE00C94A23014
:100F8000AC0123E0969587952A95E1F78E71992714
:100F9000FC01E356FE4F0190F081E02D4F70552784
:100FA00021E030E002C0220F331F4A95E2F76623AA
:100FB00041F0E22BF32B83569E4FDC01ED93FC9323
:100FC000089520953095E223F323F5CF109228045D
:100FD00010922704E7EEF3E08581811102C01482AC
:100FE0001682379684E0EF31F807B1F70895AC0127
:100FF00030912A0460912904232F621301C00895BF
:10100000822F90E0FC01EE0FFF1FE15EFB4F01908D
:10101000F081E02DE417F50791F467E0649FF0019B
:10102000659FF00D1124E951FC4F41E044832313E7
:10103000E6CF01968370992780932A04089501963C
:10104000282F2370DACFFC018481862381110AC006
:1010500082818823B9F06823908593FF05C081E0E1
:1010600061110FC080E00895282F22952F708F7096
:10107000282B962F92959F706F70962B81E02913E5
:10108000F1CF089581E0FDCFFA01309709F009957D
:101090000895E0914702F0914802309729F00190BD
:1010A000F081E02D0995089580E00895A3E0B0E077
:1010B000ECE5F8E00C9490309C0180919A019091BD
:1010C0009B0182179307A1F030939B0120939A0113
:1010D000E0914702F0914802309751F083E0898314
:1010E0003B832A830084F185E02DCE01019609958A
:1010F0002396E2E00C94AC30A3E0B0E0E2E8F8E044
:101100000C9490309C0180919801909199018217E4
:101110009307A1F03093990120939801E091470241
:10112000F0914802309751F084E089833B832A8311
:101130000084F185E02DCE01019609952396E2E029
:101140000C94AC30A8E7B1E0EFEF90E02D9182175E
:1011500051F0EF3F19F4211101C0E92F9F5F963044
:10116000A9F7EF3F09F408950E2E000CFF0BEA5883
:10117000FE4F82830895E8E7F1E09191891303C05F
:10118000DF0111971C9291E0EE37F907B1F708954E
:101190002FB7F8948091290290912A02A0912B02F6
:1011A000B0912C022FBF089580919A0490919B04D6
:1011B000892B91F00E94C8082091DE033091DF0353
:1011C000AC01421B530B9A0181E040919A0450916B
:1011D0009B042417350708F480E0817008959091EE
:1011E000BD0492FF10C098E0899F90011124622BEA
:1011F0006093E4030E940D040E94C8089093E603E4
:101200008093E50308950E940D0408959091E003F2
:10121000292F2823222361F0809589238093E003DE
:10122000882339F00E94C8088093DE039093DF037F
:10123000089580E090E0F8CFCF93C82F8091BD044F
:1012400082FF0CC08091E0038C1741F00E94C80817
:101250009093DF038093DE03C093E003CF91089562
:10126000A4E0B0E0E6E3F9E00C9490308FB7F89496
:101270002091290230912A0240912B0250912C0298
:1012800029833A834B835C838FBF69817A818B8109
:101290009C812496E2E00C94AC300F931F93CF9383
:1012A000DF93D82FC92F4091450350914603609199
:1012B0004703709148032FB7F894809129029091C9
:1012C0002A02A0912B02B0912C022FBF841B950BF8
:1012D000A60BB70B843F9140A105B10528F560919D
:1012E000450370914603809147039091480304EFB2
:1012F00011E020E030E0609331027093320280937D
:1013000033029093340200932D0210932E02209307
:101310002F0230933002D0934303C0934403DF91F4
:10132000CF911F910F9108950E94300902E310E0C0
:1013300020E030E0E0CF9C014FB7F8948091290283
:1013400090912A02A0912B02B0912C024FBF821BD8
:10135000930B089580919701089508950895FC01D5
:101360009B0180918D0190918E018617970740F027
:10137000672B29F48091E8008E778093E800C901FB
:1013800040E0009741F4411106C08091E80082FFDF
:101390002FC080E00895209140022223A9F125303A
:1013A000A9F12091E80023FD2DC02091E80022FD45
:1013B000ECCF2091E80020FFE4CF3091F3002091A2
:1013C000F200009719F02830310558F041E028303C
:1013D000310509F040E02091E8002E772093E800E5
:1013E000D0CF41914093F10001972F5F3F4FE9CF5C
:1013F00080914002882341F0853041F08091E800DF
:1014000083FFC3CF81E0089582E0089583E00895CB
:101410008091870187FF13C08091E80082FF06C09A
:101420008091E8008B778093E80004C080914002AF
:101430008111F2CF0895809140028823D9F38091E1
:10144000E80080FFF8CF8091E8008E77ECCF209104
:10145000E4003091E50095E6A9018091EC008170EF
:10146000882331F08091E80080FF06C080E0089575
:101470002091E80022FD1BC080914002882391F05A
:10148000853091F08091EB0085FD10C02091E40043
:101490003091E5004217530701F391509111DCCFD1
:1014A00084E0089582E0089583E0089581E008953E
:1014B000E8EDF0E080818E7F80831092E200109250
:1014C000DA001092E100A0EEB0E08C9181608C9384
:1014D00080818F77808319BCA7EDB0E08C918E7FDF
:1014E0008C9380818F7E8083109286010895982F3F
:1014F000E42FE2709093E900891308C0762F242F1F
:1015000050E0E11111C091E0980FF4CF7091EC0020
:101510002091ED005091F00021FD06C09F5F9730B3
:1015200049F78093E90008953091EB003E7F3093B6
:10153000EB003091ED003D7F3093ED003091EB00FA
:1015400031603093EB007093EC002093ED005093EA
:10155000F0002091EE0027FDE1CF0895A0E0B0E07B
:10156000E4EBFAE00C948A30C8EDD0E088818F7EFD
:101570008883E7EDF0E080818160808384E082BF32
:1015800081E08093860188818E7F888302EE10E05F
:10159000F80110821092DA0081EEC82ED12CF601EB
:1015A000108288818F77888388818068888388818A
:1015B0008F7D888319BC1092400210928501109291
:1015C0001F021092840190EEE92EF12CF701808128
:1015D0008B7F808388818160888342E060E080E047
:1015E0000E94770AF60180818E7F8083F8018081D6
:1015F00081608083808188608083F70180818E7F15
:101600008083888180618883CDB7DEB7E8E00C9461
:10161000A6309C012115310509F408958FE99FE05A
:101620000197F1F700C0000021503109F3CF81E0AC
:101630008093E00080E28093D8001092C9008FE18F
:101640009EE40197F1F700C0000087E090EBDC0119
:101650008093C0049093C104A093C204B093C304C8
:1016600088E19CE00FB6F894A895809360000FBEC7
:1016700090936000FFCF0F931F93CF93DF93EB0105
:101680008A0190914002943079F58093E9008FEFC0
:101690009091E80095FD07C095ED9A95F1F700004F
:1016A00081508111F5CF8091E80085FF1DC00E9417
:1016B000270A811114C08091E80085FD06C0809141
:1016C000E8008E778093E800F2CF88818093F10064
:1016D000015011090115110511F02196ECCF8091EF
:1016E000E8008E778093E800DF91CF911F910F91F2
:1016F0000895CF93DF93D82FC92F48E050E0682F8B
:10170000792F81E00E943B0B88E0ED2FFC2FAFE8A2
:10171000B1E001900D928A95E1F7DF91CF910895A4
:10172000BC0143E050E084E00E943B0B089590919F
:10173000BD0492FB222720F9281779F080FB92F94B
:101740009093BD046091BC047091BD0484E090E06E
:101750000E94293182E00E94BF0408951F93CF9315
:10176000DF93962F122F632F282F292B2430C8F4B4
:101770004F30B8F4C42FD0E0CC0FDD1F2EE1929F84
:10178000C00DD11D112498E7899FC00DD11D1124D2
:10179000CE0188960E940B31612FCE0189960E945E
:1017A0000B31DF91CF911F910895CF93DF93CCE15F
:1017B000D3E060E0CE010E940B312196C11584E098
:1017C000D807B9F7DF91CF910895882381F069E1B7
:1017D00084E290E00E940B3164EF85E290E00E9489
:1017E0000B316BE986E290E00E940B3108956FEFB8
:1017F00084E290E00E940B316FEF85E290E00E945E
:101800000B316FEFEFCF0F931F93CF93DF9308E967
:1018100014E0C8E0D2E0CE010E94ED30F801619101
:101820008F01861719F0CE010E940B312196CC3220
:10183000F2E0DF0781F7DF91CF911F910F910895BB
:101840000F931F93CF93DF9308E914E0C8E0D2E031
:10185000CE010E94ED30F80181938F012196CC32A8
:10186000F2E0DF07A9F7CDE8D4E0FE01859194917D
:10187000009711F0FC0109952C96F5E0CD31DF07BA
:10188000A1F7DF91CF911F910F9108950F931F93AF
:10189000CF93DF93982F962B943020F54F3010F58F
:1018A000C42FD0E0CC0FDD1F2EE1629FC00DD11DF3
:1018B000112438E7839FC00DD11D1124CE018896D5
:1018C0000E94ED30082F10E0102F0027CE018996DE
:1018D0000E94ED309801282BC901DF91CF911F9113
:1018E0000F91089580E090E0F8CF462F672F209168
:1018F000430230914402232B91F4703F39F4403F6E
:1019000071F480914102909142020895982F972B93
:10191000943028F44F3018F40E94460C089580E06B
:1019200090E00895A0E0B0E0E8E9FCE00C948B3092
:101930007C010091970480919604082BC3E0D0E0CD
:1019400010E0C8010C2E02C0959587950A94E2F725
:1019500080FD09C02197A8F7D12C8D2DCDB7DEB71A
:10196000E7E00C94A730DC2EB7018C2F0E94750C99
:101970000E94E705019771F3F0CFCF93DF93D82F43
:10198000C92F0E94920C6D2F7C2F0E94750C0E9413
:10199000E705DF91CF910895FC018481882371F0E0
:1019A00087819085009729F00E94E7050E94EA034D
:1019B0000895808191810E94BD0CF8CF80E0089548
:1019C0001F93CF93DF93182FD92F662399F04423C9
:1019D00089F00E94920CC82F682F812F9D2F0E94A2
:1019E0002904612F7D2F8C2F0E94750CDF91CF91E0
:1019F0001F9108950E946004C82FF3CFFC01462F69
:101A000087819085009729F46581808191810E946A
:101A1000E00C089584E290E00E94ED30893189F471
:101A200085E290E00E94ED30843F59F486E290E038
:101A30000E94ED3091E08B3909F090E0892F8170A0
:101A4000089580E0FCCFCF93DF93C091E1038091B4
:101A5000E303C82B8091E0038823E9F080919A0486
:101A600090919B04892B29F00E94D40881110E9437
:101A7000E904D091E00320E088E791E0FC013081A7
:101A8000019631112F5F31E08E379307B9F721119D
:101A90000E94E904CD2B8091C70280958C23909100
:101AA000C602892B8093760148E050E069E472E039
:101AB00086E791E00E94C030892BA9F088E0E6E734
:101AC000F1E0A9E4B2E001900D928A95E1F7E0918E
:101AD0004702F0914802309731F00280F381E02D07
:101AE00086E791E00995DF91CF910895CF93C82FB4
:101AF0008823C9F08238C9F40E94490881FD13C0C7
:101B000089E30E94A2080E94230D2FEF37EE83E0A5
:101B1000215030408040E1F700C0000089E30E947E
:101B2000BB080E94230DCF9108958338A1F40E9431
:101B3000490880FDF8CF83E50E94A2080E94230D8A
:101B40009FEF21EE34E0915020403040E1F700C09B
:101B5000000083E5E4CF8438A1F40E94490882FDA7
:101B6000E2CF87E40E94A2080E94230D8FEF91EE3E
:101B700024E0815090402040E1F700C0000087E45D
:101B8000CECF8CEF8C0F813A70F4E8E7F1E08EE76E
:101B900091E02191C21771F18E179F07D1F78C2F19
:101BA0000E94A208BECF80E28C0F883048F4C77034
:101BB00081E001C0880FCA95EAF70E94DB04B1CF2B
:101BC0008BE58C0F833038F42C2F2452330BC90152
:101BD0000E945608A8CFC85ACB3108F0A4CFEC2FEA
:101BE000F0E0EE0FFF1FE35CFE4F808191810E94C9
:101BF0007C0899CF8C2F0E94BB080E94230DCFCF69
:101C0000CF93DF93EC01805E9109089720F060ECA0
:101C10007EE0209711F462EB7EE0CE010E94E003AB
:101C20008C2F0E94760DDF91CF910895662329F0C5
:101C30002091E30322602093E3039C01305221159D
:101C4000304308F499270E94000E0895882309F470
:101C50004DC0823879F40E94490881FF47C089E36A
:101C60000E94A2080E94230D89E30E94BB080E94E3
:101C7000230D0895833859F40E94490880FF36C027
:101C800083E50E94A2080E94230D83E5EECF8438ED
:101C900059F40E94490882FF29C087E40E94A208E3
:101CA0000E94230D87E4E1CF9CEF980F913AE8F270
:101CB00090E2980F983050F4877091E001C0990F2E
:101CC0008A95EAF7892F0E94E104D1CF9BE5980F0E
:101CD000933028F480E090E00E9456080895885AD6
:101CE0008B3120F480E090E00E947C080895CF932F
:101CF000DF93EC010E94260ECE01805E91090897C9
:101D000020F06AEC7EE0209711F469EB7EE0CE01D2
:101D10000E94E003DF91CF9108951F93CF93DF934B
:101D2000182FEB010E94760D209739F4812F0E9425
:101D3000260EDF91CF911F9108958FE99FE00197C3
:101D4000F1F700C000002197EFCF6091B8047091C7
:101D5000B904893321F06091B6047091B7040E94F0
:101D60008D0E0895882321F00E94DB040E94230D2C
:101D70000895882321F00E94E1040E94230D089514
:101D8000882339F09091E303892B8093E3030E9429
:101D9000230D0895882341F080959091E3038923D2
:101DA0008093E3030E94230D08951092E103E8E776
:101DB000F1E086E0DF011D928A95E9F780E090E08E
:101DC0000E94560880E090E00E947C081092E30395
:101DD0000E94230D08950E94D50E2FEF84E39CE00E
:101DE000215080409040E1F700C0000088E19CE075
:101DF0000FB6F894A895809360000FBE9093600092
:101E0000FFCFCF92DF92EF92FF92FB018FEF9FEF18
:101E10004430510508F481C0C080D180E280F38055
:101E20000E94D50ED701C601B695A79597958795BF
:101E30008170282F220FD701C60181709927AA2708
:101E4000BB27822BB701A60132E07695679557959F
:101E500047953A95D1F74170440F440F842BB70151
:101E6000A601E3E07695679557954795EA95D1F7F2
:101E70004170440F440F440F842BB701A601F4E0D6
:101E80007695679557954795FA95D1F741704295A4
:101E9000407F842BB701A601A5E0769567955795FD
:101EA0004795AA95D1F741704295440F407E842B07
:101EB000B701A601B6E07695679557954795BA950F
:101EC000D1F741704295440F440F407C842BB701F9
:101ED000A60197E076956795579547959A95D1F71E
:101EE000479544274795842B8093BC04D1FA8827D3
:101EF00080F9880F9D2D9170892B9091BD049C7F56
:101F0000892B8093BD046091BC047091BD0484E072
:101F100090E00E94293180E090E0FF90EF90DF9008
:101F2000CF900895E8E9F4E0128E138E8FEA90E0E6
:101F30009183808385E0848F28E833E13383228393
:101F400022E330E0378B268B28EC30E0318F208F76
:101F5000158E178E168E20E530E031A320A382A3C4
:101F60000E94030C0E94D50E1092BD041092BC0476
:101F700080E084608093BD0460E074E084E090E0E1
:101F80000E9429310E94200C0895AAE2B0E0EBECF7
:101F9000FFE00C948F3087E891E0FC0101962091DE
:101FA000F100208321E08F389207B9F780918801F2
:101FB000893009F456C0C8F4823009F4B3C08330C4
:101FC00009F482C0813071F18091E80083FFE7C09D
:101FD00080918701909188019A3008F0E0C0E92F44
:101FE000F0E0E75BFE4C0C9473308A3009F489C052
:101FF0008B3051F780918701813231F780918B01CD
:1020000090918C01892B01F78091E800877F809364
:10201000E8000E94080A80918901809300010E94D3
:10202000D50ED2CF80918701813A71F68091E80078
:10203000877F8093E80080918B0190918C01892BA0
:1020400061F060E080E090E070E00E94AF09809174
:10205000E8008B778093E800B7CF68E08FE891E0E5
:10206000F3CF80918701813209F0AECF80918B014F
:1020700090918C018D7F892B09F0A6CF8091E8008B
:10208000877F8093E8008091E80082FF18C09091DC
:10209000F3008091F200029731F48091F1008130D9
:1020A00011F0863021F48091F100809397018091A6
:1020B000E8008B778093E8000E94080A85CF809122
:1020C00040028111E0CF80CF80918701813A09F0F1
:1020D0007BCF80918B0190918C01892B09F074CF7B
:1020E0008091E800877F8093E8008091E80080FF7E
:1020F000FCCF809100018093F1008091E8008E7701
:10210000D9CF80918701813209F05ECF8091E800BC
:10211000877F8093E8000E94080A80918A0180935B
:10212000830152CF80918701813A09F04DCF809190
:10213000E800877F8093E8008091E80080FFFCCF73
:1021400080918301D8CF803889F0823841F5809121
:102150008B018F70873018F58093E9008091EB0038
:1021600085FB882780F91092E90006C080918401E0
:1021700090911F02911182609091E800977F909357
:10218000E8008093F1001092F1008091E8008E77D2
:1021900023C0811116C080918901813011F1809195
:1021A000E80083FF0AC08091E800877F8093E80001
:1021B0008091EB0080628093EB00AA96E3E00C94A0
:1021C000AB30823061F780918901882389F01092C9
:1021D000E9008091E800877F8093E8000E94080A68
:1021E000DECF81E0933009F080E080931F02EFCFD3
:1021F00080918B018F702FEF280F263080F680930F
:10220000E9002091EB0020FFE2CF933031F4809180
:10221000EB0080628093EB00DACF9091EB0090614D
:102220009093EB0021E030E0A90102C0440F551F5C
:102230008A95E2F74093EA001092EA008091EB0061
:102240008860E8CF8111ABCF109189011F77809111
:10225000E3008078812B8093E3008091E800877F02
:102260008093E8000E94080A8091E80080FFFCCF7C
:102270008091E30080688093E30083E0111101C046
:1022800082E0809340028BCF8058823008F087CF65
:102290004091890150918A014C3D83E0580799F59E
:1022A00083E08A838AE289834FB7F894DE0113962C
:1022B00020E03EE051E2E32FF0E05093570084919C
:1022C00020FF03C082958F703F5F8F708A30C8F007
:1022D000895C90E08D939D932F5F243161F74FBF10
:1022E0008091E800877F8093E8006AE270E0CE0189
:1022F00001960E94AF098091E8008B778093E800F7
:102300004ECF805DE6CF80918B0190918C01252F7F
:1023100033272330310509F44AC078F521303105DF
:1023200009F483C08BE590E0E4EFF1E02230310561
:1023300009F035CF2091E800277F2093E800209115
:102340008D0130918E018217930708F49C0140E0C3
:102350002115310509F06EC041116CC08091E80073
:1023600082FDC9CF80914002882329F2853019F27D
:102370008091E80083FFF2CFBECF2132310509F40E
:1023800045C02232310509F00ACF8330910508F0AB
:1023900006CFFC01EE0FFF1FE25EFE4F0190F081C1
:1023A000E02D855E9E4FDC018C9190E010C0CA014B
:1023B0009927423019F18330910568F4892BB1F4E3
:1023C000EFE9F2E0E4918E2F90E0EFE9F2E0009780
:1023D00009F4E5CEAFCF039709F0E1CEE1E6F2E0F4
:1023E000E4918E2F90E0E1E6F2E0F1CFEFE8F2E049
:1023F000E4918E2F90E0EFE8F2E0E9CFEFE7F2E032
:10240000E4918E2F90E0EFE7F2E0E1CF8330910589
:1024100008F0C5CEFC01EE0FFF1FEC5DFE4F0190F2
:10242000F081E02D89E090E085CF82E190E0EFE45B
:10243000F2E080CF80914002882309F45CCF8530A0
:1024400009F459CF8091E80083FD55CF8091E800D1
:1024500082FD84CF8091E80080FF7ACF9091F300D5
:102460008091F2002115310519F08830910550F066
:1024700041E0089709F040E08091E8008E77809372
:10248000E80066CF44914093F10031962150310924
:102490000196E8CF803809F082CE8091E800877FEE
:1024A0008093E800809185018093F1006ECE8111C8
:1024B00076CE10918901123008F071CE8091E8003B
:1024C000877F8093E800109385010E94080A1123FA
:1024D000D1F084E08093400242E061EC81E00E9410
:1024E000770A42E261EC84E00E94770A42E261EC02
:1024F00082E00E94770A42E260EC83E00E94770A61
:10250000809140024CCE8091E30087FDE2CF81E0D4
:10251000E1CF80911001877F809310019091E303B8
:102520009D7F9093E30384FF06C08F7E809310010C
:1025300082E00E94DB048091100185FF06C08F7D40
:102540008093100180E20E94DB040E94230D089515
:10255000CF92DF92FF920F931F93CF93DF93EC0103
:102560008B01F42E8091100182FF66C0C090D103D0
:10257000D090D203CC16DD0619F0209709F05CC08C
:10258000809110018B7F80931001C1E081FD10C00C
:102590008091CF039091D0039801281B390BC1E0A3
:1025A00080910B0190910C012817390708F4C0E0C5
:1025B000C17080911001C0FB81F9809310016C2FD4
:1025C000C6010E94C0078091E10381FF08C080918D
:1025D000100180618093100182E00E94E1048091EB
:1025E000E10385FF08C08091100180628093100193
:1025F00080E20E94E1046C2FC6010E94160EFF20AB
:1026000031F08091B30485FF02C086FF29C080911C
:10261000B6049091B7040E94090B8091D103909168
:10262000D2039C0130522115304308F499270E94AF
:10263000770E0E94891210C0CE01905281159043EE
:10264000B8F4CE0199270E94770E8091D103909122
:10265000D203C817D90769F31093D0030093CF03AF
:10266000DF91CF911F910F91FF90DF90CF90089550
:10267000CE01E9CFCF93DF93EC014A855B856E8570
:102680007F850E9444089B8190958091E303892374
:102690008093E3038C810E94E1040E94230D86E075
:1026A000FE0111928A95E9F7DF91CF910895CF93BA
:1026B000DF93EC018D8181FD14C082608D83809158
:1026C000E3039B81892B8093E3038C810E94DB04CD
:1026D0000E94230D488559856E857F85CE010E9415
:1026E00044081092CC031092CB038D8180FD03C06F
:1026F000CE010E943A13DF91CF9108951F93CF939B
:10270000DF93182FA0914103B0914203109709F471
:102710004AC010924403109243031092C7021092D1
:10272000C6021696CD91DC911797CE019A95811528
:102730009F4108F4D07ED1E0C11101C0D0E01996CC
:10274000ED91FC911A97309731F01B966D917C9129
:1027500080E00995D823DD2339F08CEF8C0F813A86
:1027600030F58C2F0E94BB081123A9F0E0914103A2
:10277000F0914203808584FD0EC080914003882340
:1027800051F0808191819C01215031092F333E47C6
:1027900010F40E944D090E94230D109242031092E2
:1027A000410310924003DF91CF911F9108950E9441
:1027B000230D8C2F0E94260ED7CFAEE1B0E0E3EEC2
:1027C000F3E10C948530A0900D01B0900E0181E0F2
:1027D00090E090930E0180930D01812C912CE12CBF
:1027E0006401F12C15C0F80125913491472D6F2D0E
:1027F0008E2D0E94AE0B0E5F1F4F73948FE07812E8
:10280000F2CFAFE0CA0ED11CF394B4E0FB1639F05E
:102810008601000F111F0D551D4F712CE4CFE3945D
:102820008CE3880E911CA4E0EA12DACF0E94920F8A
:102830001A8219821C821B821E821D8218861F82A8
:1028400088EC90E09A8789870CE212E04AE050E039
:10285000B801CE0101960E942F31065F1F4F0C3741
:10286000B2E01B0799F7FE013B968AE0DF011D925B
:102870008A95E9F77F014AE050E0B801C7010E945C
:102880002F31065F1F4F0C3CB2E01B07A1F7FE0182
:10289000759689E0DF011D928A95E9F78FEF9FEF2A
:1028A0009A8F898F87E08E8F7F014AE050E0B801D0
:1028B000C7010E942F31065F1F4F0C31B3E01B0789
:1028C000A1F7B0920E01A0920D016E96EDE00C946E
:1028D000A13080E00E94E50B60E087E290E00E947A
:1028E0000B310E94DD130E94D50B81E00E94E50BA5
:1028F0000895AAE0B0E0EFE7F4E10C948A30EEEB43
:10290000F1E080E5DF011D928A95E9F7E7EEF3E05B
:1029100088E3DF011D928A95E9F78EEBC82E81E0EE
:10292000D82E7F010CE712E0F701D182C0824AE085
:1029300050E0B801CE0101960E94DD3088E0FE0132
:102940003196D60101900D928A95E1F789859A8595
:10295000D70113969C938E931297BAE0CB0ED11C9D
:10296000E7E0EE0EF11C065F1F4F0C3CF2E01F0784
:10297000D9F62A96E8E00C94A630AAE0B0E0E3ECA1
:10298000F4E10C94883008EC12E08CECE82E82E044
:10299000F82E97E0B92E2DEBC22E21E0D22EAA24DC
:1029A000A3944AE050E0B701CE0101960E94DD30C9
:1029B000F8013896DF018B2D1D928A95E9F7898100
:1029C0009A81D80111969C938E938F8112968C9345
:1029D00012978D8113968C931397888514968C93F8
:1029E0001497898515968C9315978B819C811796E2
:1029F0009C938E9316978A8587FD04C01E96DC9261
:102A0000CE921D9780FF02C0F801A08681FF07C00B
:102A1000D80118969C911897926018969C9382FF03
:102A200004C0F80190859460908783FF07C0D801A7
:102A300018969C911897986018969C9384FF04C0F0
:102A4000F80190859061908785FF07C0D80118969E
:102A50008C911897806218968C93BAE0EB0EF11C5B
:102A6000015F1F4FECE1EE16E3E0FE0609F099CF9F
:102A70002A96EAE00C94A430282FCB01283070F479
:102A80004AE0249F90011124B901645D7D4F4AE022
:102A900050E00E94DD3080E090E008958FEF9FEFDE
:102AA0000895AAE0B0E0E7E5F5E10C9490309C01D0
:102AB00097558F3F910509F070F4BE016F5F7F4F0E
:102AC000822F0E943C15892B31F489859A852A969C
:102AD000E2E00C94AC308091B0049091B104F7CF57
:102AE000A0E0B0E0E6E7F5E10C948B30D62E172F8E
:102AF000C42FD22F8823A9F04093DC030E94C8087A
:102B00009093820180938101C77081E001C0880F9A
:102B1000CA95EAF70E94B20ECDB7DEB7E7E00C9493
:102B2000A7308091DC03481337C0809181019091D8
:102B300082010E949B097C018D2D912F0E945115CD
:102B4000E816F90648F5CD130CC0802F0E94A50E9B
:102B5000D77081E001C0880FDA95EAF70E94B90EBC
:102B6000DBCFC77011E0812F01C0880FCA95EAF74B
:102B70000E94B90E80E28D0F883050F48D2F87703F
:102B800001C0110F8A95EAF7812F0E94B20EDDCFA6
:102B9000802F0E94A50EC0CFC77081E001C0880FB2
:102BA000CA95EAF7DBCF9C01CB01BA01F901329655
:102BB000459154916417750748F0F9013496659171
:102BC00074910E94CD3080E090E008958FEF9FEFE8
:102BD00008959C01DA010296FC0145915491FC0193
:102BE00085919491A817B90758F0F9013496859109
:102BF00094910E94CD300E94030C80E090E00895F3
:102C00008FEF9FEF0895A8E0B0E0E9E0F6E10C94C3
:102C10008430FE01319688E0DF011D928A95E9F744
:102C20009AE2A92E91E0B92E8F012EE2E22E21E048
:102C3000F22E3F01CC24C394D12CF50181915F0188
:102C40008F3F09F447C0F894E82FE295EF70F0E069
:102C500021A18F70A60102C0440F551F8A95E2F78B
:102C6000CA01922F982B91A392A18095892382A3C8
:102C7000789400C0EEE2F1E021E030E0812C912C6C
:102C800041914F3F09F44AC0A42FA295AF70A05EB6
:102C9000B0E08C9190E04F7002C0959587954A9571
:102CA000E2F7817081113AC0C901882A992A220F5E
:102CB000331F51E0ED33F50719F7F50131978081A6
:102CC0008F3F11F00E94020780EA8A95F1F7D80140
:102CD0008D929C920E5F1F4FEA14FB0409F0ADCF5A
:102CE00048E050E0B30186E192E00E94C030892BB9
:102CF000C1F088E0F301A6E1B2E001900D928A955F
:102D0000E1F781E0809380010E94C80890937F01E1
:102D100080937E012896EEE00C94A03080E090E055
:102D2000C4CF809180018823A9F380917E01909186
:102D30007F010E949B09059768F348E050E066E137
:102D400072E088E392E00E94C030892B49F088E06D
:102D5000E6E1F2E0A8E3B2E001900D928A95E1F796
:102D600010928001D7CFA0E0B0E0E9EBF6E10C943F
:102D70008930EC010881002309F4A8C0013009F072
:102D800044C08981813049F48E010E5F1F4F8A81D2
:102D90000E94A50EE8012196EDCF823039F48E0114
:102DA0000E5F1F4F8A810E94760DF4CF833039F475
:102DB0008E010E5F1F4F8A810E94260EEBCF84305A
:102DC00011F02196E8CF2A81229680E090E06AE017
:102DD000AE014F5F5F4F2053330B2A30310550F067
:102DE0000097C9F2EFE9FFE03197F1F700C000006A
:102DF0000197F6CF689FF001699FF00D1124C9017A
:102E00008E0F9F1F2981EA01E3CFE02FF0E0EC58FD
:102E1000FE4FB490202F26952695269530E0F90197
:102E2000EC59FE4FE4900770F12C002E02C0F5948F
:102E3000E7940A94E2F7F1E0EF22FF24F901EC5A5B
:102E4000FE4FC490D12C002E02C0D594C7940A9492
:102E5000E2F781E0C822DD24F901EC5BFE4F14911A
:102E6000E114F104A9F4C114D10409F560E070E0A3
:102E70008B2D0E948D0EE12FF0E002C0F595E795B5
:102E80000A95E2F7E0FF87CF8CE20E94A50E83CF80
:102E900081EE0E94760DC114D10449F460E070E027
:102EA0008B2D0E948D0E81EE0E94260EE4CF86EEC1
:102EB0000E94760D60E070E08B2D0E948D0E86EEF4
:102EC0000E94260EE114F104B1F2EDCFCDB7DEB7CA
:102ED000E9E00C94A530A6E0B0E0E1E7F7E10C945E
:102EE00080307C01DC0114968C91882309F490C217
:102EF00061E0C7010E94FE0C8C01F70185818823E7
:102F000031F18091CB039091CC03009701F1081728
:102F10001907E9F0FC01FF27887F9927892B09F021
:102F200069C064E0EE0FFF1F6A95E1F7E55BFC4FB7
:102F300085818460858311830083CF010E945713AC
:102F40001092E30361E0C7010E94FE0C8C01D701DF
:102F500015965C90552009F4BFC0C801975780387A
:102F6000910508F02BC2D02EBFE0B01708F440C284
:102F70008FEF93E00E94ED3081113AC20CE113E033
:102F8000D1103BC054E0C52E9E012F5F3F4F490139
:102F9000D401EC2D1D92EA95E9F75801FFEFAF1A25
:102FA000BF0AC8010E94ED308983882309F420C23A
:102FB000813009F08DC0380122E0620E711CC5011C
:102FC0000E94ED30D82E8A83882309F411C28FEF36
:102FD0008D0D833000F5C3010E94ED308B83882373
:102FE00019F0C4010E94B316580133E0A30EB11CBE
:102FF0008501CECFE0E0F0E09BCF0115E4E01E07B5
:1030000009F4F6C1C8010E94ED300F5F1F4F811116
:10301000F4CFDA94B5CF8BEF8D0D833058F558018E
:1030200043E0A40EB11CC3010E94ED308B838823C2
:10303000F9F2C5010E94ED308C83882381F08B81E9
:103040009C8181305FEF950710F0982F8827A6E0CC
:10305000DA1651F0B7E0DB1651F00E94C52758018F
:10306000E4E0AE0EB11CC4CF0E948127F8CF0E94CD
:10307000A327F5CFF4E05301DF12BACFC3010E94BA
:10308000ED30D82E580124E0A20EB11CC8010396E1
:103090000E94ED30282FDD2009F4AAC1882309F40D
:1030A000A7C12150330B4FEF429FC001439F900DAA
:1030B00011244D2D4150550B840F951F019708F495
:1030C00097CFAFE9BFE01197F1F700C00000F6CF4E
:1030D000C4010E94B3168CCF0115E7E51E0708F462
:1030E0009BC10115F8E51F0708F039C1680127E504
:1030F000D21A6CEB72E08C2D0E943C15892B21F5C5
:10310000C60134E0880F991F3A95E1F7FC01E55BB1
:10311000FC4F22812130D9F42091BC023091BD02B4
:10312000232B91F02091BE023091BF02232B61F03E
:103130002091C0023091C1024091C2025091C3025D
:10314000242B352B232B59F0F701558015C0223045
:10315000D9F72091C0023091C102232BA9F3FC01C1
:10316000E05BFC4F20812E7F2083855B9C4F0E947B
:103170005713D70115965C9080910F01882309F4AD
:1031800093C1380140EE641A71084090E2038091C7
:10319000E103482A8091E003482A58E0651671044B
:1031A00008F0C8C198012770332781E090E001C082
:1031B000880F2A95EAF7552009F4B9C1482AD701A2
:1031C0008D919C910E94600421E030E0F90102C0E1
:1031D000EE0FFF1F8A95E2F7FE83ED8320904103F7
:1031E0003090420328ECC22E22E0D22EA12CB12C2A
:1031F000411005C0D60112968C918111BFC1F60114
:10320000838190E02D813E8182239323892B09F4D1
:10321000B5C18085982F97709111A2C138E06316CF
:10322000710408F0C9C15110A3C1F60180809180DA
:103230000815190509F4A2C12C143D0409F49EC116
:10324000D6011D96ED91FC91309721F08081882365
:1032500009F494C1642DC6010E942308882309F44F
:103260008DC10815190511F4511005C08114910480
:1032700009F0AAC1512C80E00E947E13D092420333
:10328000C092410381E0809340038FE08A9DF0016A
:103290008B9DF00D1124E853FD4F85818093C7026B
:1032A00051100EC08114910459F0808191819C01CC
:1032B00024503109213A310508F08EC10E94BB0823
:1032C0008FE08A9DF0018B9DF00D1124E853FD4F96
:1032D000C680D780C6019A9581159F4110F4E0EE13
:1032E000DE2299249394C60101978F339E4708F0FC
:1032F000912C8FE08A9DD0018B9DB00D1124A85395
:10330000BD4F1996ED91FC911A97309731F01B96AD
:103310006D917C9181E00995982281E05826992051
:1033200009F473C18FE08A9DF0018B9DF00D11248B
:10333000E853FD4F868197810E94B6038093C602B1
:10334000C60128E06216710408F049C10E944D09C7
:103350000E94230D511064C00E94230D49C080912A
:103360000F01882309F454C18091490390914A03C5
:103370000817190781F410924A031092490310921A
:10338000450310924603109247031092480310928F
:10339000440310924303E0914103F09142033097BC
:1033A00009F47BC0808191810817190709F075C065
:1033B0001092400380E00E947E136FC00E35FCE740
:1033C0001F0799F00F352CE7120749F050900F01B5
:1033D0000D353CE7130709F05EC0552031F010921F
:1033E0000F0180E00E947E1303C081E080930F01F3
:1033F0008091E4038770882359F0F7018581882341
:1034000039F08091BD0482FF03C082E00E94BF04B6
:103410002696E2E10C949C3080910F018111B1CE8F
:103420008091B30480FDF8C0F7018581811110926D
:10343000DC03D70115969C91911120C10631FCE760
:103440001F0709F063C28091E1033091B20430FF9D
:1034500004C0282F247421111DC4282F2A7A31FF7B
:1034600004C0482F4171411120E0432F487032FFC2
:1034700013C4382F3878332309F40EC441111EC405
:10348000911115C48091DD03882309F419C485E3E3
:103490000E94BB0861CF511074CEC80197558F3F71
:1034A000910511F008F0B4C05801F8EFAF22BB2429
:1034B000A114B10409F09CCFF801FF2794E0EE0FAE
:1034C000FF1F9A95E1F79F01255B3C4F6901D701EA
:1034D00015968C91E05BFC4F908180FB90F9908376
:1034E000882309F4ECC00E94C8089093CE0380930F
:1034F000CD03F60182818F5F82838091E3039091F7
:10350000E103892B83838091E00384834681578183
:1035100066857785C6010E944408D60115968C9170
:1035200081FF5801B092CC03A092CB0379CF809554
:10353000482245CE552009F417CF10934A03009333
:1035400049030E94300960934503709346038093BA
:1035500047039093480310924403109243032FCEE5
:1035600048E06416710458F5552031F081FF06C01B
:10357000D6018D909C9060CE82FD57CE9FEFA91A08
:10358000B90AAFE0CA0ED11CB8E0AB16B10409F01D
:103590002FCE2114310409F480CFE8E06E167104B7
:1035A00008F078C0642DC1010E942308811138CF32
:1035B00081E00E947E1334CF5110DACFDFCF552047
:1035C000E9F280FFDBCFD4CF8091490390914A0389
:1035D0008815990599F64ECE0E94260E71CE049755
:1035E000813A910530F48C2D0E94A208511055CFDC
:1035F000B3CE0E94230D8FE39CE90197F1F700C041
:1036000000008C2D0E94760DF1CF0E94230DEECF8D
:103610008091B30480FFC6C10E94C8085C01F70115
:103620008581882309F4E8C08091100182FF06C0DB
:1036300040E0B50180E090E00E94A8120431FCE770
:103640001F0709F46FC005312CE7120709F456C0B3
:10365000D70115968C910331BCE71B0709F09AC07E
:1036600090911001916090931001882309F469C032
:103670001092D2031092D1031092DC03C80190572C
:10368000839708F438C20631BCE71B0709F0ADC0C8
:1036900091E0D9CED1018D919C911197081719070E
:1036A00041F4552009F484CE18968C9185FDF5CE11
:1036B00081CE552009F4F1CEF1018085F7CFF901D3
:1036C0004485558566857785C9010E944408D601E1
:1036D00015968C9181FFA4CEC6010E943A132091C9
:1036E000CB033091CC038091B3040217130709F088
:1036F00099CE1092CC031092CB0394CE90911001EE
:10370000892F8E7F90FF8160809310010E94891223
:103710008091100180FF81C0F7018581882309F421
:1037200083CE56C0809110018E7F809310010E943D
:1037300089128091100180FDEFCFF7018581811101
:103740009BCFD70115968C91882309F470C00A3558
:10375000BCE71B0709F4E1C208F0C4C20130FCE772
:103760001F0709F4D8C203302CE7120709F4CDC2B1
:1037700001153CE7130709F05AC00E94D50E8FEFE0
:1037800094E3ACE081509040A040E1F700C000001D
:103790000E94170B9801305221153043F0F0D701E9
:1037A00015968C919091100190FFFCC00832110584
:1037B00008F09FC00E31110508F0E4C098012450B4
:1037C00031092A31310508F4B5C0882309F49EC0B7
:1037D0001092D2031092D10327CE1092D2031092EE
:1037E000D103882321F11092DC030737ECE71E0791
:1037F00009F068C281E06CC2013E110531F480918C
:1038000010018F7E8093100198CF053E110549F479
:10381000809110018F7D80931001D70115968C91B6
:103820008ECFC80190528115904308F0B8CFD701D0
:1038300017968D919C91009709F473C20E94E70539
:10384000D82E192FD7011596BC9015971696CC90A7
:10385000C2948FE0C8228091E4038770882309F125
:10386000AB2CBB20F9F0892F807F803469F080E297
:103870008D0D8830B0F0892F807E803229F4B1E040
:10388000BD1578F4CC2069F08091BD0482FF09C099
:1038900082E00E94BF048091E4038770AA24A3946D
:1038A0008111A12C812F82958F70883009F49CC3DF
:1038B00008F060C2843008F04CC2012F0F708230D3
:1038C00008F46AC2812F807F803211F00295007F58
:1038D000DD2009F497C2F1E0DF1609F439C3BB20FB
:1038E00009F44DC3CC2009F445C38D2D0E94760DFB
:1038F000CFC209331105C0F40D32110508F047C0DD
:103900000B32110509F443C08111B2CE07372CE701
:10391000120709F4E5C182E008373CE7130709F014
:1039200010CF0E941904D6C10436110581F181110E
:1039300035C038C09091B30494FD47CF882309F473
:10394000A8C08091E0039091E103892B8D7F8823AB
:10395000B9F11092D2031092D1038091B30481FD8A
:103960002FC060E0C8010E94C00760E0C8010E944B
:10397000160E8091E0038D7F0E941C0982E00E9458
:10398000BF0436CD9091B30493FD1FCFD7CF909154
:10399000B30492FFD3CF882309F446CD1092D2030B
:1039A0001092D103D70115968C91F801E851FC478C
:1039B000E730F10508F038CDED5AFE4C0C94733029
:1039C00089E0F701A3EDB3E001900D928A95E1F74C
:1039D0001092D6031092D5038091D1039091D20317
:1039E00008171907C9F52091B30425FF35C0309198
:1039F000100131FF02C026FF2FC02091CF0330916C
:103A0000D0036501C21AD30A0E945115C816D906FF
:103A100018F58091E10381FF08C080911001806159
:103A20008093100182E00E94E1048091E10385FF10
:103A300008C08091100180628093100180E20E9492
:103A4000E10460911001669561708091D1039091BD
:103A5000D2030E94160ECCCC8091E003D090E103FB
:103A6000D82AD1FADD24D0F88D7F0E941C0910934A
:103A7000D2030093D103B092D003A092CF03DD0C08
:103A80006894D2F890911001997FD92AD0921001B0
:103A900075CF40E0B501C8010E94A812A9CC06E28A
:103AA00021EE41EE6AE17CE70E947015A1CC07E2AD
:103AB00025EE45EE6BE17CE7F7CF06E221EE40EE26
:103AC00068E17CE7F1CF07E225EE44EE69E17CE7AF
:103AD000EBCF06E221EE42EE6CE17CE7E5CF07E2B8
:103AE00025EE46EE6DE17CE7DFCF08E221E045EE12
:103AF0006EE17CE7D9CF84E090E00E94F5309093AE
:103B0000BD048093BC04F801E150F047E232F105B6
:103B100020F4E65AFE4C0C9473308091BC04816012
:103B20008093BC046091BC047091BD0484E090E07B
:103B30000E9429310E94D50E5BCC8091BD04886023
:103B40008093BD04EFCF8091BC048260E9CF809167
:103B5000BC048460E5CF8091BC048860E1CF809193
:103B6000BD048160EDCF8091BD048260E9CF80917A
:103B7000BC048061D5CF8091BC048062D1CF80919C
:103B8000BC048064CDCF0E94D50E8091BC048068B7
:103B9000C7CF8091BC048C60C3CF8091BD0483608B
:103BA000CFCF8091BC048E7FBBCF8091BD04877F37
:103BB000C7CF8091BC048D7FB3CF8091BC048B7F35
:103BC000AFCF8091BC04877FABCF8091BD048E7F47
:103BD000B7CF8091BD048D7FB3CF8091BC048F7E21
:103BE0009FCF8091BC048F7D9BCF8091BC048F7B45
:103BF00097CF0E94D50E8091BC048F7791CF809192
:103C0000BC04837F8DCF8091BD048C7F99CF809140
:103C1000BC0482FB992790F921E0922790FB82F95E
:103C200090FB83F97DCF8091BD04982F9095917082
:103C30008E7F892B90FB81F983CF9091BC04892FD3
:103C40008F7B96FF80646CCF0E94D50E9091BC0450
:103C5000892F97FB87F9805863CF61E08EE090E071
:103C60000E940B315FCF60E0F9CF9091BC04892FA7
:103C70008F7E94FF806154CF9091BC04892F8E7FFA
:103C800090FF81604DCF9091BD04892F877F93FF76
:103C9000886056CF20E0E3CB442319F08272811173
:103CA000EFCB992309F4EECB85E3211102C090E01C
:103CB00089E29093DD030E94A2084ECB20E0EECF74
:103CC00089E2E6CB82E008374CE7140709F039CDEA
:103CD0000E940D0443E062E081E00E94940488CBDE
:103CE00081E01FCE0B354CE71407C9F00C355CE7BB
:103CF000150709F09CCD8091BD0482FB882780F9CF
:103D000091E089270E94970B92CD6FEF7FEF80E0C3
:103D100090E00E9429310E94EB0E81E0F3CF80E019
:103D2000F1CFF7018581C080D180882369F0C60179
:103D30000E94920C182F682FC6010E942904B60118
:103D4000812F0E94750C7ACDC6010E946004182F45
:103D5000F6CF843009F42BC18D2D912F0E94EA03F8
:103D6000882309F495C0BB2009F49EC2CC2009F435
:103D70006DC08EC0893009F4A8C18A5F8F7082300F
:103D800058F70B2DE2EFDE12B2C1812F8F71B11007
:103D9000ABC10E940D0456C1103110F00295007F96
:103DA000BB20B9F0002359F080E28D0D883010F06F
:103DB000D11009C0802F0E94DB040E94230D8D2D9D
:103DC0000E94760DC9CF8091E303802B8093E3039B
:103DD000F4CF8D2D0E94260E002309F4BDCF80E282
:103DE0008D0D883010F0D11004C0802F0E94E104A6
:103DF00006C000958091E30380238093E3030E9433
:103E0000230DAACF8091BD0482FD12C0BB2049F0D2
:103E1000002329F0802F0E94DB040E94230D80E004
:103E2000CFCF80E00E94260E002309F495CFDDCF8E
:103E3000BB2009F452C0C11022C0802F0E94B20ED4
:103E400080E0912F0E94EA03882311F1AA2009F44F
:103E500026C28091E40380FD22C2F7011582869577
:103E6000869586950E940D04C7010E946B1780916C
:103E7000E4038695869586950E94190410C221E078
:103E8000C21215C0D090E003802F8D21081305C009
:103E90001092BF041092BE04D9CF0E94C80890931C
:103EA000DF038093DE03D02AD092E003F1CF80912C
:103EB000B404823068F3C812EBCF802F0E94B20E98
:103EC000802F0E9406098091E203902F9823091702
:103ED000F9F2802B8093E203DBCFC11019C0802F51
:103EE0000E94B90E802F0E9406098091E203902F54
:103EF0009823911108C080E0912F0E94EA03882343
:103F000039F20A2D80C1009508230093E203F3CF14
:103F10008091B404823008F4BBCF31E0C312B8CF33
:103F20008091E1038023882309F4B2CF802F0E947F
:103F3000B90E802F0E9406098091E203902F9823EA
:103F4000992309F4A5CF009508230093E203A0CF9D
:103F50008091BA04BB2039F08C1508F499CF802FDA
:103F60000E94B20EF9CEC81608F0F6CE802F0E943D
:103F7000B90EF2CE802F0E94B20E8D2D62CFCC20D2
:103F800089F049E38091B8049091B904D41621F0E6
:103F90008091B6049091B7040E94090B8D2D0E9468
:103FA000260E76CF802F0E94B90E8D2DA5CF812FA2
:103FB000869586958370882369F0813009F0CCCE90
:103FC0008D2D912F9370B11002C080E090E00E947F
:103FD0007C08C2CE8D2D912F9370B11002C080E06D
:103FE00090E00E945608B8CE812F8370811135C0B1
:103FF000B11028C04D2D429546954770440F440F8F
:104000008D2D8F70042E01C0880F0A94EAF72D2D94
:104010002071222339F02FE030E001C0220F4A95B1
:10402000EAF72095312F369536953370323081F08E
:10403000333061F040919604313039F0822B842383
:104040000E9407040E94490887CE842B822BF8CF58
:10405000822B909196048927F3CFBB2059F110FF52
:10406000F1CF4D2D429546954770440F440F8D2D4D
:104070008F70042E01C0880F0A94EAF72D2D20714D
:10408000222339F02FE030E001C0220F4A95EAF7F1
:104090002095312F369536953370323089F0333094
:1040A00069F040919704313041F0822B84230E94C3
:1040B0000A04C8CF823030F2D4CF842B822BF7CFC2
:1040C000822B909197048927F2CF012F0F70BB208C
:1040D00039F0802F0E940D048D2D0E94B20EB2CFB8
:1040E0008D2D0E94B90E802F0E941904ABCF52EF84
:1040F0005D1580F080EFD816D1F091EFD916D9F187
:10410000BB2009F4B6C0CC2009F4B0C08D2D0E94AC
:10411000760D98CFA3EFDA16F1F0B4EFDB1639F194
:10412000B110F1CFC110AFC0812F8F71DDCF809161
:10413000BA04BB2061F0C81608F084CF212F2F717C
:1041400081E090E001C0880F2A95EAF7BACF8C157C
:1041500008F478CFF3CF80E0BB2009F4A8CF81E04A
:10416000912F9F7101C0880F9A95EAF7A0CF809197
:10417000BD0482FD06C0812F8F71BB2009F4B4CF2E
:1041800008CE8091B404823008F45DC0BB2021F1D8
:104190009091E40397709430B9F41092E403109274
:1041A000E6031092E503812F8F710E9419040E948B
:1041B000490884EF912F0E94EA0381116EC010928A
:1041C000BF041092BE046BC0C81688F763E0812F4D
:1041D0008F710E94EF08EBCFC81688F11092E403AC
:1041E0001092E6031092E50364E0812F8F710E9424
:1041F000EF080E94490884EF912F0E94EA03882368
:10420000F1F2C110DCCF40E0D70115966C91159703
:104210008D919C910E94E00C8091B50483FF09C0B0
:104220008091BE049091BF04029719F48D2D0E94D5
:10423000A50E1092BF041092BE04A02E07CE81E0FE
:104240000E94BF04D6CFBB2031F063E0812F8F7175
:104250000E94EF08F7CE81E00E94BF04E1E0EC1578
:1042600008F0F0CE82E00E94BF04ECCE812F8F7167
:1042700090CDCC2009F458CFF9E38091B804909107
:10428000B904DF1621F08091B6049091B7040E9422
:10429000090B8D2D0E94260ED5CEC11090CF60E067
:1042A000C7010E94FE0CB4C8C110F2CD2ACEA0E016
:1042B000B0E0EDE5F1E20C948B308091A102803109
:1042C00008F049C08091A002882309F444C0C0913D
:1042D000520289E0D82E809151028C17E1F1EC2E28
:1042E000F12CDC9EE0011124FE01ED5AFD4F84818A
:1042F0008823B1F1918180919C02981331C0908103
:1043000080919B0298132CC08581811129C0028164
:10431000138180919D0290919E02081B190B60E011
:104320008BE992E00E94FE0C0E94511508171907B4
:10433000B8F48091A1028F7080618093A102C75A66
:10434000DD4F88818F70806188838BE992E00E94C5
:104350006B170E94B504CDB7DEB7E7E00C94A73029
:10436000E7012196C770B7CFAFE0B0E0EAEBF1E22A
:104370000C9483308C0186E0F801DE011A960190DE
:104380000D928A95E1F7D801CC9011967C90119707
:1043900015966C9015971296ED90FC9013971496C5
:1043A0005C908BE9A82E82E0B82E80919F0281114B
:1043B00018C0552099F0662009F4CBC1C8010E94AD
:1043C000CC0C882309F4C5C189E0F801ABE9B2E05F
:1043D00001900D928A95E1F70E945721FF24F394F2
:1043E0004BC060E08BE992E00E94FE0CD090A002EE
:1043F00080919D0290919E02DD2009F449C1470100
:10440000881A990A60E08BE992E00E94FE0C0E94F3
:1044100051158816990608F0F6C05520F9F2B090AB
:10442000A10290919C02F8018181FFE0FB1508F444
:10443000A1C0F62C981325C090919B02D8018C91B5
:1044400098131FC02091A2023091A30217968D915C
:104450009C9128173907A9F4611077C08B2D8F70B4
:1044600080618093A1028BE992E00E946B1780919A
:10447000A102F8018683F12C8F2D2F96EFE00C948A
:104480009F30611062C0E091520280915102AE2FC4
:1044900099E0A81302C099E02AC02A2F30E09A9F21
:1044A000D0011124AD5ABD4F11964C911197741241
:1044B00007C04C91C41204C015964C91411153C1D0
:1044C000D9011196A770E5CF2E2F30E09E9FF00105
:1044D0001124ED5AFD4F4181741206C04081C4126F
:1044E00003C045814111C7CFF9013196E7708E13A2
:1044F000EBCF8A859B850E94BD0C292F22952F70BA
:10450000903448F02A5F2F702230C8F0C8010E9412
:104510006B17FD2CB1CF9F70223038F0992351F0EA
:10452000F8019681903130F4A7CF992319F08823B0
:1045300009F4A2CF805E883008F49ECFE7CF803F99
:1045400008F49ACF815F8230F7CF8091A102816019
:104550008093A1028091B50481FD8DCF8BE992E01B
:104560000E946B1789E0EBE9F2E0DF011D928A956A
:10457000E9F781CF981321C090919B02D8018C91CB
:1045800098131BC02091A2023091A30217968D911F
:104590009C9118972817390781F461100EC0169660
:1045A000BC92C8010E946B1789E0F801ABE9B2E048
:1045B00001900D928A95E1F711CFC8010E94CC0CB1
:1045C000882309F4C6C0662009F4C3C08091A10203
:1045D000803208F4F9CE80919B0290919C029A83DC
:1045E0008983FC82EB8280919F028D831E82BF8231
:1045F0008091A2029091A30299878887CE010196AB
:104600000E946B17E1CED090A102BFE0BD1508F06B
:10461000A5CF552009F4E2CE90919C02F80181814A
:1046200098131AC090919B028081981315C0209115
:10463000A2023091A302878190852817390761F47F
:1046400061100AC0D682C8010E946B1789E0D501AB
:104650001D928A95E9F7C2CEC8010E94CC0C88232E
:1046600009F477C0662009F474C08091A1028032F9
:1046700008F4AACE80919B0290919C029A83898330
:10468000FC82EB8280919F028D831E82DF82B0CFFD
:104690006701C81AD90A60E08BE992E00E94FE0C1B
:1046A0000E945115C816D90608F057C0552009F4C4
:1046B00095CE662009F44DC090919C02F80181814D
:1046C00098133DC090919B028081981338C020912F
:1046D000A2023091A302878190852817390779F5C6
:1046E000C0909D02D0909E0260E08BE992E00E9413
:1046F000FE0C8091B50482FD57CFEC18FD08809127
:10470000B0049091B104E816F90608F04DCF8091FD
:10471000A10280FD49CF803108F446CFD80116961A
:104720008C931697982F907F903F09F43ACF982F4B
:10473000907F905F8F70892B16968C9332CFC80133
:104740000E94CC0C811140CE8091A10281608093A7
:10475000A102C8010E946B1741CE89E0F5011192B8
:104760008A95E9F788CE9091B50490FF94CEF6CE65
:10477000A2E1B0E0EEEBF3E20C948E300A871B87E7
:104780002C873D874E875F87688B798B8A8BCE011C
:104790000A960E94B42181112BC089E0FE013A964D
:1047A000DE01119601900D928A95E1F72091510258
:1047B000409152028E858823D9F030E0C9010196DC
:1047C0008770992750E084179507E9F099E0929F48
:1047D000D001939FB00D1124AD5ABD4FFE0131960B
:1047E00001900D929A95E1F7809351020E94B504D1
:1047F00019E08091520290915102891312C0629681
:10480000E4E00C94AA300E94D50E1092510210924E
:10481000520289E0EBE9F2E0DF011D928A95E9F7A7
:10482000E7CF189FC00111248D5A9D4F0E94B421DB
:10483000882329F38091520290E00196877099278E
:1048400080935202D6CFEF92FF920F931F93CF9394
:10485000DF9380919304E0919C01CDE0811131C000
:10486000CDB7DEB7E6E00C94A830D1E0DE0FD093F0
:104870009C01EE2EF12CCE9FF0011124E55DFB4F43
:1048800084818823E9F087819085892B21F48185B3
:104890009285019659F400811181228133814481EE
:1048A00055816681778180850E94B823CE9DF00175
:1048B000CF9DF00D1124E55DFB4F14821092E303B0
:1048C000ED2F80919304E81780F2109293041092D8
:1048D0009C01C6CFA4E0B0E0E0E7F4E20C948130A4
:1048E00020912A04298317E0912E01E010E08DE049
:1048F000382E94E0492E55245394809129049981AF
:10490000891308C00E9423240E94E6072496E1E14F
:104910000C949D305981452F50E05C834B83FA0104
:10492000EE0FFF1FE15EFB4F80819181989ED001C9
:10493000999EB00D1124FD01E951FC4FFA83E983E2
:10494000248121115DC070909304EBE2F4E060E0FB
:1049500070E0812C671508F051C0A384B484A9814C
:10496000BA81CD90DC904FEF5FEF612C262D30E0C7
:104970007901EE0CFF1CEC0CFD1CD701ED90FC90B6
:10498000E114F10439F0AE14BF0409F09A01639404
:10499000A901ECCF4F3F5407E1F1D80102C0AA0FA3
:1049A000BB1F4A95E2F78A2AA801062C02C0440FD1
:1049B000551F0A94E2F79A0121503109482D50E021
:1049C0002417350729F5369EF001379EF00D112486
:1049D000E55DFB4F989ED001999EB00D1124A95121
:1049E000BC4F12962D913C911397308727834482B8
:1049F000108211829287818715965C920E94F70738
:104A00008B819C8101969A8389838370898375CF7A
:104A100014826F5F7F4F3D969DCF10929504109248
:104A20009404109211018091290480932A040E9419
:104A3000E6070E9423240895ACE1B0E0E2E2F5E24B
:104A40000C9480304B8B5C8B6D8B7E8B8F8B988F17
:104A5000882349F08091BE049091BF040196909301
:104A6000BF048093BE04588C51101092E303188A3F
:104A7000198A1A8A86E0FE017396DE011A96019061
:104A80000D928A95E1F78091BD0482FF21C080914B
:104A90009A0490919B04892BD9F00E94C808209118
:104AA000E5033091E603821B930B20919A04309129
:104AB0009B048217930738F08091E40382FD03C0C2
:104AC00082E00E94BF040E94D40881110E94E90480
:104AD0008E85882379F061E0CE010A960E94FE0C53
:104AE0005C0180352CE7920789F4552011F181E0B3
:104AF000809311010A851B852C853D854E855F8538
:104B0000688979898A890E94B823C8C081353CE7C1
:104B1000930729F4552069F00E940D25EBCF8235CB
:104B20009C4739F4552029F0809111018111F4CF6F
:104B3000DECF87EEE82E83E0F82E412C812C912CDD
:104B400066246394712CD7014D915C91CC24CA9456
:104B5000DD24DA9420E0822F90E0FC01EE0FFF1FAD
:104B6000E40FF51F608171816115710539F0A6169A
:104B7000B70609F0C6012F5F6C01EDCFBFEFCB1672
:104B8000DB0609F473C1F701548135814681511167
:104B900004C180911101882309F411C1552009F441
:104BA0000EC10091AE041091AF04311114C081E028
:104BB00090E00C2C01C0880F0A94EAF7482B46833A
:104BC00080912704909128048017910720F4109376
:104BD000280400932704A30102C0440F551F2A95FF
:104BE000E2F79A0121503109D70116968C9190E095
:104BF0002817390781F480919404909195040097C7
:104C000009F450C00E949B090817190708F04AC010
:104C100081E0F7018483852D482ABFEF8B1A9B0A18
:104C2000E7E0EE0EF11CF8E08F16910409F08BCF4F
:104C3000552009F42FC1442009F41AC10E94C80864
:104C4000909395048093940480919304883030F578
:104C500091E0980F9093930499E0FE013A96DE015B
:104C6000119601900D929A95E1F72DE0829FC00177
:104C70001124855D9B4F29E0FE013196DC010190F6
:104C80000D922A95E1F72FEF3FEFDC011A963C9346
:104C90002E9319971C96BC92AE921B976C96E2E1EC
:104CA0000C949C3020912A0480912904922FE0E0FA
:104CB000F0E06701281314C090932A04EE15FF0555
:104CC00009F4A9CF90E0FC01EE0FFF1FE15EFB4F5E
:104CD00091828082019683709927809329049BCFCB
:104CE000022F10E0F801EE0FFF1FE15EFB4F608125
:104CF0007181F7E0F69FD001F79FB00D1124A95103
:104D0000BC4F4D915C9111975C8F4B8F50E030E020
:104D100040E0E42FF0E0EE0FFF1F6B8D7C8DE60F7F
:104D2000F71F2080318021143104E1F0F701019058
:104D3000F081E02DFA8FE98F30E005C026163706A6
:104D400009F4552D3F5FE32FF0E0EE0FFF1F698D53
:104D50007A8DE60FF71F608171816115710571F71A
:104D60004F5FD7CF5523B1F0F601341708F0FD019E
:104D700031E03483EE15FF0509F49ECF921305C090
:104D8000EA17FB0711F49F5F937098012F5F3F4F65
:104D9000237090CFE0E0F0E0F8CF50E031112FC069
:104DA000B30102C0660F771F2A95E2F7CB01019786
:104DB0004817590799F4C4010E94F7070FC050E043
:104DC00031111DC0D30102C0AA0FBB1F2A95E2F703
:104DD0009D01215031092417350709F080E0F301C6
:104DE00002C0EE0FFF1FCA94E2F76F01C094D70113
:104DF00016969C9116979C2116969C930DCFCA01EE
:104E00000C2C02C0959587950A94E2F79A012150DF
:104E1000310924233523232B39F580FF25C0F701E1
:104E200082819381892BD9F087E0FE013196DF01E1
:104E30001D928A95E9F70E94C8089C018B839C8388
:104E400084E08D83F70192818381792F9887898708
:104E500009811A8144E05E816F810E94B823D701E5
:104E600015961C9281E0BBCF8170B9CF80E0D4CE83
:104E70009091290480912A04981309C00E94232448
:104E800010929504109294040E94E60733CE0E947B
:104E90006A2430CE90912A0480912904981729F031
:104EA0000E946A244110FACE25CE0E94232410923B
:104EB0009504109294040E94E607F4CFA6E0B0E0B7
:104EC000E4E6F7E20C948E300E94C8088C018091D1
:104ED0004502909146028017910779F019821A8253
:104EE0000E94C808BC0149815A8180E090E00E947C
:104EF0001C2510934602009345022696E4E00C948C
:104F0000AA30A6E0B0E0E7E8F7E20C949030909386
:104F1000420280934102811520E2920730F40E9400
:104F2000000E2696E2E00C94AC3080EF89838A83F1
:104F30000E94C8088160BC0149815A8181E091E0EA
:104F40000E941C25EECFA6E0B0E0E9EAF7E20C945F
:104F500090309093420280934102811520E29207A3
:104F600030F40E94770E2696E2E00C94AC3080EF8D
:104F700089838A830E94C8088160BC0149815A8163
:104F800081E090E00E941C25EECFCF93DF93D82FD5
:104F9000C92F0E9481278091B6049091B7040E9486
:104FA000090B8D2F9C2F0E94A327DF91CF9108958D
:104FB0000F931F93CF93DF938C01862F6CEB72E0DE
:104FC0000E943C15892BB1F4C091BC02D091BD0266
:104FD000209781F0F8018281833051F4CE010E9444
:104FE000C527CE010E94C527CE010E94C52702C059
:104FF0008430D0F7DF91CF911F910F9108950F93D7
:105000001F93CF93DF938C01EB016CEB72E08C2F3D
:105010000E943C15892B09F05AC0FE01FF27D801D8
:1050200012968C911297E25FFD4F8130A9F415968C
:105030008C9182FD51C080FF4FC082E080838091BF
:10504000BE029091BF020097B9F48091BC0290918A
:10505000BD020097E1F110C08230B9F515968C9130
:1050600082FD28C080FD0BC083E080838091C00258
:105070009091C102009701F10E94812728C084E02D
:1050800080838091C2029091C3020097A9F780911A
:10509000BC029091BD02009711F10E94C52780913A
:1050A000BE029091BF02009739F78091BC029091A7
:1050B000BD02E2CF85E080838091BC029091BD0269
:1050C000009729F00E94C527F0CF86E08083DF910A
:1050D000CF911F910F91089581E08083B6CF809189
:1050E000BE029091BF02B5CF0F931F93CF93DF9372
:1050F0008C01EB016CEB72E08C2F0E943C15892B2C
:10510000A1F48091B6049091B7040E94090BDD27A9
:10511000C25FDD4F8881F801128218828330F1F07E
:1051200048F4813059F0823081F0DF91CF911F91A6
:105130000F9108958430B9F08530B9F78091BC02A1
:105140009091BD02009789F306C08091BE029091B4
:10515000BF02009799F30E94A327E7CF8091C00276
:105160009091C102F6CF8091C2029091C302009744
:1051700091F72091BC023091BD028091BE029091C6
:10518000BF0221153105F1F2009729F7C901E3CFDC
:10519000CDB7DEB7AE970FB6F894DEBF0FBECDBF6A
:1051A00085B7806885BF85B7806885BF84B7877FEE
:1051B00084BF0FB6F894A8958091600088618093B1
:1051C0006000109260000FBE80E890E00FB6F89487
:1051D00080936100909361000FBE80E097E0909310
:1051E0007501809374010E9428070E9479140E941F
:1051F000BD140E94200C0E94580A0E94AE0A8091A1
:10520000E20084608093E2007894809140028823D9
:1052100099F08091E9001091EC00179511271795EE
:105220008F70182B1092E9008091E80083FD0E9496
:10523000C50F1F701093E90082E084BD93E095BD17
:105240009AEF97BD80936E000E940A0D811102C0F3
:105250000E94691484EF0E94020781EF0E940207F6
:1052600081E30E94020780E30E9402070EE211E040
:10527000BDE3EB2EB1E0FB2ED8018D918D018F3F68
:1052800011F00E940207E016F106B1F788E0E8E3AA
:10529000F2E0DF01282F1D922A95E9F7E6E1F2E01E
:1052A000DF011D928A95E9F780E090E00E94F530D9
:1052B000853E9E4F21F40E940A0D811163C065EE68
:1052C0007EEF80E090E00E94293160E082E090E093
:1052D0000E940B3181E08093960461E083E090E0CE
:1052E0000E940B3160E074E184E090E00E9429317B
:1052F00060E086E090E00E940B3160E087E090E0A3
:105300000E940B3140E050E0BA0188E090E00E943A
:105310001D3160E083E290E00E940B3160E08CE0A0
:1053200090E00E940B3160E08DE090E00E940B3134
:1053300019821A821B821C821D821E821F8218867D
:1053400048E050E067E170E0CE0101960E94FB303A
:1053500040E050E0BA018FE190E00E941D3180E012
:105360000E94E50B0E94691440E050E0BA018FE012
:1053700090E00E941D3140E050E0BA0183E190E0EE
:105380000E941D3182E090E00E94ED308093200267
:1053900084E090E00E94F5309093BD048093BC04BB
:1053A0000E940316EFEFF6E721E0E150F0402040C5
:1053B000E1F700C000000E9403168091380280FFD0
:1053C00008C06FEF7FEF80E090E00E9429310E94DB
:1053D000170B83E090E00E94ED300E94070481E00B
:1053E00091E09093480280934702A0E44A2EA2E005
:1053F0005A2E80914002853049F4809140028530D8
:1054000009F45DC00E94D50E0E9449080E9403164F
:10541000F1E28F2EF2E09F2E08E312E0D801F401B2
:10542000219131918D919D9142E0E932F40709F487
:105430007BC028173907A1F3E8E3AE2EE2E0BE2EC9
:10544000312CD501ED90FD905D01F40161907190DA
:105450004F016E147F0461F16E247F24212CCC2433
:10546000C394D12CC60186219721892BB9F02982BA
:105470003A820E94C8089C838B83F1E0FD8391E00F
:1054800096012E213F21232B09F490E09E83498130
:105490005A816B817C818D810E941C252394CC0CC8
:1054A000DD1C2FE02212DECFF4013297F182E08280
:1054B000339434E03312C5CF0E9430093BC0809151
:1054C0004002843021F110921E0288E190E0A0E4B5
:1054D0000FB6F894A895809360000FBEA09360006B
:1054E00083B7817F846083BF83B7816083BF7894F3
:1054F000889583B78E7F83BF0FB6F894A895809167
:105500006000886180936000109260000FBE0E946E
:105510000316E8E3F2E081919191892B09F05AC4D6
:105520004E165F06C1F769CF2817390709F084CFF7
:105530000E945E278091430390914403892B09F4D4
:105540003EC040913102509132026091330270911D
:1055500034022FB7F8948091290290912A02A091E9
:105560002B02B0912C022FBF841B950BA60BB70BFF
:1055700040912D0250912E0260912F0270913002C5
:1055800084179507A607B707D0F080914303909141
:1055900044030E94000E10924403109243031092A1
:1055A00031021092320210923302109234021092A1
:1055B0002D0210922E0210922F0210923002C090F3
:1055C000CB03D090CC03C114D10429F18091CD0339
:1055D0009091CE030E949B097C01C6010E94511547
:1055E0008E159F05C0F42091CB033091CC03C901E7
:1055F0009927287F3327232B09F071C054E0880FA7
:10560000991F5A95E1F7855B9C4FDC0115962C910B
:1056100022FF0E94571380911101882301F180918C
:105620009404909195040097D1F00E949B092091D9
:105630002704309128042817390788F490912A0408
:1056400080912904981709F44DC00E946A24109291
:1056500028041092270410929504109294048091CB
:10566000B30480FF1CC08091100182FF18C00E940B
:10567000C808BC018091CF039091D0039B01281BE7
:10568000390B80910B0190910C012817390738F0E4
:1056900041E08091D1039091D2030E94A8120E9410
:1056A000490890913502891721F0809335020E94B4
:1056B000300980914002843009F09BCE83E08093D2
:1056C000E9008091E80082FF94CE8091E80085FD9A
:1056D00012C08091E8008B778093E8008ACE80E04A
:1056E00090E093CF0E94232410929504109294048A
:1056F0000E94E607B4CF0E94270A882301F1809117
:10570000E8008B778093E800E0904302F090440239
:10571000E981E114F104A9F1EE3F09F055C08A8155
:10572000833020F08550833008F04EC0EA81EE309F
:1057300008F04AC0F0E0E458FE4C0C94733040E2AC
:10574000C42ED12CFE0131967F018091E80085FDA9
:105750000AC08091E8008B778093E8000E94270AB6
:10576000882399F3CCCF8091F100D7018C93B1E0DD
:10577000CB1AD108C114D10411F2EFEFEE1AFE0AD0
:10578000E4CFE43150F4EE2351F0E150E33138F44A
:10579000F0E0E657FE4C0C947330EE3F39F28FEF99
:1057A00000C21A8289E08B830FC08A818230A9F0FF
:1057B0008330E1F0813099F70E9430090E947930FE
:1057C0006B837C838D839E8340E250E0BE016F5FDC
:1057D0007F4F82E00E943B0B0CCE87E290E00E945C
:1057E000ED301B821C821D828E83EECF80910D01D5
:1057F00090910E01892B41F3FE013196D8018C91D5
:1058000011969C910E5F1F4F928383833296B2E074
:1058100000341B0799F7D8CF8A81823009F0BFCFB7
:105820008B819C81AD81BE818BA79CA7ADA7BEA7B4
:10583000BC01CD010E94793087E290E00E940B31DB
:10584000C3CF4C816B818A810E94460C982789279F
:1058500098279E838D83B8CF2D813E8132272327C1
:1058600032274C816B818A810E94AE0BADCF0E94A2
:10587000DD13AACF80E18A83A7CF1A8284EE93CF6B
:105880008C81082F10E08D3108F09ECFCA80DB801C
:10589000DC24CD24DC240C0D1D1D7E0195E0E90ED9
:1058A000F11C0C151D0509F48FCF80E0A4EECA167B
:1058B000D10428F4C601845E9C4F0E94ED30F701AC
:1058C00081937F01FFEFCF1ADF0AEBCF80910D01AB
:1058D00090910E01892B09F477CF8C81E82EF12C61
:1058E0008D3108F071CF0A811B8110270127102705
:1058F0009E012F5F3F4F6901E20EF31EEC14FD0481
:1059000009F462CF043E110540F4D60114966C915F
:10591000C801845E9C4F0E940B310F5F1F4FBFEF89
:10592000CB1ADB0AEBCF0E94D50B4ECF84E0A3CF7E
:105930008C81082F10E08D3108F046CFCA80DB80C3
:10594000DC24CD24DC240C0D1D1D7E01E5E0EE0ED3
:10595000F11C0C151D0509F437CF80E0F0EECF16D1
:10596000F1E0DF0620F4C60188960E94ED30D701F1
:105970008D937D01BFEFCB1ADB0AEBCF8C81E82E34
:10598000F12C8D3108F020CF0A811B8110270127CF
:105990001027003EE1E01E0708F016CF80EE91E0F0
:1059A000801B910B8E159F0508F40ECF9E012F5F73
:1059B0003F4F6901E20EF31EEC14FD0409F404CF1D
:1059C000003E31E0130738F4D60114966C91C801FB
:1059D00088960E940B310F5F1F4FBFEFCB1ADB0A77
:1059E000EBCF88E0E2E1F1E0DE01919601900D92CB
:1059F0008A95E1F7FE0132968FE1DF011D928A95CB
:105A0000E9F786E0898388E07F96DE0115960190AC
:105A10000D928A95E1F7D8CE84EE898381E08A835E
:105A20001B821C82D1CE8B819C81092E000CAA0B7B
:105A3000BB0B35E0880F991FAA1FBB1F3A95D1F702
:105A4000AC01BD01405E5F4F6F4F7F4F803EEFEF77
:105A50009E07AE07BE0708F0B7CE843EF1E09F0771
:105A6000A105B10508F0B0CE453E21E05207610521
:105A7000710520F044EE51E060E070E0481B590BE6
:105A8000BC016D5E7A4FCE0101960E94B7309CCE6C
:105A90004EE150E06FEF70E0CE0103960E94D630E9
:105AA00080910D018983EA828FCE81E090E090930E
:105AB00044028093430282E390E090933702809304
:105AC00036020E94C80880CE80910D018983EA8247
:105AD0008091360268CE0B811C8140E250E06FEF6E
