:100000000C9496030C94CE030C94CE030C94CE0364
:100010000C94CE030C94CE030C94CE030C94CE031C
:100020000C94CE030C94CE030C9482310C945A326F
:100030000C9437310C94CE030C94CE030C94CE0365
:100040000C94CE030C94CE030C94CE030C94CE03EC
:100050000C94AD300C945E310C94CE030C94CE0312
:100060000C94CE030C94CE030C94CE030C94CE03CC
:100070000C94CE030C94CE030C94CE030C94CE03BC
:100080000C94CE030C94CE030C94CE030C94CE03AC
:100090000C94CE030C94CE030C94CE030C94CE039C
:1000A0000C94CE030C94CE030C94CE03050109806E
:1000B000A101850319012AB700150126B700950192
:1000C00075108100C0050C0901A101850419012AE0
:1000D000A002150126A002950175108100C00660DE
:1000E000FF0961A1010962150026FF00952075082E
:1000F00081020963150026FF00952075089102C052
:1001000005010906A101050719E029E715002501E8
:10011000950875018102950175088101050719008F
:1001200029FF150026FF00950675088100050819AE
:1001300001290515002501950575019102950175A7
:10014000039101C00000000000000000000000005A
:10015000000000000000000000000000000000009F
:1001600000000000000000007E0F00D4FFFFFFC76A
:100170000000007800000000000000002A2B28008A
:100180000000000000000000000000000000002946
:10019000000000002C1E3420212224342627252E86
:1001A000362D3738271E1F202122232425263333BE
:1001B000362E37381F0405060708090A0B0C0D0EEA
:1001C0000F101112131415161718191A1B1C1D2FB6
:1001D0003130232D350405060708090A0B0C0D0ED6
:1001E0000F101112131415161718191A1B1C1D2F96
:1001F0003130354C09025B00030100A0FA0904000C
:10020000000103010100092111010001224400073E
:100210000581030800010904010002030000000930
:10022000211101000122220007058203200001079D
:100230000503032000010904020001030000000976
:100240002111010001223200070584032000011260
:10025000010002000000084D594044010001020362
:10026000011C037600690061006C003A00660036EC
:1002700000340063003200620033006300000012AB
:100280000359004D00440034003000200076003255
:100290000000000A0359004D0044004B0000000418
:1002A0000309042B0014001A000800150017001C95
:1002B0000018000C00120013002A00290004001688
:1002C00000070009000A000B000D000E000F0033AC
:1002D000003400E1001D001B00060019000500119C
:1002E00000100036003700380028003900E000E236
:1002F00000E30021522C002C0022525200500051E9
:10030000004F0035021E021F02200221022202239A
:100310000224022502260227022A004C003A003B52
:10032000003C003D003E003F002D022E022F023017
:1003300002310201004000410042004300440045F8
:1003400000320264024A004D000100010001000178
:100350000001000100010001002352AB00AA00A926
:1003600000AE0035001E001F0020002100220023E7
:100370000024002500260027002A004C003A003BFC
:10038000003C003D003E003F002D002E002F0030BD
:10039000003100010040004100420043004400459C
:1003A00000320064004B004E00010001000100011A
:1003B0000001002352010001000100AB00AA00A9C6
:1003C00000AE00007C207823782578277801000192
:1003D000000100010001000100027C0100217824DD
:1003E0007826782878010001000100010001000151
:1003F000000100010002780378047806780100010A
:1004000000010001000100010001000100010001E4
:1004100000010001000100010001000100010001D4
:1004200000010000000000000000000000000101C9
:100430000203040506080A0C0F1114181C202429B5
:100440002E33393F464C535B626A7179818A929AA6
:10045000A2AAB2B9C1C8CFD5DCE1E7EBF0F4F7FA54
:10046000FCFDFEFFFEFDFCFAF7F4F0EBE7E1DCD566
:10047000CFC8C1B9B2AAA29A928A8179716A625B25
:10048000534C463F39332E2924201C1814110F0CCD
:100490000A08060504030201010000000000000034
:1004A00000000001000100C004B216C816000002DE
:1004B000000200BC04B216C816000003000100C10F
:1004C00004B216C816000004000200A604B216C842
:1004D000162D0805000100C204B216C81600000659
:1004E000000200A804B216C816000007000200BEF1
:1004F00004B216C816000008000100C304B216C8F2
:1005000016000012000200C404B216C81600001340
:10051000000200C604B216C816000014000100C88C
:1005200004B216C81600001500000000003608D8F6
:100530000F0000FD377A585A000004E6D6B4460290
:1005400000210116000000742FE5A3E0075C01B54F
:100550005D003D8889C65436C3174FE4E9A5387F4E
:100560008BEFD9CF9D68022F5485E5983ABB581F71
:100570009BF3F0031C5B565848B0C754C75C184146
:1005800033DDCE167FC1BD0A3F623E5334F4B9ACB1
:100590005AE869A0F1158FFA437E6EC73421539F44
:1005A000C3A27D2B57B13BFC4049233E2498AEF8B3
:1005B00072FD7BE6B684FC81271B08751FAB636563
:1005C00091E21EE08EAF2EB102B6E4817DF8D43EFA
:1005D0003FBA90F5593B2DDB402322FD361DA1A1EA
:1005E0009FE527EA29BD1B5FA0027F7ED3F9C7D311
:1005F000B229F74039E1FE4F13B764546C9D767F02
:10060000832B9204135DE5C2BED3B4128E76A37B16
:100610004141F0EBCC44BF6834BB65F738A3C6EF6B
:100620000A02AB4AF63A4FD40B10EE5150500F0D60
:10063000D9040773DB4D31052B9C98A64737DFC1E2
:100640008270D8D878BE3A2273CD7ABB376D6218E3
:1006500074B1FDAD6A23C141E9BD6725E50FF90C11
:100660001FC84DC53C6D1FEF9727AC3CED4AB9E95B
:10067000AB13D043040B078088F1C92C45230F5AD4
:10068000ABA38C8FD018E2BB065FE1E277CD446F5D
:10069000388187FCAF7BE0B5B71551B3DC1996DA2A
:1006A0000746849804CDF9F63709DE204F0FE73E60
:1006B0000D07BDBD317992841DDE6B4689057DEA4B
:1006C000427A2A7F5C2A34DC0293DFA3DC869EE830
:1006D000E011148F061113E7816064146C2B29015B
:1006E0007EA8C70AE21CA59165BD8263DA00553D6C
:1006F000F99B948810C09E5A9C797FCC6228D63A88
:10070000830E3D32738954000000007761768F14A8
:10071000077D970001D103DD0E0000C92D3783B19D
:10072000C467FB020000000004595A0011241FBED8
:10073000CFEFDAE0DEBFCDBF04B603FE18C0809174
:10074000CE049091CF04A091D004B091D104873011
:10075000904BA740B04B59F41092CE041092CF04A6
:100760001092D0041092D104E0E0F8E3099511E072
:10077000A0E0B1E0E6E7F8E602C005900D92A237EE
:10078000B107D9F724E0A2E7B1E001C01D92AE3C69
:10079000B207E1F70E941A2A0C94D7330C94000098
:1007A0009C019A9581159F4118F5F901EE27F27089
:1007B000832F8170B90166277470A901442758708E
:1007C00034FF0CC08295807FEF2B09F08062672B8D
:1007D00009F08064452B69F080680895EF2B09F0DB
:1007E0008260672B09F08460452B19F088600895BA
:1007F00080E00895CF93DF93EB010E94D003FE01C8
:100800000995DF91CF910895282F92959F7096308A
:1008100091F060F4925F9F70923030F481E0203F5D
:1008200079F030F4283E30F080E008959A5FF3CFFD
:10083000243FD1F7089581E0283EE0F3213FF9CF2E
:1008400008958093A40408958093A504089521E059
:1008500030E001C0220F8A95EAF78091A504822B2F
:100860000E942404089521E030E0A90102C0440F51
:10087000551F8A95E2F7CA0180959091A5048923B6
:100880000E9424040895292F943098F58C3088F51F
:1008900090E03CE0239F800D911D1124282F2770AC
:1008A00041E001C0440F2A95EAF723E09695879529
:1008B0002A95E1F7FC01EE0FFF1FE80FF91FE15D3C
:1008C000FC4F20E030E070E05191DF011197CB0147
:1008D000022E02C0969587950A94E2F78170819561
:1008E0008527842385278C932F5F3F4F2330310545
:1008F00059F70895292F943078F58C3068F590E0F9
:100900003CE0239F800D911D1124682F677023E028
:10091000969587952A95E1F7FC01EE0FFF1FE80FEA
:10092000F91FE15DFC4F40E050E080E0219130E0B4
:10093000062E02C0369527950A94E2F721703327D8
:10094000042E01C0220F0A94EAF7822B4F5F5F4FFB
:100950004330510559F7089580E008959091A5041A
:1009600021E030E0F90101C0EE0F8A95EAF7D901E4
:1009700002C0AA0FBB1F6A95E2F7EA2B01C0220F43
:100980004A95EAF7892F8E23E81305C0892F822B19
:100990000E94240408952095822F8923F9CF809105
:1009A000DD029091DC02981301C008958F5F87707B
:1009B000FACF9091F203809589238093F203282F38
:1009C0002770211111C0891779F09091CB0492FF03
:1009D0000BC08695869586950E9433041092F2038B
:1009E0001092F4031092F30308959091EF03982B63
:1009F0009093EF030895982F90958091EF038923AA
:100A00008093EF0308958091EE03882331F01092D4
:100A1000EE031092ED031092EC030895803E9105D1
:100A2000D1F1C8F48133910509F47FC048F48932CB
:100A3000910509F46FC08A32910509F47DC00895CB
:100A400089339105E1F082389105C9F0853391052C
:100A500009F45BC00895843E9105D1F148F4823ECB
:100A6000910531F1833E910541F181EE90E00895C9
:100A7000863E9105C1F1873E9105E1F108952091EF
:100A8000CA042370211165C02091CB0423FF14C038
:100A900089E290E008952091CA0420FD43C030917E
:100AA000CB0430FF09C024FF4EC080E090E00895E1
:100AB0002091CA0422FDF7CF08952091CA0422FD97
:100AC00045C03091CB0430FD44C024FFF5CFEDCFBD
:100AD0002091CB0421FFF0CF8091CA0484FDE5CFA3
:100AE00087EE90E008952091CA0423FFE5CF24FD0E
:100AF000DCCFF6CF2091CA0423FD2EC03091CB0469
:100B000031FFE3CF84EE90E008952091CA0425FFE1
:100B1000D3CFBECF2091CA0425FD21C02091CB04A4
:100B200023FFCACF89E390E008952091CA0426FFED
:100B3000C3CF8AE290E008952091CA0426FFBCCF7B
:100B400081E390E0089583EE90E0089582EE90E0D6
:100B5000089580EE90E0089586EE90E0089585E394
:100B600090E0AACF9091CA0492FF10C041E0282FD4
:100B70002471243009F040E031E0282F287128301A
:100B800009F030E0431711F02CE0822793FF10C0EA
:100B900041E0282F2471243109F040E031E0282F72
:100BA0002871283109F030E0431711F02CE082273A
:100BB0003091CB0430FF10C051E0282F217121303B
:100BC00009F050E041E0282F2871283009F040E07A
:100BD000541711F029E0822731FF10C041E0282F7F
:100BE0002171213109F040E031E0282F28712831AE
:100BF00009F030E0431711F029E0822794FD877E49
:100C000008951F93CF93DF930E940E05EC01811589
:100C100022E5920708F053C0811540E5940708F0DB
:100C2000DDC0803E9105F8F48D3C910508F0AEC022
:100C3000883A910580F4853A910508F099C0813091
:100C4000910521F00497813A910550F4CE01DF918E
:100C5000CF911F910895885A91094B9708F48BC042
:100C6000C0E0D0E0F3CF811550E49507F8F4C1154A
:100C700080E2D80708F0CBC0C83ED10538F3CE01DA
:100C80009A9581159F4160F78D2F0E94B205182F0C
:100C9000CE0199270E940E05212F30E0322F222706
:100CA000E901CC27DF71C82BD92BD0CF99270E941F
:100CB0000E05CC27DF70C82BD92BD06AC7CF803860
:100CC00042E59407C8F5803652E5950708F067C0FD
:100CD000C03482E5D807B0F08C2F86958695877052
:100CE00020E2829FC0011124C37021E030E0A901FD
:100CF00002C0440F551FCA95E2F7EA01C82BD92B51
:100D0000DC68A4CFC03252E5D50708F041C08C2F73
:100D10008695869520E2829FC0011124C37021E050
:100D200030E0A90102C0440F551FCA95E2F7EA015D
:100D3000C82BD92BDD688ACF803C52E5950760F43B
:100D40008F71C03AD24508F03FC090E0982F8827B5
:100D5000EC01C46FD06A7ACF805C9245809708F02E
:100D60007FCFDC2FCC27CC27DF71C06FD06A6ECF4E
:100D7000A497D0646BCFC85AD0E0CC0FDD1FC55C00
:100D8000DE4F0990D881C02DD46460CFD0655ECF8E
:100D9000CF71D0E0DC2FCC27C16FD06A57CF8695BA
:100DA0008695877020E2829FC0011124C37021E0E4
:100DB00030E0A90102C0440F551FCA95E2F7EA01CD
:100DC000C82BD92BDA6842CF0E94B205C82FD0E0D9
:100DD000DC2FCC27CC27DF71D06238CF8F710E94F7
:100DE000B20565E0D695C7956A95E1F7CF70D0E07A
:100DF000DC2FCC27282F30E084FF05C054E0220FE1
:100E0000331F5A95E1F7C22BD32BD0691FCF8D2FFB
:100E10008F710E94B205182FCE0199270E940E05EE
:100E2000212F30E0322F222722273F71282B392B08
:100E3000E901D2CF80E00895F894E82FE295EF70B1
:100E4000F0E041A18F7021E030E0B90102C0660FEF
:100E5000771F8A95E2F7CB01962F9095942391A363
:100E600092A1892B82A378940895A8E0B0E0EBE3E7
:100E7000F7E00C941E338C018091860090918700DE
:100E80006CE070E00E94B3326017710750F0C80147
:100E900069E070E00E94B332CB012896E4E00C9444
:100EA0003A3380918600909187002091860030919E
:100EB00087003E832D832091860030918700E6E0F5
:100EC000F0E0BF010E94B332C801A0E0B0E0860F9D
:100ED000971FA11DB11DAC01BD0185E0440F551F39
:100EE000661F771F8A95D1F749835A836B837C836A
:100EF0008D819E81BF010E94B33240E050E0260FF9
:100F0000371F411D511D69817A818B819C810E940F
:100F1000C73229833A834B835C83E0918600F0914A
:100F20008700CA01B9010E94A332DF019B01AC0115
:100F30000E9405336D837E838F8398879B01AC016C
:100F400069817A818B819C810E94A33269837A8333
:100F50008B839C83AB01BC019FE076956795579589
:100F600047959A95D1F78091860090918700A0E0EF
:100F7000B0E084179507A607B70720F440918600D4
:100F800050918700CA0189CFA4E0B0E0EAECF7E015
:100F90000C942033843000F581111FC090918000A3
:100FA000977F90938000A0918600B0918700282FB2
:100FB00030E00E94F63223E030E040E050E00E9452
:100FC000C732C9010E94350790938D0080938C0031
:100FD0002496E2E00C943C3383E09091800098608A
:100FE000E0CF982F990F990F990F20914B032770FD
:100FF000922B90934B0321E0983008F420E09091DD
:101000004B0320FB90F990934B030E94C407089573
:1010100081152CE7920741F420910E0130910F01C8
:10102000232B11F480E090E00895EDE5F3E080E0FB
:1010300090E06AE279E241E559E226EC39E2778311
:1010400066835187408733872287978786870196F3
:1010500070968830910599F708958091A604909133
:10106000A70490930D0180930C010895A0E0B0E0D7
:10107000ECE3F8E00C941633FB018FEF9FEF443064
:10108000510508F465C04091CA0441FB882780F9E6
:1010900090E0880F991F42FBAA24A0F8B12CAA0C5B
:1010A000BB1CAA0CBB1C8A299B2940FB882480F806
:1010B000912C8829992943FBCC24C0F8D12C53E0EA
:1010C000CC0CDD1C5A95E1F78C299D2944FBEE24BC
:1010D000E0F8F12C64E0EE0CFF1C6A95E1F78E2934
:1010E0009F2945FB002700F910E075E0000F111F54
:1010F0007A95E1F7802B912B46FB222720F9C22F0E
:1011000020E0D22FA6E0CC0FDD1FAA95E1F78C2BB3
:101110009D2B47FB442740F920E8429FA001112462
:10112000842B952B2091CB04322F3170932B269555
:101130002170B22FBB0FA0E08A2B9B2B092E000C35
:10114000AA0BBB0B80839183A283B38380E090E0E2
:10115000CDB7DEB7ECE00C943233AC0123E09695CA
:1011600087952A95E1F78E719927FC01E556FE4F88
:101170000190F081E02D4F70552721E030E002C052
:10118000220F331F4A95E2F7662341F0E22BF32B3F
:1011900085569E4FDC01ED93FC9308952095309584
:1011A000E223F323F5CF1092360410923504E5EFD5
:1011B000F3E08581811102C014821682379684E0A3
:1011C000ED32F807B1F70895AC0130913804609121
:1011D0003704232F621301C00895822F90E0FC0191
:1011E000EE0FFF1FE35DFB4F0190F081E02DE41750
:1011F000F50791F467E0649FF001659FF00D1124FD
:10120000EB50FC4F41E044832313E6CF01968370FB
:1012100099278093380408950196282F2370DACFF8
:10122000FC018481862381110AC082818823B9F060
:101230006823908593FF05C081E061110FC080E0B5
:101240000895282F22952F708F70282B962F929516
:101250009F706F70962B81E02913F1CF089581E084
:10126000FDCFFA01309709F009950895E091D20277
:10127000F091D302309729F00190F081E02D09958B
:10128000089580E00895A3E0B0E0E9E4F9E00C946B
:1012900020339C01809198019091990182179307C6
:1012A000A1F03093990120939801E091D202F0913E
:1012B000D302309751F083E089833B832A830084F3
:1012C000F185E02DCE01019609952396E2E00C947C
:1012D0003C33A3E0B0E0EFE6F9E00C9420339C014E
:1012E000809196019091970182179307A1F0309316
:1012F000970120939601E091D202F091D3023097AA
:1013000051F084E089833B832A830084F185E02DBA
:10131000CE01019609952396E2E00C943C339C01A2
:10132000FC0132968FEF90E04191461751F08F3FCC
:1013300019F4411101C0892F9F5F9630A9F78F3FA3
:1013400009F40895280F311D87FD3A95F90162834C
:101350000895E6E7F1E09191891303C0DF01119749
:101360001C9291E0EC37F907B1F708952FB7F89484
:101370008091B4029091B502A091B602B091B702EB
:101380002FBF08958091A8049091A904892B91F012
:101390000E94B6092091EC033091ED03AC01421B91
:1013A000530B9A0181E04091A8045091A90424179D
:1013B000350708F480E0817008959091CB0492FF86
:1013C00010C098E0899F90011124622B6093F20372
:1013D0000E9427040E94B6099093F4038093F303BC
:1013E00008950E94270408959091EE03292F282341
:1013F000222361F0809589238093EE03882339F0BE
:101400000E94B6098093EC039093ED03089580E069
:1014100090E0F8CFCF93C82F8091CB0482FF0CC00F
:101420008091EE038C1741F00E94B6099093ED0372
:101430008093EC03C093EE03CF910895A4E0B0E055
:10144000E4E2FAE00C9420338FB7F8942091B402D0
:101450003091B5024091B6025091B70229833A8388
:101460004B835C838FBF69817A818B819C812496B9
:10147000E2E00C943C330F931F93CF93DF93D82F6C
:10148000C92F4091530350915403609155037091BB
:1014900056032FB7F8948091B4029091B502A091B1
:1014A000B602B091B7022FBF841B950BA60BB70BEA
:1014B000843F9140A105B10528F5609153037091D7
:1014C0005403809155039091560304EF11E020E0FE
:1014D00030E06093BC027093BD028093BE02909393
:1014E000BF020093B8021093B9022093BA0230935E
:1014F000BB02D0935103C0935203DF91CF911F9150
:101500000F9108950E941E0A02E310E020E030E0EF
:10151000E0CF9C014FB7F8948091B4029091B5024E
:10152000A091B602B091B7024FBF821B930B0895F2
:1015300080919501089508950895FC019B01809183
:101540008B0190918C018617970740F0672B29F447
:101550008091E8008E778093E800C90140E0009711
:1015600041F4411106C08091E80082FF2FC080E065
:1015700008952091CB022223A9F12530A9F12091D1
:10158000E80023FD2DC02091E80022FDECCF209142
:10159000E80020FFE4CF3091F3002091F2000097A3
:1015A00019F02830310558F041E02830310509F0B4
:1015B00040E02091E8002E772093E800D0CF4191C1
:1015C0004093F10001972F5F3F4FE9CF8091CB020D
:1015D000882341F0853041F08091E80083FFC3CF3C
:1015E00081E0089582E0089583E008958091850167
:1015F00087FF13C08091E80082FF06C08091E80059
:101600008B778093E80004C08091CB028111F2CFE8
:1016100008958091CB028823D9F38091E80080FF60
:10162000F8CF8091E8008E77ECCF2091E4003091E4
:10163000E50095E6A9018091EC008170882331F0E6
:101640008091E80080FF06C080E008952091E800C6
:1016500022FD1BC08091CB02882391F0853091F050
:101660008091EB0085FD10C02091E4003091E500F1
:101670004217530701F391509111DCCF84E0089594
:1016800082E0089583E0089581E00895E8EDF0E0B8
:1016900080818E7F80831092E2001092DA00109297
:1016A000E100A0EEB0E08C9181608C9380818F7717
:1016B000808319BCA7EDB0E08C918E7F8C938081E4
:1016C0008F7E8083109284010895982FE42FE2701A
:1016D0009093E900891308C0762F242F50E0E11180
:1016E00011C091E0980FF4CF7091EC002091ED00C3
:1016F0005091F00021FD06C09F5F973049F780931D
:10170000E90008953091EB003E7F3093EB0030917B
:10171000ED003D7F3093ED003091EB003160309370
:10172000EB007093EC002093ED005093F0002091BB
:10173000EE0027FDE1CF0895A0E0B0E0E2EAFBE093
:101740000C941A33C8EDD0E088818F7E8883E7ED52
:10175000F0E080818160808384E082BF81E08093BB
:10176000840188818E7F888302EE10E0F801108268
:101770001092DA0081EEC82ED12CF60110828881F9
:101780008F77888388818068888388818F7D88832C
:1017900019BC1092CB02109283011092AA021092EF
:1017A000820190EEE92EF12CF70180818B7F8083FE
:1017B00088818160888342E060E080E00E94650B60
:1017C000F60180818E7F8083F80180818160808333
:1017D000808188608083F70180818E7F808388810B
:1017E00080618883CDB7DEB7E8E00C9436339C0186
:1017F0002115310509F408958FE99FE00197F1F76C
:1018000000C0000021503109F3CF81E08093E00057
:1018100080E28093D8001092C9008FE19EE4019786
:10182000F1F700C0000087E090EBDC018093CE046C
:101830009093CF04A093D004B093D10488E19CE0AE
:101840000FB6F894A895809360000FBE9093600047
:10185000FFCF0F931F93CF93DF93EB018A019091FA
:10186000CB02943079F58093E9008FEF9091E800F6
:1018700095FD07C095ED9A95F1F700008150811113
:10188000F5CF8091E80085FF1DC00E94150B8111E6
:1018900014C08091E80085FD06C08091E8008E7735
:1018A0008093E800F2CF88818093F1000150110904
:1018B0000115110511F02196ECCF8091E8008E778B
:1018C0008093E800DF91CF911F910F910895CF93FE
:1018D000DF93D82FC92F48E050E0682F792F81E09F
:1018E0000E94290C88E0ED2FFC2FADE8B1E00190BB
:1018F0000D928A95E1F7DF91CF910895BC0143E005
:1019000050E084E00E94290C08959091CB0492FB52
:10191000222720F9281779F080FB92F99093CB04C5
:101920006091CA047091CB0484E090E00E94B933C6
:1019300082E00E94D9040895682F86E090E00E941A
:101940009B33089580914B0381FD10C0826080938A
:101950004B030E949C0C1092A8021092A7021092B6
:10196000A60280916F00816080936F00089580913E
:101970004B0381FF11C08D7F80934B030E949C0C11
:1019800080916F008E7F80936F0080914B038695CE
:10199000869586950E94C40708951F93CF93DF9381
:1019A000962F122F632F282F292B2430C8F44C3068
:1019B000B8F4C42FD0E0CC0FDD1F28E1929FC00DFA
:1019C000D11D112490E6899FC00DD11D1124CE0197
:1019D00088960E949B33612FCE0189960E949B338B
:1019E000DF91CF911F910895CF93DF93CCEBD2E09D
:1019F00060E0CE010E949B332196C11584E0D80798
:101A0000B9F7DF91CF910895882381F062E984E2EC
:101A100090E00E949B336DEF85E290E00E949B3343
:101A200061E486E290E00E949B3308956FEF84E2C8
:101A300090E00E949B336FEF85E290E00E949B3321
:101A40006FEFEFCF86E090E00E947D3380934B03F1
:101A500082FD05C08DE180934B030E949C0C809118
:101A60004B03803220F08770886180934B03909104
:101A70004B03892F8170882321F0892F86958695C5
:101A800086950E94C40708950F931F93CF93DF9309
:101A900006EA14E0C8EAD1E0CE010E947D33F801E5
:101AA00061918F01861719F0CE010E949B33219618
:101AB000CC3CF1E0DF0781F7DF91CF911F910F91CF
:101AC00008950F931F93CF93DF9306EA14E0C8EABB
:101AD000D1E0CE010E947D33F80181938F012196E0
:101AE000CC3CF1E0DF07A9F7CDEAD4E0FE01859117
:101AF0009491009711F0FC0109952C96F5E0CD33F7
:101B0000DF07A1F7DF91CF911F910F9108950F93F8
:101B10001F93CF93DF93982F962B943020F54C3062
:101B200010F5C42FD0E0CC0FDD1F28E1629FC00D5F
:101B3000D11D112430E6839FC00DD11D1124CE018B
:101B400088960E947D33082F10E0102F0027CE01C9
:101B500089960E947D339801282BC901DF91CF918E
:101B60001F910F91089580E090E0F8CF462F672FE6
:101B70002091CE023091CF02232B91F4703F39F4A3
:101B8000403F71F48091CC029091CD020895982F3E
:101B9000972B943028F44C3018F40E94870D089548
:101BA00080E090E00895A0E0B0E0E9EDFDE00C9465
:101BB0001B337C010091A5048091A404082BC3E091
:101BC000D0E010E0C8010C2E02C0959587950A94CC
:101BD000E2F780FD09C02197A8F7D12C8D2DCDB754
:101BE000DEB7E7E00C943733DC2EB7018C2F0E9470
:101BF000B60D0E940106019771F3F0CFCF93DF93EA
:101C0000D82FC92F0E94D30D6D2F7C2F0E94B60DA7
:101C10000E940106DF91CF910895FC018481882301
:101C200071F087819085009729F00E9401060E943B
:101C300004040895808191810E94FE0DF8CF80E018
:101C400008951F93CF93DF93182FD92F662399F010
:101C5000442389F00E94D30DC82F682F812F9D2F18
:101C60000E944304612F7D2F8C2F0E94B60DDF91BF
:101C7000CF911F9108950E947A04C82FF3CFFC01E1
:101C8000462F87819085009729F465818081918115
:101C90000E94210E089584E290E00E947D338239F3
:101CA00089F485E290E00E947D338D3F59F486E20D
:101CB00090E00E947D3391E0813409F090E0892F1B
:101CC0008170089580E0FCCFCF93DF93C091EF0344
:101CD0008091F103C82B8091EE038823E9F0809175
:101CE000A8049091A904892B29F00E94C2098111AE
:101CF0000E940305D091EE0320E086E791E0FC010D
:101D00003081019631112F5F31E08C379307B9F79D
:101D100021110E940305CD2B80914D0380958C23CA
:101D200090914C03892B8093740148E050E064ED5E
:101D300072E084E791E00E945033892BA9F088E09B
:101D4000E4E7F1E0A4EDB2E001900D928A95E1F7AD
:101D5000E091D202F091D302309731F00280F3810A
:101D6000E02D84E791E00995DF91CF910895CF931D
:101D7000C82F8823A9F08CEF8C0F813A98F4E6E7FE
:101D8000F1E08CE791E02191C21791F18E179F0746
:101D9000D1F76C2F84E791E00E948F090E94640EB6
:101DA000CF91089580E28C0F883048F4C77081E0AD
:101DB00001C0880FCA95EAF70E94F504EFCF8BE5C2
:101DC0008C0F833038F42C2F2452330BC9010E941E
:101DD0004309E6CFC85ACB3118F7EC2FF0E0EE0FED
:101DE000FF1FE55CFE4F808191810E946909D8CF79
:101DF0008C2F0E94A9090E94640ECBCFCF93DF9352
:101E0000EC01805E9109089720F067E97FE0209758
:101E100011F469E87FE0CE010E94FA038C2F0E9442
:101E2000B70EDF91CF910895662329F02091F10339
:101E300022602093F1039C0130522115304308F4B5
:101E400099270E94FE0E0895882339F19CEF980F80
:101E5000913A28F40E94A9090E94640E089590E224
:101E6000980F983050F4877091E001C0990F8A95CF
:101E7000EAF7892F0E94FB04EFCF9BE5980F933080
:101E800028F480E090E00E9443090895885A8B313D
:101E900020F480E090E00E9469090895CF93DF93D9
:101EA000EC010E94240FCE01805E9109089720F07A
:101EB00061EA7FE0209711F460E97FE0CE010E94A3
:101EC000FA03DF91CF9108951F93CF93DF93182FDB
:101ED000EB010E94B70E209739F4812F0E94240F46
:101EE000DF91CF911F9108958FE99FE00197F1F75E
:101EF00000C000002197EFCF6091C6047091C70425
:101F0000893321F06091C4047091C5040E94640F6C
:101F10000895882321F00E94F5040E94640E08951C
:101F2000882321F00E94FB040E94640E08958823F8
:101F300039F09091F103892B8093F1030E94640E94
:101F40000895882341F080959091F103892380932F
:101F5000F1030E94640E08951092EF03E6E7F1E0AA
:101F600086E0DF011D928A95E9F780E090E00E940B
:101F7000430980E090E00E9469091092F1030E94F9
:101F8000640E08950E94AC0F2FEF84E39CE0215073
:101F900080409040E1F700C0000088E19CE00FB66F
:101FA000F894A895809360000FBE90936000FFCFD7
:101FB000CF92DF92EF92FF92FB018FEF9FEF4430C1
:101FC000510508F481C0C080D180E280F3800E9476
:101FD000AC0FD701C601B695A795979587958170E7
:101FE000282F220FD701C60181709927AA27BB2766
:101FF000822BB701A60132E07695679557954795F4
:102000003A95D1F74170440F440F842BB701A601D4
:10201000E3E07695679557954795EA95D1F7417036
:10202000440F440F440F842BB701A601F4E07695CA
:10203000679557954795FA95D1F741704295407F3E
:10204000842BB701A601A5E076956795579547952E
:10205000AA95D1F741704295440F407E842BB70179
:10206000A601B6E07695679557954795BA95D1F74D
:1020700041704295440F440F407C842BB701A60168
:1020800097E076956795579547959A95D1F7479537
:1020900044274795842B8093CA04D1FA882780F976
:1020A000880F9D2D9170892B9091CB049C7F892B5B
:1020B0008093CB046091CA047091CB0484E090E0DB
:1020C0000E94B93380E090E0FF90EF90DF90CF90D6
:1020D0000895E6EAF4E0128E138E8FEA90E0918381
:1020E000808385E0848F28E833E13383228322E3F1
:1020F00030E0378B268B28EC30E0318F208F158E27
:10210000178E168E20E530E031A320A382A30E9413
:10211000440D0E94AC0F1092CB041092CA0480E0D0
:1021200084608093CB0460E074E084E090E00E94DF
:10213000B9330E94610D0895AAE2B0E0E2EAF0E14D
:102140000C941F3385E891E0FC0101962091F10089
:10215000208321E08D389207B9F78091860189307C
:1021600009F456C0C8F4823009F4B3C0833009F4CE
:1021700082C0813071F18091E80083FFE7C08091D7
:102180008501909186019A3008F0E0C0E92FF0E0D7
:10219000E752FC4C0C94E9328A3009F489C08B3048
:1021A00051F780918501813231F7809189019091B9
:1021B0008A01892B01F78091E800877F8093E800EE
:1021C0000E94F60A80918701809300010E94AC0F63
:1021D000D2CF80918501813A71F68091E800877FA6
:1021E0008093E8008091890190918A01892B61F0A8
:1021F00060E080E090E070E00E949D0A8091E8003D
:102200008B778093E800B7CF68E08DE891E0F3CF5B
:1022100080918501813209F0AECF80918901909142
:102220008A018D7F892B09F0A6CF8091E800877FF6
:102230008093E8008091E80082FF18C09091F3003D
:102240008091F200029731F48091F100813011F019
:10225000863021F48091F100809395018091E8000F
:102260008B778093E8000E94F60A85CF8091CB029D
:102270008111E0CF80CF80918501813A09F07BCF39
:102280008091890190918A01892B09F074CF809106
:10229000E800877F8093E8008091E80080FFFCCF12
:1022A000809100018093F1008091E8008E77D9CF72
:1022B00080918501813209F05ECF8091E800877FAF
:1022C0008093E8000E94F60A809188018093810142
:1022D00052CF80918501813A09F04DCF8091E8007D
:1022E000877F8093E8008091E80080FFFCCF809199
:1022F0008101D8CF803889F0823841F580918901F9
:102300008F70873018F58093E9008091EB0085FB92
:10231000882780F91092E90006C08091820190918F
:10232000AA02911182609091E800977F9093E80053
:102330008093F1001092F1008091E8008E7723C025
:10234000811116C080918701813011F18091E800E0
:1023500083FF0AC08091E800877F8093E800809126
:10236000EB0080628093EB00AA96E3E00C943B3391
:10237000823061F780918701882389F01092E9000B
:102380008091E800877F8093E8000E94F60ADECF04
:1023900081E0933009F080E08093AA02EFCF809132
:1023A00089018F702FEF280F263080F68093E90087
:1023B0002091EB0020FFE2CF933031F48091EB00CD
:1023C00080628093EB00DACF9091EB009061909364
:1023D000EB0021E030E0A90102C0440F551F8A95AF
:1023E000E2F74093EA001092EA008091EB008860E7
:1023F000E8CF8111ABCF109187011F778091E30067
:102400008078812B8093E3008091E800877F809320
:10241000E8000E94F60A8091E80080FFFCCF8091DE
:10242000E30080688093E30083E0111101C082E043
:102430008093CB028BCF8058823008F087CF4091B9
:102440008701509188014C3D83E0580799F583E05E
:102450008A838AE289834FB7F894DE01139620E0DD
:102460003EE051E2E32FF0E050935700849120FFCB
:1024700003C082958F703F5F8F708A30C8F0895C8F
:1024800090E08D939D932F5F243161F74FBF809132
:10249000E800877F8093E8006AE270E0CE01019651
:1024A0000E949D0A8091E8008B778093E8004ECFD0
:1024B000805DE6CF8091890190918A01252F332795
:1024C0002330310509F44AC078F52130310509F48B
:1024D00083C08BE590E0E4EFF1E02230310509F0B4
:1024E00035CF2091E800277F2093E80020918B01D1
:1024F00030918C018217930708F49C0140E021156C
:10250000310509F06EC041116CC08091E80082FD78
:10251000C9CF8091CB02882329F2853019F28091AE
:10252000E80083FFF2CFBECF2132310509F445C068
:102530002232310509F00ACF8330910508F006CF29
:10254000FC01EE0FFF1FE15EFE4F0190F081E02DD8
:10255000845E9E4FDC018C9190E010C0CA019927E7
:10256000423019F18330910568F4892BB1F4EFE919
:10257000F2E0E4918E2F90E0EFE9F2E0009709F4A9
:10258000E5CEAFCF039709F0E1CEE1E6F2E0E491CA
:102590008E2F90E0E1E6F2E0F1CFE3E9F2E0E491A2
:1025A0008E2F90E0E3E9F2E0E9CFEFE7F2E0E4918B
:1025B0008E2F90E0EFE7F2E0E1CF8330910508F055
:1025C000C5CEFC01EE0FFF1FEB5DFE4F0190F081C9
:1025D000E02D89E090E085CF82E190E0EFE4F2E049
:1025E00080CF8091CB02882309F45CCF853009F439
:1025F00059CF8091E80083FD55CF8091E80082FD9E
:1026000084CF8091E80080FF7ACF9091F300809191
:10261000F2002115310519F08830910550F041E0A4
:10262000089709F040E08091E8008E778093E800F9
:1026300066CF44914093F1003196215031090196C3
:10264000E8CF803809F082CE8091E800877F8093C0
:10265000E800809183018093F1006ECE811176CEE7
:1026600010918701123008F071CE8091E800877FC9
:102670008093E800109383010E94F60A1123D1F0A1
:1026800084E08093CB0242E061EC81E00E94650B24
:1026900042E261EC84E00E94650B42E261EC82E080
:1026A0000E94650B42E260EC83E00E94650B809122
:1026B000CB024CCE8091E30087FDE2CF81E0E1CFF9
:1026C00080911101877F809311019091F1039D7F8B
:1026D0009093F10384FF06C08F7E8093110182E006
:1026E0000E94F5048091110185FF06C08F7D8093C3
:1026F000110180E20E94F5040E94640E0895CF92B9
:10270000DF92FF920F931F93CF93DF93EC018B0126
:10271000F42E8091110182FF66C0C090DF03D0903B
:10272000E003CC16DD0619F0209709F05CC080911B
:1027300011018B7F80931101C1E081FD10C0809158
:10274000DD039091DE039801281B390BC1E08091D5
:102750000C0190910D012817390708F4C0E0C170F1
:1027600080911101C0FB81F9809311016C2FC6018A
:102770000E94AD088091EF0381FF08C08091110194
:1027800080618093110182E00E94FB048091EF033D
:1027900085FF08C08091110180628093110180E261
:1027A0000E94FB046C2FC6010E94140FFF2031F021
:1027B0008091C10485FF02C086FF29C08091C404B6
:1027C0009091C5040E94F70B8091DF039091E00384
:1027D0009C0130522115304308F499270E944E0F76
:1027E0000E94601310C0CE01905281159043B8F43E
:1027F000CE0199270E944E0F8091DF039091E00354
:10280000C817D90769F31093DE030093DD03DF9146
:10281000CF911F910F91FF90DF90CF900895CE013F
:10282000E9CFCF93DF93EC014A855B856E857F8589
:102830000E9431099B8190958091F10389238093B7
:10284000F1038C810E94FB040E94640E86E0FE016D
:1028500011928A95E9F7DF91CF910895CF93DF9395
:10286000EC018D8181FD14C082608D838091F10324
:102870009B81892B8093F1038C810E94F5040E9437
:10288000640E488559856E857F85CE010E94310989
:1028900010925A03109259038D8180FD03C0CE011E
:1028A0000E941114DF91CF9108951F93CF93DF936E
:1028B000182FA0914F03B0915003109709F44AC00C
:1028C000109252031092510310924D0310924C0338
:1028D0001696CD91DC911797CE019A9581159F415F
:1028E00008F4D07ED1E0C11101C0D0E01996ED917D
:1028F000FC911A97309731F01B966D917C9180E096
:102900000995D823DD2339F08CEF8C0F813A30F50F
:102910008C2F0E94A9091123A9F0E0914F03F09197
:102920005003808584FD0EC080914E03882351F0B2
:10293000808191819C01215031092F333E4710F451
:102940000E943B0A0E94640E1092500310924F03A3
:1029500010924E03DF91CF911F9108950E94640E53
:102960008C2F0E94240FD7CFAEE1B0E0EAEBF4E168
:102970000C941533A0900E01B0900F0181E090E00F
:1029800090930F0180930E01812C912CE12C640116
:10299000F12C15C0F80125913491472D6F2D8E2D06
:1029A0000E94CD0C0E5F1F4F73948CE07812F2CF13
:1029B000ACE0CA0ED11CF394B4E0FB1639F08601EA
:1029C000000F111F0D551D4F712CE4CFE39480E3D0
:1029D000880E911CA4E0EA12DACF0E9469101A82D4
:1029E00019821C821B821E821D8218861F8288EC1F
:1029F00090E09A8789870CEC11E04AE050E0B8013A
:102A0000CE0101960E94BF33065F1F4F0C31B2E02A
:102A10001B0799F7FE013B968AE0DF011D928A951C
:102A2000E9F77F014AE050E0B801C7010E94BF33D7
:102A3000065F1F4F0C36B2E01B07A1F7FE0175962B
:102A400089E0DF011D928A95E9F78FEF9FEF9A8F5A
:102A5000898F87E08E8F7F014AE050E0B801C7017F
:102A60000E94BF33065F1F4F0C3BB2E01B07A1F76C
:102A7000B0920F01A0920E016E96EDE00C943133EE
:102A800080E00E94040D60E087E290E00E949B33AA
:102A90000E94B4140E94F40C81E00E94040D089579
:102AA000AAE0B0E0E6E5F5E10C941A33E6E4F2E0E2
:102AB00080E5DF011D928A95E9F7E5EFF3E088E311
:102AC000DF011D928A95E9F786E4C82E82E0D82EB0
:102AD0007F010CE112E0F701D182C0824AE050E0B0
:102AE000B801CE0101960E946D3388E0FE01319657
:102AF000D60101900D928A95E1F789859A85D701D3
:102B000013969C938E931297BAE0CB0ED11CE7E0FC
:102B1000EE0EF11C065F1F4F0C36F2E01F07D9F6D0
:102B20002A96E8E00C943633AAE0B0E0EAE9F5E151
:102B30000C9416330EEC11E08CEBC82E81E0D82EED
:102B40009CE6E92E92E0F92E27E0922E3BEBA32E95
:102B500031E0B32E88248394D6010D931D936D012B
:102B60004AE050E0B701CE0101960E946D33F801B2
:102B70003896DF01892D1D928A95E9F789819A811E
:102B8000D80111969C938E938F8112968C931297F5
:102B90008D8113968C931397888514968C93149734
:102BA000898515968C9315978B819C8117969C939C
:102BB0008E9316978A8587FD04C01E96BC92AE92AE
:102BC0001D9780FF02C0F801808681FF07C0D801F1
:102BD00018969C911897926018969C9382FF04C057
:102BE000F80190859460908783FF07C0D8011896FC
:102BF0009C911897986018969C9384FF04C0F801E4
:102C000090859061908785FF07C0D80118968C91B8
:102C10001897806218968C93015F1F4FBAE0EB0EF5
:102C2000F11CECEBEE16E2E0FE0609F095CF2A96D9
:102C3000ECE00C943233282FCB01283070F44AE0BA
:102C4000249F90011124B90164537E4F4AE050E063
:102C50000E946D3380E090E008958FEF9FEF08951C
:102C6000AAE0B0E0E6E3F6E10C9420339C0197552E
:102C70008F3F910509F070F4BE016F5F7F4F822F87
:102C80000E941B16892B31F489859A852A96E2E0E9
:102C90000C943C338091BE049091BF04F7CFA0E028
:102CA000B0E0E5E5F6E10C941B33D62E172FC42FC8
:102CB000D22F8823A9F04093EA030E94B60990938B
:102CC000800180937F01C77081E001C0880FCA95A1
:102CD000EAF70E94890FCDB7DEB7E7E00C943733EF
:102CE0008091EA03481337C080917F019091800161
:102CF0000E94890A7C018D2D912F0E943016E816C2
:102D0000F90648F5CD130CC0802F0E947C0FD770B8
:102D100081E001C0880FDA95EAF70E94900FDBCFBF
:102D2000C77011E0812F01C0880FCA95EAF70E9491
:102D3000900F80E28D0F883050F48D2F877001C086
:102D4000110F8A95EAF7812F0E94890FDDCF802F1E
:102D50000E947C0FC0CFC77081E001C0880FCA9568
:102D6000EAF7DBCF9C01CB01BA01F901329645911C
:102D700054916417750748F0F90134966591749180
:102D80000E945D3380E090E008958FEF9FEF0895FB
:102D90009C01DA010296FC0145915491FC01859158
:102DA0009491A817B90758F0F90134968591949138
:102DB0000E945D330E94440D80E090E008958FEF03
:102DC0009FEF0895A8E0B0E0E8EEF6E10C9414332C
:102DD000FE01319688E0DF011D928A95E9F79BE2BA
:102DE000A92E91E0B92E8F012FE2E22E21E0F22EE2
:102DF0003F01CC24C394D12CF50181915F018F3F19
:102E000009F447C0F894E82FE295EF70F0E021A1B3
:102E10008F70A60102C0440F551F8A95E2F7CA01C0
:102E2000922F982B91A392A18095892382A37894C5
:102E300000C0EFE2F1E021E030E0812C912C4191E3
:102E40004F3F09F44AC0A42FA295AF70A05EB0E036
:102E50008C9190E04F7002C0959587954A95E2F766
:102E6000817081113AC0C901882A992A220F331F23
:102E700051E0EB33F50719F7F501319780818F3F6A
:102E800011F00E941C0780EA8A95F1F7D8018D9213
:102E90009C920E5F1F4FEA14FB0409F0ADCF48E08F
:102EA00050E0B3018EE992E00E945033892BC1F0CB
:102EB00088E0F301AEE9B2E001900D928A95E1F766
:102EC00081E080937E010E94B60990937D018093FA
:102ED0007C012896EEE00C94303380E090E0C4CF83
:102EE00080917E018823A9F380917C0190917D01DE
:102EF0000E94890A059768F348E050E06EE972E0A5
:102F000083EC92E00E945033892B49F088E0EEE98F
:102F1000F2E0A3ECB2E001900D928A95E1F71092F5
:102F20007E01D7CFA0E0B0E0E8E9F7E10C941933D7
:102F3000EC010881002309F4A8C0013009F044C065
:102F40008981813049F48E010E5F1F4F8A810E9472
:102F50007C0FE8012196EDCF823039F48E010E5FAF
:102F60001F4F8A810E94B70EF4CF833039F48E014F
:102F70000E5F1F4F8A810E94240FEBCF843011F027
:102F80002196E8CF2A81229680E090E06AE0AE01A7
:102F90004F5F5F4F2053330B2A30310550F00097BD
:102FA000C9F2EFE9FFE03197F1F700C000000197A7
:102FB000F6CF689FF001699FF00D1124C9018E0FB3
:102FC0009F1F2981EA01E3CFE02FF0E0EC58FE4F8C
:102FD000B490202F26952695269530E0F901EC59DE
:102FE000FE4FE4900770F12C002E02C0F594E79498
:102FF0000A94E2F7F1E0EF22FF24F901EC5AFE4FC8
:10300000C490D12C002E02C0D594C7940A94E2F744
:1030100081E0C822DD24F901EC5BFE4F1491E1143C
:10302000F104A9F4C114D10409F560E070E08B2D1E
:103030000E94640FE12FF0E002C0F595E7950A9534
:10304000E2F7E0FF87CF8CE20E947C0F83CF81EE16
:103050000E94B70EC114D10449F460E070E08B2DDA
:103060000E94640F81EE0E94240FE4CF86EE0E943E
:10307000B70E60E070E08B2D0E94640F86EE0E9418
:10308000240FE114F104B1F2EDCFCDB7DEB7E9E0E2
:103090000C943533A5E0B0E0E0E5F8E10C94103392
:1030A0007C01DC0114968C91882309F4A7C261E0AD
:1030B000C7010E943F0E8C01F7018581882319F119
:1030C0008091590390915A030097E9F00817190766
:1030D000D1F0992764E0880F991F6A95E1F7FC0108
:1030E000EE59FC4F208124602083835A9C4FDC01E1
:1030F0000D931C930E942E141092F10361E0C701FE
:103100000E943F0E8C01F7015580552009F4BCC088
:10311000C80197578038910508F04FC2D02EFFE0C4
:10312000F01708F45BC28FEF93E00E947D338111AA
:1031300055C20CEB12E0D11038C054E0C52EAE01E0
:103140004F5F5F4F4A01D401EC2D1D92EA95E9F7DC
:103150005801FFEFAF1ABF0AC8010E947D3389836F
:10316000882309F43BC2813009F08AC0380122E08B
:10317000620E711CC5010E947D33D82E8A8388237C
:1031800009F42CC28FEF8D0D8330E8F4C3010E9447
:103190007D338B83882319F0C4010E949217580154
:1031A00033E0A30EB11C8501CECF011524E0120738
:1031B00009F414C2C8010E947D330F5F1F4F8111B3
:1031C000F4CFDA94B8CF8BEF8D0D833058F55801DA
:1031D00043E0A40EB11CC3010E947D338B8388237E
:1031E00011F3C5010E947D338C83882381F08B818C
:1031F0009C8181305FEF950710F0982F8827A6E01B
:10320000DA1651F0B7E0DB1651F00E941729580189
:10321000E4E0AE0EB11CC7CF0E94D328F8CF0E94C5
:10322000F528F5CFF4E05301DF12BDCFC3010E94B2
:103230007D33D82E580124E0A20EB11CC80103969C
:103240000E947D33282FDD2009F4C8C1882309F4AA
:10325000C5C12150330B4FEF429FC001439F900DDA
:1032600011244D2D4150550B840F951F019708F4E3
:103270009ACFAFE9BFE01197F1F700C00000F6CF99
:10328000C4010E9492178FCF0115E7E51E0708F4CD
:10329000A7C00115F8E51F0708F035C2580127E55A
:1032A000B21A61E473E08A2D0E941B16A801405EE9
:1032B00051096A01892B09F022C2C50134E0880F47
:1032C000991F3A95E1F7FC01E35AFC4F2281213026
:1032D00009F071C02091410330914203232B09F47E
:1032E000F4C12091430330914403232B09F4F0C12E
:1032F0002091450330914603409147035091480384
:10330000242B352B232B09F460C0D70115965C9034
:103310005110E7C18091100181116BC0C801975510
:103320008F3F910511F008F094C2F801FF2794E057
:10333000EE0FFF1F9A95E1F79F01235A3C4F690159
:10334000D70115968C91EE59FC4F908180FB90F936
:103350009083882309F4A4C20E94B60990935C0369
:1033600080935B03F60182818F5F82838091F103FA
:103370009091EF03892B83838091EE0384834681B0
:10338000578166857785C6010E943109D601159659
:103390008C9181FD82C2902F812F9093590380934D
:1033A0005A038091C10480FFFEC40E94B6096C01DB
:1033B000F7018581A2C2223009F0A1C12091450305
:1033C00030914603232B09F480C1FC01EE59FC4FD8
:1033D00020812E7F2083835A9C4F0E942E1495CFEC
:1033E00080911001882309F4D2C06801B0EECB1A95
:1033F000D1084090F0038091EF03482A8091EE03BA
:10340000482A58E0C516D10408F094C198012770E5
:10341000332781E090E001C0880F2A95EAF7552014
:1034200009F485C1482AD7018D919C910E947A04A4
:1034300021E030E0190102C0220C331C8A95E2F72A
:1034400060904F03709050031D82BD81EB2FF0E020
:10345000EE0FFF1FE454FE4FA080B180A114B10411
:1034600009F4E6C1411004C0F50182818111A3C1B4
:10347000D50113968C91139790E082219321892B8B
:1034800009F499C118968C91982F9770911197C152
:10349000B8E0CB16D10408F08CC1511098C1F501E9
:1034A000808091800815190509F485C1A614B70418
:1034B00009F481C1D5011D96ED91FC91309721F061
:1034C0008081882309F477C1642DC5010E94100909
:1034D000882309F470C10815190511F4511005C0AD
:1034E0008114910409F07FC1512C80E00E94551491
:1034F000B0925003A0924F0381E080934E03F501F8
:10350000858180934D0351100DC0892859F0808129
:1035100091819C0124503109213A310508F06BC199
:103520000E94A909F50186809780C4019A958115AA
:103530009F4110F420EE922266246394C401019707
:103540008F339E4708F0612CD5011996ED91FC91BF
:103550001A97309731F01B966D917C9181E0099517
:10356000682281E05826662079F0F50186819781EE
:103570000E94D00380934C03C401F8E0CF16D1041D
:1035800008F03CC10E943B0A0E94640E40C1809139
:10359000C10480FF36C30E94B6096C01D70115969D
:1035A0008C91811117C2013E110509F0C3C28091AF
:1035B00011018F7E809311015FC2F801F857E73047
:1035C000F10508F0A0C0ED51FC4C0C94E93283E009
:1035D0000E94F10780914B030E949C0C8091F203A2
:1035E0008770882359F0F7018581882339F080910D
:1035F000CB0482FF03C082E00E94D9042596E2E159
:103600000C942C3380E0E4CF80914B038830D8F1C8
:10361000885080934B0391E0883008F490E08091CB
:103620004B0390FB80F913C090914B03892F869533
:1036300086958695983140F48F5F880F880F880FA4
:103640009770892B80934B0380914B03816080930B
:103650004B0317C080914B0380FF09C08E7F80937E
:103660004B030E949C0C80E00E94C407B7CF81608E
:1036700080934B03813019F489E080934B03809150
:103680004B030E949C0C80914B03869586958695F2
:10369000EBCF80914B038695869586958F5F8F71D2
:1036A000843008F080E0880F880F880F90914B03DA
:1036B0009770892BAECF80914B0381FF03C00E948E
:1036C000B70C8CCF0E94A20C89CFF701558020CE79
:1036D000F7015580552009F41DCE0F353CE713073F
:1036E00041F00D354CE71407F9F48091100188235F
:1036F000B9F01092100180E00E9455146FCFD701ED
:1037000015965C90E7CFF70155806801F0EECF1A6F
:10371000D108552009F4FECD0E352CE71207E9F645
:1037200081E0809310015ACF55245394F3CD8095B6
:10373000482279CE51102AC08091570390915803A6
:103740000817190781F4109258031092570310922A
:103750005303109254031092550310925603109283
:10376000520310925103E0914F03F09150033097B0
:1037700009F4D4CD808191810817190709F0CECDC5
:1037800010924E0380E00E945514C8CD1093580348
:10379000009357030E941E0A6093530370935403CF
:1037A0008093550390935603109252031092510345
:1037B0003ACE51100CC09D819F5F9D8346CEE8E0BC
:1037C000CE16D10458F4552031F081FFF4CFD50145
:1037D0008D909C906BCE82FFEECF61CE552059F339
:1037E00080FFE9CFF4CF809157039091580388155B
:1037F000990509F779CE0E94240F94CE0497813A57
:10380000910550F4682D84E791E00E948F095110D2
:1038100085CD0E94640EE2CE0E94640E8FE39CE987
:103820000197F1F700C00000882D0E94B70EEFCF7E
:103830006114710409F472CDA8E0CA16D104D8F459
:10384000642DC3010E941009811103C081E00E9410
:1038500055148091C10480FD9ECED70115968C91A0
:10386000F801E851FC47E730F10508F0CAC1E6511C
:10387000FC4C0C94E932F3018081918108171907FF
:1038800039F4552009F47CCF808585FD47CD7ACF6A
:10389000552009F443CD8085F8CF90E080E07DCDC0
:1038A000F9014485558566857785C9010E943109EE
:1038B000D60115968C9181FF8AC0C6010E94111411
:1038C0002091590330915A038091C10402171307C4
:1038D00061F410925A031092590380FD66CDF701EE
:1038E0008581882309F440C19AC080FF5CC20E9490
:1038F000B6096C01D70115968C9181116BC0C80176
:1039000090528115904308F0E9C0D70117968D9128
:103910009C91009709F463C30E940106D82E192FC9
:10392000D7011596BC9015971696CC90C2948FE04F
:10393000C8228091F2038770882309F1AB2CBB2049
:10394000F9F0892F807F803469F080E28D0D883016
:10395000B0F0892F807E803229F4B1E0BD1578F473
:10396000CC2069F08091CB0482FF09C082E00E94E4
:10397000D9048091F2038770AA24A3948111A12C09
:10398000812F82958F70883009F48CC408F050C361
:10399000843008F03CC3012F0F70823008F45AC302
:1039A000812F807F803211F00295007FDD2009F4A5
:1039B00087C3F1E0DF1609F429C4BB2009F43DC434
:1039C000CC2009F435C48D2D0E94B70EBFC3809161
:1039D000C10483CF8091110182FF06C040E0B6018F
:1039E00080E090E00E947F130431FCE71F07C9F1DB
:1039F00005312CE7120709F1D70115968C91033197
:103A0000BCE71B0709F065C090911101916090938C
:103A100011018823A9F11092E0031092DF031092A4
:103A2000EA03C8019057839708F4C1C10631BCE787
:103A30001B0709F078C081E0F3C090911101892F34
:103A40008E7F90FF8160809311010E9460138091AE
:103A5000110180FF78C0F7018581882309F4D1C066
:103A600054C0809111018E7F809311010E946013D8
:103A70008091110180FDEFCFF70185818111CFCFBA
:103A8000D70115968C91882309F43FCF0A35BCE7FE
:103A90001B0709F4A0C208F083C20130FCE71F072E
:103AA00009F497C203302CE7120709F48CC2011500
:103AB0003CE7130709F029CF0E94AC0F8FEF94E386
:103AC000ACE081509040A040E1F700C000000E94AF
:103AD000050C9801305221153043E0F0D7011596BE
:103AE0008C919091110190FFB8CE0832110578F5B4
:103AF0000E31110508F07AC09801245031092A319D
:103B0000310508F44AC0882379F11092E00310923D
:103B1000DF0377C01092E0031092DF03882309F4DB
:103B2000F4CE1092EA030737ECE71E0709F028C22B
:103B300081E02CC2053E110509F0E1CE8091110112
:103B40008F7D80931101D70115968C9197CF093302
:103B50001105C0F40D32110508F04DC00B321105EE
:103B600009F449C0811157CF07372CE7120709F430
:103B700015C282E008373CE7130709F081CF0E94A5
:103B8000330406C204361105B1F1882309F465CE69
:103B90001092E0031092DF0360CE9091C10494FD77
:103BA000B2CF882309F4CDC08091EE039091EF034A
:103BB000892B8D7F882309F45BC01092E00310925B
:103BC000DF038091C10481FD53C060E0C8010E9401
:103BD000AD0860E0C8010E94140F8091EE038D7F54
:103BE0000E940A0A82E00E94D904F8CC9091C10494
:103BF00093FD89CFD6CF9091C10492FFD2CF81118E
:103C0000C7CFF701858181111092EA03D70115967C
:103C10008C91811106CF0631FCE71F0709F0A4CF74
:103C20009091EF033091C00430FF04C0292F247419
:103C300021118CC1292F2A7A31FF04C0492F4171EB
:103C4000411120E0432F487032FF82C1392F38786C
:103C5000332309F47DC141118FC1811184C1809149
:103C6000EB03882309F48AC185E30E94A909D1CD19
:103C700089E0F701A1EEB3E001900D928A95E1F79A
:103C80001092E4031092E3038091DF039091E0032C
:103C900008171907C9F52091C10425FF35C03091D7
:103CA000110131FF02C026FF2FC02091DD033091AA
:103CB000DE035601A21AB30A0E943016A816B906EE
:103CC00018F58091EF0381FF08C080911101806198
:103CD0008093110182E00E94FB048091EF0385FF35
:103CE00008C08091110180628093110180E20E94DE
:103CF000FB0460911101669561708091DF039091E2
:103D0000E0030E94140F6ACC8091EE03B090EF03A1
:103D1000B82AB1FABB24B0F88D7F0E940A0A10932A
:103D2000E0030093DF03D092DE03C092DD03BB0CFF
:103D30006894B2F890911101997FB92AB09211015B
:103D400051CF40E0B601C8010E947F1347CC06E284
:103D500021EE41EE6AE17CE70E944F163FCC07E27C
:103D600025EE45EE6BE17CE7F7CF06E221EE40EE73
:103D700068E17CE7F1CF07E225EE44EE69E17CE7FC
:103D8000EBCF06E221EE42EE6CE17CE7E5CF07E205
:103D900025EE46EE6DE17CE7DFCF08E221E045EE5F
:103DA0006EE17CE7D9CFD70115968C919ACD84E04E
:103DB00090E00E9485339093CB048093CA04F8016D
:103DC000E150F047E232F10520F4EF50FC4C0C9446
:103DD000E9328091CA0481608093CA046091CA0468
:103DE0007091CB0484E090E00E94B9330E94AC0F44
:103DF000F5CB8091CB0488608093CB04EFCF80918A
:103E0000CA048260E9CF8091CA048460E5CF8091C2
:103E1000CA048860E1CF8091CB048160EDCF8091AE
:103E2000CB048260E9CF8091CA048061D5CF8091B4
:103E3000CA048062D1CF8091CA048064CDCF0E9431
:103E4000AC0F8091CA048068C7CF8091CA048C608F
:103E5000C3CF8091CB048360CFCF8091CA048E7F83
:103E6000BBCF8091CB04877FC7CF8091CA048D7F61
:103E7000B3CF8091CA048B7FAFCF8091CA04877F74
:103E8000ABCF8091CB048E7FB7CF8091CB048D7F59
:103E9000B3CF8091CA048F7E9FCF8091CA048F7D5B
:103EA0009BCF8091CA048F7B97CF0E94AC0F8091EB
:103EB000CA048F7791CF8091CA04837F8DCF809180
:103EC000CB048C7F99CF8091CA0482FB992790F90B
:103ED00021E0922790FB82F990FB83F97DCF8091BE
:103EE000CB04982F909591708E7F892B90FB81F950
:103EF00083CF9091CA04892F8F7B96FF80646CCF0B
:103F00000E94AC0F9091CA04892F97FB87F98058C3
:103F100063CF61E08EE090E00E949B335FCF60E072
:103F2000F9CF9091CA04892F8F7E94FF806154CF7E
:103F30009091CA04892F8E7F90FF81604DCF909120
:103F4000CB04892F877F93FF886056CF20E074CE03
:103F5000442319F09272911180CE882309F47FCE08
:103F600065E3211102C080E069E28093EB0384E7FE
:103F700091E00E948F094DCC20E0ECCF89E275CE14
:103F800082E008374CE7140709F07ACD0E94270435
:103F900043E062E081E00E94AE0420CB81E0EFCDFF
:103FA0000B354CE71407C9F00C355CE7150709F031
:103FB000ACCC8091CB0482FB882780F991E08927E3
:103FC0000E94850CA2CC6FEF7FEF80E090E00E9412
:103FD000B9330E94C20F81E0F3CF80E0F1CFF70147
:103FE0008581C080D180882369F0C6010E94D30DED
:103FF000182F682FC6010E944304B601812F0E942A
:10400000B60D8ACCC6010E947A04182FF6CF8430F0
:1040100009F42BC18D2D912F0E940404882309F4EB
:1040200095C0BB2009F49EC2CC2009F46DC08EC09F
:10403000893009F4A8C18A5F8F70823058F70B2D40
:10404000E2EFDE12B2C1812F8F71B110ABC10E94BD
:10405000270456C1103110F00295007FBB20B9F043
:10406000002359F080E28D0D883010F0D11009C086
:10407000802F0E94F5040E94640E8D2D0E94B70EC1
:10408000C9CF8091F103802B8093F103F4CF8D2D64
:104090000E94240F002309F4BDCF80E28D0D8830EB
:1040A00010F0D11004C0802F0E94FB0406C00095C0
:1040B0008091F10380238093F1030E94640EAACFC4
:1040C0008091CB0482FD12C0BB2049F0002329F06F
:1040D000802F0E94F5040E94640E80E0CFCF80E024
:1040E0000E94240F002309F495CFDDCFBB2009F4F3
:1040F00052C0C11022C0802F0E94890F80E0912FF2
:104100000E940404882311F1AA2009F426C2809198
:10411000F20380FD22C2F701158286958695869569
:104120000E942704C7010E944A188091F2038695D5
:10413000869586950E94330410C221E0C21215C0F4
:10414000D090EE03802F8D21081305C01092CD046E
:104150001092CC04D9CF0E94B6099093ED038093BE
:10416000EC03D02AD092EE03F1CF8091C2048230CA
:1041700068F3C812EBCF802F0E94890F802F0E9416
:10418000F4098091F003902F98230917F9F2802BFE
:104190008093F003DBCFC11019C0802F0E94900FD5
:1041A000802F0E94F4098091F003902F98239111A1
:1041B00008C080E0912F0E940404882339F20A2D60
:1041C00080C1009508230093F003F3CF8091C204CF
:1041D000823008F4BBCF31E0C312B8CF8091EF0337
:1041E0008023882309F4B2CF802F0E94900F802F64
:1041F0000E94F4098091F003902F9823992309F4E9
:10420000A5CF009508230093F003A0CF8091C804A8
:10421000BB2039F08C1508F499CF802F0E94890FAC
:10422000F9CEC81608F0F6CE802F0E94900FF2CE7D
:10423000802F0E94890F8D2D62CFCC2089F049E319
:104240008091C6049091C704D41621F08091C404D3
:104250009091C5040E94F70B8D2D0E94240F76CFFC
:10426000802F0E94900F8D2DA5CF812F869586954A
:104270008370882369F0813009F0CCCE8D2D912F89
:104280009370B11002C080E090E00E946909C2CE34
:104290008D2D912F9370B11002C080E090E00E94AC
:1042A0004309B8CE812F8370811135C0B11028C069
:1042B0004D2D429546954770440F440F8D2D8F70BC
:1042C000042E01C0880F0A94EAF72D2D20712223B5
:1042D00039F02FE030E001C0220F4A95EAF720952F
:1042E000312F369536953370323081F0333061F0AE
:1042F0004091A404313039F0822B84230E942104A0
:104300000E94360987CE842B822BF8CF822B909186
:10431000A4048927F3CFBB2059F110FFF1CF4D2D15
:10432000429546954770440F440F8D2D8F70042E93
:1043300001C0880F0A94EAF72D2D2071222339F04D
:104340002FE030E001C0220F4A95EAF72095312F87
:10435000369536953370323089F0333069F04091BC
:10436000A504313041F0822B84230E942404C8CF5D
:10437000823030F2D4CF842B822BF7CF822B9091D6
:10438000A5048927F2CF012F0F70BB2039F0802FB1
:104390000E9427048D2D0E94890FB2CF8D2D0E947F
:1043A000900F802F0E943304ABCF52EF5D1580F049
:1043B00080EFD816D1F091EFD916D9F1BB2009F4CE
:1043C000B6C0CC2009F4B0C08D2D0E94B70E98CF96
:1043D000A3EFDA16F1F0B4EFDB1639F1B110F1CF3B
:1043E000C110AFC0812F8F71DDCF8091C804BB2079
:1043F00061F0C81608F084CF212F2F7181E090E082
:1044000001C0880F2A95EAF7BACF8C1508F478CF47
:10441000F3CF80E0BB2009F4A8CF81E0912F9F71FA
:1044200001C0880F9A95EAF7A0CF8091CB0482FD56
:1044300006C0812F8F71BB2009F4B4CF08CE8091C4
:10444000C204823008F45DC0BB2021F19091F203D8
:1044500097709430B9F41092F2031092F403109212
:10446000F303812F8F710E9433040E94360984EF79
:10447000912F0E94040481116EC01092CD041092FD
:10448000CC046BC0C81688F763E0812F8F710E943F
:10449000DD09EBCFC81688F11092F2031092F403F5
:1044A0001092F30364E0812F8F710E94DD090E9456
:1044B000360984EF912F0E9404048823F1F2C11081
:1044C000DCCF40E0D70115966C9115978D919C91AA
:1044D0000E94210E8091C30483FF09C08091CC0407
:1044E0009091CD04029719F48D2D0E947C0F1092AB
:1044F000CD041092CC04A02E07CE81E00E94D904F6
:10450000D6CFBB2031F063E0812F8F710E94DD098F
:10451000F7CE81E00E94D904E1E0EC1508F0F0CE7E
:1045200082E00E94D904ECCE812F8F7190CDCC20F7
:1045300009F458CFF9E38091C6049091C704DF16BF
:1045400021F08091C4049091C5040E94F70B8D2D39
:104550000E94240FD5CEC11090CF60E0C7010E9409
:104560003F0E4CC8C110F2CD2ACEA0E0B0E0EBEB7C
:10457000F2E20C941B3380912C03803108F049C087
:1045800080912B03882309F444C0C091DD0289E0A7
:10459000D82E8091DC028C17E1F1EC2EF12CDC9E00
:1045A000E0011124FE01E252FD4F84818823B1F124
:1045B000918180912703981331C0908180912603C7
:1045C00098132CC08581811129C0028113818091AB
:1045D000280390912903081B190B60E086E293E001
:1045E0000E943F0E0E94301608171907B8F48091F8
:1045F0002C038F70806180932C03CC51DD4F888118
:104600008F708061888386E293E00E944A180E943E
:10461000CF04CDB7DEB7E7E00C943733E70121963E
:10462000C770B7CFAFE0B0E0E8E1F3E20C9413332A
:104630008C0186E0F801DE011A9601900D928A95B0
:10464000E1F7D801CC9011967C90119715966C905B
:1046500015971296ED90FC90139714965C9086E255
:10466000A82E83E0B82E80912A03811118C055200E
:1046700099F0662009F4BFC1C8010E940D0E88237D
:1046800009F4B9C189E0F801A6E2B3E001900D9206
:104690008A95E1F70E94B522FF24F3944BC060E0B5
:1046A00086E293E00E943F0ED0902B038091280376
:1046B00090912903DD2009F449C14701881A990A1C
:1046C00060E086E293E00E943F0E0E94301688165A
:1046D000990608F0F6C05520F9F2B0902C0390919D
:1046E0002703F8018181FFE0FB1508F4A1C0F62C37
:1046F000981325C090912603D8018C9198131FC060
:1047000020912D0330912E0317968D919C9128179F
:104710003907A9F4611077C08B2D8F708061809369
:104720002C0386E293E00E944A1880912C03F80142
:104730008683F12C8F2D2F96EFE00C942F33611090
:1047400062C0E091DD028091DC02AE2F99E0A813F7
:1047500002C099E02AC02A2F30E09A9FD00111248C
:10476000A252BD4F11964C911197741207C04C91F3
:10477000C41204C015964C91411147C1D90111963C
:10478000A770E5CF2E2F30E09E9FF0011124E2525A
:10479000FD4F4181741206C04081C41203C045819F
:1047A0004111C7CFF9013196E7708E13EBCF8A859F
:1047B0009B850E94FE0D292F22952F70903448F082
:1047C0002A5F2F702230C8F0C8010E944A18FD2CC1
:1047D000B1CF9F70223038F0992351F0F8019681C3
:1047E000903130F4A7CF992319F0882309F4A2CF90
:1047F000805E883008F49ECFE7CF803F08F49ACFE0
:10480000815F8230F7CF80912C03816080932C03ED
:104810008091C30481FD8DCF86E293E00E944A1807
:1048200089E0E6E2F3E0DF011D928A95E9F781CFA6
:10483000981321C090912603D8018C9198131BC026
:1048400020912D0330912E0317968D919C911897EE
:104850002817390781F461100EC01696BC92C80162
:104860000E944A1889E0F801A6E2B3E001900D9297
:104870008A95E1F711CFC8010E940D0E882309F433
:10488000BAC0662009F4B7C080912C03803208F4C6
:10489000F9CE80912603909127039A838983FC8225
:1048A000EB8280912A038D831E82BF8280912D032B
:1048B00090912E0399878887CE0101960E944A180D
:1048C000E1CED0902C03BFE0BD1508F0A5CF552058
:1048D00009F4E2CE90912703F801818198131AC060
:1048E000909126038081981315C020912D0330915B
:1048F0002E03878190852817390761F461100AC05B
:10490000D682C8010E944A1889E0D5011D928A9575
:10491000E9F7C2CEC8010E940D0E882309F46BC0CE
:10492000662009F468C080912C03803208F4AACE76
:1049300080912603909127039A838983FC82EB82DE
:1049400080912A038D831E82DF82B0CF6701C81A4F
:10495000D90A60E086E293E00E943F0E0E94301682
:10496000C816D90608F04BC0552009F495CE66202C
:1049700009F441C090912703F8018181981331C057
:1049800090912603808198132CC020912D033091A3
:104990002E03878190852817390719F58091280300
:1049A00090912903E81AF90AF8ECEF16F10408F0DF
:1049B00059CF80912C0380FD55CF803108F452CF20
:1049C000D80116968C931697982F907F903F09F4F4
:1049D00046CF982F907F905F8F70892B16968C937F
:1049E0003ECFC8010E940D0E81114CCE80912C0348
:1049F000816080932C03C8010E944A184DCE89E043
:104A0000F50111928A95E9F794CE9091C30490FF35
:104A1000A0CE02CFA2E1B0E0E0E1F5E20C941E33BB
:104A20000A871B872C873D874E875F87688B798B2A
:104A30008A8BCE010A960E94122381112BC089E035
:104A4000FE013A96DE01119601900D928A95E1F7EA
:104A50002091DC024091DD028E858823D9F030E080
:104A6000C90101968770992750E084179507E9F0EE
:104A700099E0929FD001939FB00D1124A252BD4F97
:104A8000FE01319601900D929A95E1F78093DC0238
:104A90000E94CF0419E08091DD029091DC0289131D
:104AA00012C06296E4E00C943A330E94AC0F10926C
:104AB000DC021092DD0289E0E6E2F3E0DF011D9204
:104AC0008A95E9F7E7CF189FC001112482529D4FC4
:104AD0000E941223882329F38091DD0290E0019641
:104AE000877099278093DD02D6CFEF92FF920F93C4
:104AF0001F93CF93DF938091A104E0919A01CDE0C1
:104B0000811131C0CDB7DEB7E6E00C943833D1E087
:104B1000DE0FD0939A01EE2EF12CCE9FF0011124DE
:104B2000E75CFB4F84818823E9F087819085892B9E
:104B300021F481859285019659F4008111812281A9
:104B40003381448155816681778180850E940A2561
:104B5000CE9DF001CF9DF00D1124E75CFB4F148238
:104B60001092F103ED2F8091A104E81780F21092CA
:104B7000A10410929A01C6CFA4E0B0E0E2ECF5E205
:104B80000C94113320913804298317E0912E01E011
:104B900010E08DE0382E94E0492E552453948091F6
:104BA00037049981891308C00E9475250E94D30893
:104BB0002496E1E10C942D335981452F50E05C831C
:104BC0004B83FA01EE0FFF1FE35DFB4F8081918164
:104BD000989ED001999EB00D1124FD01EB50FC4F21
:104BE000FA83E983248121115DC07090A104E9E377
:104BF000F4E060E070E0812C671508F051C0A384F8
:104C0000B484A981BA81CD90DC904FEF5FEF612C25
:104C1000262D30E07901EE0CFF1CEC0CFD1CD701B9
:104C2000ED90FC90E114F10439F0AE14BF0409F0EA
:104C30009A016394A901ECCF4F3F5407E1F1D801E9
:104C400002C0AA0FBB1F4A95E2F78A2AA801062CC8
:104C500002C0440F551F0A94E2F79A01215031090E
:104C6000482D50E02417350729F5369EF001379E70
:104C7000F00D1124E75CFB4F989ED001999EB00D7A
:104C80001124AB50BC4F12962D913C911397308755
:104C900027834482108211829287818715965C92C5
:104CA0000E94E4088B819C8101969A83898383709A
:104CB000898375CF14826F5F7F4F3D969DCF109291
:104CC000A3041092A20410921201809137048093E1
:104CD00038040E94D3080E9475250895ACE1B0E025
:104CE000E4E7F6E20C9410334B8B5C8B6D8B7E8B80
:104CF0008F8B988F882349F08091CC049091CD04BC
:104D000001969093CD048093CC04588C511010924E
:104D1000F103188A198A1A8A86E0FE017396DE0169
:104D20001A9601900D928A95E1F78091CB0482FF4B
:104D300021C08091A8049091A904892BD9F00E94E8
:104D4000B6092091F3033091F403821B930B209159
:104D5000A8043091A9048217930738F08091F203D8
:104D600082FD03C082E00E94D9040E94C209811121
:104D70000E9403058E85882379F061E0CE010A96B2
:104D80000E943F0E5C0180352CE7920789F4552084
:104D900011F181E0809312010A851B852C853D85E8
:104DA0004E855F85688979898A890E940A25C8C0ED
:104DB00081353CE7930729F4552069F00E945F266E
:104DC000EBCF82359C4739F4552029F080911201B0
:104DD0008111F4CFDECF85EFE82E83E0F82E412C51
:104DE000812C912C66246394712CD7014D915C9198
:104DF000CC24CA94DD24DA9420E0822F90E0FC01D8
:104E0000EE0FFF1FE40FF51F6081718161157105C1
:104E100039F0A616B70609F0C6012F5F6C01EDCF79
:104E2000BFEFCB16DB0609F473C1F701548135815E
:104E30004681511104C180911201882309F411C1E6
:104E4000552009F40EC10091BC041091BD0431112C
:104E500014C081E090E00C2C01C0880F0A94EAF79E
:104E6000482B468380913504909136048017910732
:104E700020F41093360400933504A30102C0440FBC
:104E8000551F2A95E2F79A0121503109D70116964C
:104E90008C9190E02817390781F48091A2049091B9
:104EA000A304009709F450C00E94890A0817190743
:104EB00008F04AC081E0F7018483852D482ABFEFBE
:104EC0008B1A9B0AE7E0EE0EF11CF8E08F169104B6
:104ED00009F08BCF552009F42FC1442009F41AC1E1
:104EE0000E94B6099093A3048093A2048091A10428
:104EF000883030F591E0980F9093A10499E0FE017D
:104F00003A96DE01119601900D929A95E1F72DE007
:104F1000829FC0011124875C9B4F29E0FE013196DE
:104F2000DC0101900D922A95E1F72FEF3FEFDC01B4
:104F30001A963C932E9319971C96BC92AE921B978F
:104F40006C96E2E10C942C33209138048091370464
:104F5000922FE0E0F0E06701281314C0909338042A
:104F6000EE15FF0509F4A9CF90E0FC01EE0FFF1F3D
:104F7000E35DFB4F91828082019683709927809335
:104F800037049BCF022F10E0F801EE0FFF1FE35D07
:104F9000FB4F60817181F7E0F69FD001F79FB00D64
:104FA0001124AB50BC4F4D915C9111975C8F4B8F8E
:104FB00050E030E040E0E42FF0E0EE0FFF1F6B8D9B
:104FC0007C8DE60FF71F2080318021143104E1F041
:104FD000F7010190F081E02DFA8FE98F30E005C0F4
:104FE0002616370609F4552D3F5FE32FF0E0EE0F4C
:104FF000FF1F698D7A8DE60FF71F60817181611542
:10500000710571F74F5FD7CF5523B1F0F601341713
:1050100008F0FD0131E03483EE15FF0509F49ECF61
:10502000921305C0EA17FB0711F49F5F9370980174
:105030002F5F3F4F237090CFE0E0F0E0F8CF50E0DB
:1050400031112FC0B30102C0660F771F2A95E2F716
:10505000CB0101974817590799F4C4010E94E4084D
:105060000FC050E031111DC0D30102C0AA0FBB1FF9
:105070002A95E2F79D01215031092417350709F0DF
:1050800080E0F30102C0EE0FFF1FCA94E2F76F0148
:10509000C094D70116969C9116979C2116969C93C6
:1050A0000DCFCA010C2C02C0959587950A94E2F7A2
:1050B0009A012150310924233523232B39F580FF10
:1050C00025C0F70182819381892BD9F087E0FE0109
:1050D0003196DF011D928A95E9F70E94B6099C017D
:1050E0008B839C8384E08D83F70192818381792F68
:1050F0009887898709811A8144E05E816F810E94C7
:105100000A25D70115961C9281E0BBCF8170B9CFDB
:1051100080E0D4CE9091370480913804981309C070
:105120000E9475251092A3041092A2040E94D30835
:1051300033CE0E94BC2530CE909138048091370444
:10514000981729F00E94BC254110FACE25CE0E9466
:1051500075251092A3041092A2040E94D308F4CFE4
:10516000A6E0B0E0E6EBF8E20C941E330E94B6092C
:105170008C018091D0029091D1028017910779F033
:1051800019821A820E94B609BC0149815A8180E0C5
:1051900090E00E946E261093D1020093D0022696D2
:1051A000E4E00C943A33A6E0B0E0E9EDF8E20C94C8
:1051B00020339093CD028093CC02811520E2920798
:1051C00030F40E94FE0E2696E2E00C943C3380EF11
:1051D00089838A830E94B6098160BC0149815A8112
:1051E00081E091E00E946E26EECFA6E0B0E0EBEF0A
:1051F000F8E20C9420339093CD028093CC02811579
:1052000020E2920730F40E944E0F2696E2E00C94C2
:105210003C3380EF89838A830E94B6098160BC0198
:1052200049815A8181E090E00E946E26EECFCF93B3
:10523000DF93D82FC92F0E94D3288091C404909166
:10524000C5040E94F70B8D2F9C2F0E94F528DF913B
:10525000CF9108950F931F93CF93DF938C01862FE7
:1052600061E473E00E941B16892BB1F4C0914103E5
:10527000D0914203209781F0F8018281833051F46C
:10528000CE010E941729CE010E941729CE010E944B
:10529000172902C08430D0F7DF91CF911F910F9171
:1052A00008950F931F93CF93DF938C01EB0161E47B
:1052B00073E08C2F0E941B16892B09F05AC0FE0147
:1052C000FF27D80112968C911297EA56FD4F813034
:1052D000A9F415968C9182FD51C080FF4FC082E0E9
:1052E000808380914303909144030097B9F48091A7
:1052F0004103909142030097E1F110C08230B9F56B
:1053000015968C9182FD28C080FD0BC083E08083C0
:105310008091450390914603009701F10E94D328A4
:1053200028C084E0808380914703909148030097D0
:10533000A9F78091410390914203009711F10E94D7
:1053400017298091430390914403009739F7809186
:10535000410390914203E2CF85E080838091410335
:1053600090914203009729F00E941729F0CF86E020
:105370008083DF91CF911F910F91089581E0808309
:10538000B6CF8091430390914403B5CF0F931F9301
:10539000CF93DF938C01EB0161E473E08C2F0E94CB
:1053A0001B16892BA1F48091C4049091C5040E941E
:1053B000F70BDD27CA56DD4F8881F801128218826B
:1053C0008330F1F048F4813059F0823081F0DF9180
:1053D000CF911F910F9108958430B9F08530B9F7BE
:1053E0008091410390914203009789F306C0809118
:1053F000430390914403009799F30E94F528E7CF67
:105400008091450390914603F6CF80914703909198
:105410004803009791F72091410330914203809116
:1054200043039091440321153105F1F2009729F7C8
:10543000C901E3CFCDB7DEB7AE970FB6F894DEBFA4
:105440000FBECDBF85B7806885BF85B7806885BF33
:1054500084B7877F84BF0FB6F894A89580916000C9
:10546000886180936000109260000FBE80E890E039
:105470000FB6F89480936100909361000FBE8AE1AB
:1054800097E090937301809372010E9415080E9427
:1054900050150E9494150E94610D0E94460B0E94B7
:1054A0009C0B8091E20084608093E200789480916C
:1054B000CB02882399F08091E9001091EC001795B8
:1054C000112717958F70182B1092E9008091E80032
:1054D00083FD0E949C101F701093E90082E084BD40
:1054E00093E095BD9AEF97BD80936E000E944B0E9E
:1054F000811102C00E94401580E90E941C0783E3CD
:105500000E941C0782E30E941C0781E30E941C0783
:105510000FE211E0D8018D918D018F3F11F00E94B3
:105520001C07B1E00B331B07A9F788E0E3ECF2E0BE
:10553000DF01282F1D922A95E9F7EEE9F2E0DF015D
:105540001D928A95E9F780E090E00E948533853EC0
:105550009E4F21F40E944B0E811163C065EE7EEFD9
:1055600080E090E00E94B93360E082E090E00E9429
:105570009B3381E08093A40461E083E090E00E948B
:105580009B3360E074E184E090E00E94B93360E016
:1055900086E090E00E949B3360E087E090E00E940C
:1055A0009B3340E050E0BA0188E090E00E94AD33C8
:1055B00060E083E290E00E949B3360E08CE090E04A
:1055C0000E949B3360E08DE090E00E949B33198243
:1055D0001A821B821C821D821E821F82188648E04E
:1055E00050E067E170E0CE0101960E948B3340E00D
:1055F00050E0BA018FE190E00E94AD3380E00E945C
:10560000040D0E94401540E050E0BA018FE090E0A8
:105610000E94AD3340E050E0BA0183E190E00E9487
:10562000AD3382E090E00E947D338093AB0284E052
:1056300090E00E9485339093CB048093CA040E942B
:10564000E216EFEFF6E721E0E150F0402040E1F70D
:1056500000C000000E94E2168091C30280FF08C0D3
:105660006FEF7FEF80E090E00E94B9330E94050C5D
:1056700083E090E00E947D330E942104279A2F98B6
:105680008AE08093800089E1809381008FEF9FEF13
:1056900090938700809386000E94220D80914B0397
:1056A00081FF0BC01092A8021092A7021092A602CE
:1056B00080916F00816080936F000E94220D82E0D4
:1056C00091E09093D3028093D202B8E14B2E512CFB
:1056D0008091CB02853059F48091CB02853009F45A
:1056E0005FC00E94AC0F0E94220D0E9436090E94EA
:1056F000E216ACEA8A2EA2E09A2E03EC12E0D80160
:10570000F401219131918D919D9142E0E43BF407A8
:1057100009F499C028173907A1F3F3ECAF2EF2E092
:10572000BF2E312CD501ED90FD905D01F40161900B
:1057300071904F016E147F0461F16E247F24212C3F
:10574000CC24C394D12CC3018C219D21892BB9F089
:1057500029823A820E94B6099C838B83F1E0FD8303
:1057600091E097012C213D21232B09F490E09E83A9
:1057700049815A816B817C818D810E946E262394A0
:10578000CC0CDD1C2CE02212DECFF4013297F1822A
:10579000E082339434E03312C5CF0E941E0A59C010
:1057A0008091CB02843029F180E00E94F1071092B1
:1057B000A90230E40FB6F894A895409260000FBE9D
:1057C0003093600083B7817F846083BF83B781603B
:1057D00083BF7894889583B78E7F83BF0FB6F89484
:1057E000A8958091600088618093600010926000AD
:1057F0000FBE8091AA02882309F46ECF0E94E216A0
:10580000E3ECF2E081919191892B29F442E0EB3CA9
:10581000F407C1F761CF80E189BD82E189BD09B498
:1058200000FEFDCF8091D8008F7D8093D8008091BD
:10583000E00082608093E0008091E00081FDFCCF79
:105840000E94AC0F49CF2817390709F066CF0E9494
:10585000B0288091510390915203892B09F43EC0E6
:105860004091BC025091BD026091BE027091BF0296
:105870002FB7F8948091B4029091B502A091B6022E
:10588000B091B7022FBF841B950BA60BB70B4091AD
:10589000B8025091B9026091BA027091BB028417AC
:1058A0009507A607B707D0F0809151039091520356
:1058B0000E94FE0E10925203109251031092BC02ED
:1058C0001092BD021092BE021092BF021092B80256
:1058D0001092B9021092BA021092BB02C090590302
:1058E000D0905A03C114D10409F180915B039091C7
:1058F0005C030E94890A7C01C6010E9430168E1545
:105900009F05A0F48091590390915A03992764E070
:10591000880F991F6A95E1F7FC01EE59FC4F208131
:1059200022FD04C0835A9C4F0E942E1480911201C4
:10593000882301F18091A2049091A3040097D1F0F3
:105940000E94890A209135043091360428173907BE
:1059500088F49091380480913704981709F44AC06C
:105960000E94BC2510923604109235041092A304B4
:105970001092A2048091C10480FF1CC0809111018B
:1059800082FF18C00E94B609BC018091DD0390918E
:10599000DE039B01281B390B80910C0190910D01B6
:1059A0002817390738F041E08091DF039091E00338
:1059B0000E947F130E9436099091C002891721F03E
:1059C0008093C0020E941E0A8091CB02843009F0AD
:1059D0007FCE83E08093E9008091E80082FF78CE5B
:1059E0008091E80085FD0FC08091E8008B7780935F
:1059F000E8006ECE0E9475251092A3041092A204B6
:105A00000E94D308B7CF0E94150B882301F1809123
:105A1000E8008B778093E800E090CE02F090CF0210
:105A2000E981E114F104A9F1EE3F09F055C08A8142
:105A3000833020F08550833008F04EC0EA81EE308C
:105A400008F04AC0F0E0ED5EFB4C0C94E93250E205
:105A5000C52ED12CCE0101967C018091E80085FDF8
:105A60000AC08091E8008B778093E8000E94150BB4
:105A7000882399F3CCCF8091F100D7018C93B1E0CA
:105A8000CB1AD108C114D10411F2EFEFEE1AFE0ABD
:105A9000E4CFE43150F4EE2351F0E150E33138F437
:105AA000F0E0EF5DFB4C0C94E932EE3F39F28FEF02
:105AB0003BC21A8289E08B830FC08A818230A9F0B1
:105AC0008330E1F0813099F70E941E0A0E94EF3284
:105AD0006B837C838D839E8340E250E0BE016F5FC9
