:100000000C944A030C9482030C9482030C94820394
:100010000C9482030C9482030C9482030C9482034C
:100020000C9482030C9482030C9452320C942A3365
:100030000C9407320C9482030C9482030C94820378
:100040000C9482030C9482030C9482030C9482031C
:100050000C9482030C942E320C9482030C94820331
:100060000C9482030C9482030C9482030C948203FC
:100070000C9482030C9482030C9482030C948203EC
:100080000C9482030C9482030C9482030C948203DC
:100090000C9482030C9482030C9482030C948203CC
:1000A0000C9482030C9482030C94820305010902D0
:1000B000A10185020901A1000509190129081500FE
:1000C0002501950875018102050109300931158165
:1000D000257F95027508810609381581257F9501D0
:1000E00075088106050C0A38021581257F95017572
:1000F000088106C0C005010980A101850319012AF4
:10010000B700150126B700950175108100C0050CD8
:100110000901A101850419012AA002150126A002E6
:10012000950175108100C00660FF0961A101096297
:10013000150026FF00952075088102096315002629
:10014000FF00952075089102C005010906A101056F
:100150000719E029E7150025019508750181029529
:1001600001750881010507190029FF150026FF0008
:100170009506750881000508190129051500250156
:10018000950575019102950175039101C00000006C
:10019000000000000000000000000000000000005F
:1001A000000000000000000000000000000000004F
:1001B000007E0F00D4FFFFFFC700000078000000A2
:1001C00000000000002A2B280000000000000000B2
:1001D000000000000000000029000000002C1E3478
:1001E00020212224342627252E362D3738271E1F7E
:1001F000202122232425263333362E37381F0405A9
:10020000060708090A0B0C0D0E0F10111213141516
:10021000161718191A1B1C1D2F3130232D350405F4
:10022000060708090A0B0C0D0E0F101112131415F6
:10023000161718191A1B1C1D2F3130354C09025B7B
:1002400000030100A0FA09040000010301010009F4
:100250002111010001224400070581030800010962
:100260000401000203000000092111010001222203
:100270000007058203200001070503032000010990
:100280000402000103000000092111010001227B8A
:10029000000705840320000112010002000000088D
:1002A000504B30340200010203011C037600690048
:1002B00061006C003A0066003600340063003200D2
:1002C0006200330063000000220342004D0034004E
:1002D0003000200048006F00740073007700610058
:1002E00070002000520047004200000016034B003F
:1002F0005000520065007000750062006C006900DB
:1003000063000000040309042B0014001A00080015
:10031000150017001C0018000C00120013002A0022
:10032000290004001600070009000A000B000D0058
:100330000E000F0033003400E1001D001B0006001A
:1003400019000500110010003600370038002800A1
:100350002078E000E200E300777C2C000000787C4D
:100360005000510052004F0035021E021F022002B1
:1003700021022202230224022502260227022A0049
:100380004C003A003B003C003D003E003F002D0287
:100390002E022F02300231020100400041004200D3
:1003A000430044004500320264024A004D0001004F
:1003B0000100010001000100010001000000010036
:1003C000AB00AA00A900AE0035001E001F002000EF
:1003D00021002200230024002500260027002A00F7
:1003E0004C003A003B003C003D003E003F002D0029
:1003F0002E002F003000310001004000410042007B
:10040000430044004500320064004B004E000100F0
:1004100001000100010001000100010000000100D5
:10042000AB00AA00A900AE000100007C027C20788D
:1004300021782378247825782678277828784C0026
:1004400001000100010001000100010001000100A4
:100450000100010001000100010001000100010094
:100460000100010001000100010001000100010084
:100470000100010001000100010001000000010075
:1004800001000100010001000100010047064F17B3
:10049000651700000200020043064F1765170000B1
:1004A0000300010048064F17651700000400020012
:1004B0002D064F1765170E070500010049064F1757
:1004C00065170000060002002F064F176517000091
:1004D0000700020045064F176517000008000100DD
:1004E0004A064F17651700000900020031064F1732
:1004F000651717070A00020033064F17651717071D
:100500000B00020035064F17651717070C00020095
:1005100037064F17651717070D00020039064F17EA
:10052000651717070E0002003B064F1765171707E0
:100530000F0002003D064F17651717071000020055
:100540003F064F17651717071100020041064F17A6
:1005500065171707120002004B064F1765170000BA
:10056000130002004D064F1765170000140001002C
:100570004F064F17651700001500000000003C07EC
:1005800059100000FD377A585A000004E6D6B446E8
:100590000200210116000000742FE5A3E001BC0059
:1005A000CF5D003D8889C65436C3174FE4EF0FBABC
:1005B00005F6E42125FF4D4BEFC04D152365337340
:1005C000C2D58D9A0F078516F146C9965794F7E65E
:1005D00019DCC2B64C3D2C81A28548F44584191320
:1005E0008CF8EAEBA7C7F6E1C2FCA3C5D6F62A430E
:1005F000D9087105458DDF182BE25320754F30AABD
:10060000935BA599FCE8083151EEA73B2ED3BA1DA8
:10061000AE01EA9A419A7D5860DFCDE6ED6C4CC29E
:100620004EF7F45DBFB6F82A2292284616CB5597AE
:10063000262F03706C087C9C32A695DC52DE47A006
:100640001C16FE57A99B84F104786323CD8E70E5B8
:10065000807B9211D5877BFE385E4752D0FEB26711
:1006600089BA480BCDDAD4A0DEAAE2987B6F362B8C
:1006700062DF00004C07E818C11DDA8B0001EB01B6
:10068000BD030000323EE86FB1C467FB020000000A
:100690000004595A11241FBECFEFDAE0DEBFCDBFF0
:1006A00004B603FE18C08091550690915606A0919D
:1006B0005706B09158068730904BA740B04B59F47D
:1006C0001092550610925606109257061092580630
:1006D000E0E0F8E3099511E0A0E0B1E0E4EDF9E62F
:1006E00002C005900D92A637B107D9F726E0A6E71C
:1006F000B1E001C01D92A535B207E1F70E94212AA1
:100700000C946F340C9400009C019A9581159F41C4
:1007100018F5F901EE27F270832F8170B901662771
:100720007470A9014427587034FF0CC08295807FF3
:10073000EF2B09F08062672B09F08064452B69F08C
:1007400080680895EF2B09F08260672B09F08460C0
:10075000452B19F08860089580E00895CF93DF93CA
:10076000EB010E948403FE010995DF91CF9108956A
:10077000282F92959F70963091F060F4925F9F7051
:10078000923030F481E0203F79F030F4283E30F0B0
:1007900080E008959A5FF3CF243FD1F7089581E078
:1007A000283EE0F3213FF9CF089580932B0608956A
:1007B00080932C06089521E030E001C0220F8A9535
:1007C000EAF780912C06822B0E94D803089521E03D
:1007D00030E0A90102C0440F551F8A95E2F7CA0113
:1007E000809590912C0689230E94D8030895292F83
:1007F000943098F58C3088F590E03CE0239F800D94
:10080000911D1124282F277041E001C0440F2A9523
:10081000EAF723E0969587952A95E1F7FC01EE0F1C
:10082000FF1FE80FF91FE65AFB4F20E030E070E0B1
:100830005191DF011197CB01022E02C09695879549
:100840000A94E2F7817081958527842385278C930C
:100850002F5F3F4F2330310559F70895292F9430EA
:1008600078F58C3068F590E03CE0239F800D911D79
:100870001124682F677023E0969587952A95E1F7F4
:10088000FC01EE0FFF1FE80FF91FE65AFB4F40E097
:1008900050E080E0219130E0062E02C03695279589
:1008A0000A94E2F721703327042E01C0220F0A9424
:1008B000EAF7822B4F5F5F4F4330510559F7089598
:1008C00080E0089590912C0621E030E0F90101C00C
:1008D000EE0F8A95EAF7D90102C0AA0FBB1F6A95ED
:1008E000E2F7EA2B01C0220F4A95EAF7892F8E23FF
:1008F000E81305C0892F822B0E94D8030895209504
:10090000822F8923F9CF80910804909107049813CE
:1009100001C008958F5F8770FACF9091250580956B
:10092000892380932505282F2770211111C089174D
:1009300079F09091520692FF0BC086958695869528
:100940000E94E703109225051092270510922605B4
:10095000089590912205982B909322050895982F41
:100960009095809122058923809322050895809196
:100970002105882331F01092210510922005109254
:100980001F050895803E9105D1F1C8F4813391058A
:1009900009F47FC048F48932910509F46FC08A32A6
:1009A000910509F47DC0089589339105E1F08238FD
:1009B0009105C9F08533910509F45BC00895843E23
:1009C0009105D1F148F4823E910531F1833E9105C4
:1009D00041F181EE90E00895863E9105C1F1873E98
:1009E0009105E1F10895209151062370211165C010
:1009F0002091520623FF14C089E290E008952091CF
:100A0000510620FD43C03091520630FF09C024FF3B
:100A10004EC080E090E008952091510622FDF7CF6E
:100A200008952091510622FD45C03091520630FDB7
:100A300044C024FFF5CFEDCF2091520621FFF0CF27
:100A40008091510684FDE5CF87EE90E008952091D6
:100A5000510623FFE5CF24FDDCCFF6CF20915106D0
:100A600023FD2EC03091520631FFE3CF84EE90E09B
:100A700008952091510625FFD3CFBECF2091510676
:100A800025FD21C02091520623FFCACF89E390E0C3
:100A900008952091510626FFC3CF8AE290E0089581
:100AA0002091510626FFBCCF81E390E0089583EEAC
:100AB00090E0089582EE90E0089580EE90E0089531
:100AC00086EE90E0089585E390E0AACF90915106DC
:100AD00092FF10C041E0282F2471243009F040E03B
:100AE00031E0282F2871283009F030E0431711F049
:100AF0002CE0822793FF10C041E0282F247124317D
:100B000009F040E031E0282F2871283109F030E069
:100B1000431711F02CE082273091520630FF10C0AD
:100B200051E0282F2171213009F050E041E0282FB9
:100B30002871283009F040E0541711F029E082278D
:100B400031FF10C041E0282F2171213109F040E030
:100B500031E0282F2871283109F030E0431711F0D7
:100B600029E0822794FD877E08951F93CF93DF931A
:100B70000E94C204EC01811522E5920708F053C0DF
:100B8000811540E5940708F0DDC0803E9105F8F43A
:100B90008D3C910508F0AEC0883A910580F4853A05
:100BA000910508F099C08130910521F00497813AB0
:100BB000910550F4CE01DF91CF911F910895885A8D
:100BC00091094B9708F48BC0C0E0D0E0F3CF8115BA
:100BD00050E49507F8F4C11580E2D80708F0CBC0BF
:100BE000C83ED10538F3CE019A9581159F4160F733
:100BF0008D2F0E946605182FCE0199270E94C204EE
:100C0000212F30E0322F2227E901CC27DF71C82BBA
:100C1000D92BD0CF99270E94C204CC27DF70C82BD4
:100C2000D92BD06AC7CF803842E59407C8F5803603
:100C300052E5950708F067C0C03482E5D807B0F0E8
:100C40008C2F86958695877020E2829FC0011124A3
:100C5000C37021E030E0A90102C0440F551FCA95BE
:100C6000E2F7EA01C82BD92BDC68A4CFC03252E5E9
:100C7000D50708F041C08C2F8695869520E2829F8B
:100C8000C0011124C37021E030E0A90102C0440F6B
:100C9000551FCA95E2F7EA01C82BD92BDD688ACF28
:100CA000803C52E5950760F48F71C03AD24508F058
:100CB0003FC090E0982F8827EC01C46FD06A7ACFAC
:100CC000805C9245809708F07FCFDC2FCC27CC2723
:100CD000DF71C06FD06A6ECFA497D0646BCFC85A53
:100CE000D0E0CC0FDD1FC05CDE4F0990D881C02D55
:100CF000D46460CFD0655ECFCF71D0E0DC2FCC273D
:100D0000C16FD06A57CF86958695877020E2829F03
:100D1000C0011124C37021E030E0A90102C0440FDA
:100D2000551FCA95E2F7EA01C82BD92BDA6842CFE2
:100D30000E946605C82FD0E0DC2FCC27CC27DF71BE
:100D4000D06238CF8F710E94660565E0D695C79551
:100D50006A95E1F7CF70D0E0DC2FCC27282F30E068
:100D600084FF05C054E0220F331F5A95E1F7C22BD0
:100D7000D32BD0691FCF8D2F8F710E946605182F3E
:100D8000CE0199270E94C204212F30E0322F222762
:100D900022273F71282B392BE901D2CF80E008951B
:100DA000F894E82FE295EF70F0E041A18F7021E018
:100DB00030E0B90102C0660F771F8A95E2F7CB01D8
:100DC000962F9095942391A392A1892B82A3789436
:100DD000089581152CE7920741F42091F403309196
:100DE000F503232B11F480E090E00895E0E9F4E0AE
:100DF00080E090E061E379E248E559E22DEC39E2E8
:100E000077836683518740873387228797878687D2
:100E1000019670968830910599F7089580912D0676
:100E200090912E069093100180930F010895EDE2AA
:100E3000F6E0848195812AE030E0B9010E947333A5
:100E4000609313018681809314018285809304014D
:100E500084858093030186859785B9010E94733349
:100E6000609311018089809312018289809302012D
:100E70008489809301010895A0E0B0E0E2E4F7E006
:100E80000C94AE33FB018FEF9FEF4430510508F413
:100E900065C04091510641FB882780F990E0880F9A
:100EA000991F42FBAA24A0F8B12CAA0CBB1CAA0CC7
:100EB000BB1C8A299B2940FB882480F8912C882917
:100EC000992943FBCC24C0F8D12C53E0CC0CDD1C79
:100ED0005A95E1F78C299D2944FBEE24E0F8F12C8A
:100EE00064E0EE0CFF1C6A95E1F78E299F2945FB13
:100EF000002700F910E075E0000F111F7A95E1F767
:100F0000802B912B46FB222720F9C22F20E0D22FE5
:100F1000A6E0CC0FDD1FAA95E1F78C2B9D2B47FB9C
:100F2000442740F920E8429FA0011124842B952BEF
:100F300020915206322F3170932B26952170B22FBB
:100F4000BB0FA0E08A2B9B2B092E000CAA0BBB0B1E
:100F500080839183A283B38380E090E0CDB7DEB736
:100F6000ECE00C94CA33AC0123E0969587952A9562
:100F7000E1F78E719927FC01E156FE4F0190F08157
:100F8000E02D4F70552721E030E002C0220F331FC3
:100F90004A95E2F7662341F0E22BF32B81569E4FF0
:100FA000DC01ED93FC93089520953095E223F32323
:100FB000F5CF1092BD051092BC05E8E2F5E0858101
:100FC000811102C014821682379685E0E43BF8074F
:100FD000B1F70895AC013091BF056091BE05232F94
:100FE000621301C00895822F90E0FC01EE0FFF1FF5
:100FF000EC54FA4F0190F081E02DE417F50791F4DD
:1010000067E0649FF001659FF00D1124E85DFA4FE1
:1010100041E044832313E6CF0196837099278093A0
:10102000BF0508950196282F2370DACFFC01848133
:10103000862381110AC082818823B9F068239085B4
:1010400093FF05C081E061110FC080E00895282F53
:1010500022952F708F70282B962F92959F706F700E
:10106000962B81E02913F1CF089581E0FDCF282F41
:1010700035EB2303C001112497FF04C08058910968
:10108000892F089580589F4FFBCF80916E04609107
:1010900035067091360680FF16C020910401269F08
:1010A000C001279F900D1124BC0176956795769518
:1010B00067956038710508F044C06115710509F441
:1010C00042C0862F089581FF0BC020910401269F06
:1010D000C001279F900D1124BC0176956795E9CF3B
:1010E00082FF09C0809104019B01829FB001839F10
:1010F000700D1124DECF80916D048823D1F2909180
:1011000003012091040130E0891748F0CB01829F50
:10111000B001839F700D929F700D1124CACF829FE2
:10112000A001839F500D1124469F9001479F300DD1
:10113000569F300D1124692F70E0C9010E9473334E
:10114000B8CF8FE7089581E0089580916E0480FF05
:101150000CC06091020170E0759567957595679573
:101160006115710561F1862F089581FF06C06091B8
:10117000020170E075956795F3CF6091020170E010
:1011800082FD15C020916C042223B1F090910101E1
:101190006091020170E0291750F4269FA001279F5B
:1011A000500D1124692F70E0CA010E948733603806
:1011B0007105B0F28FE7089561E070E0D4CF81E06F
:1011C0000895FA01309709F009950895E091FD031B
:1011D000F091FE03309729F00190F081E02D099500
:1011E000089580E00895A3E0B0E0E9EFF8E00C9402
:1011F000B8339C0180919C0190919D0182179307C7
:10120000A1F030939D0120939C01E091FD03F091AA
:10121000FE03309751F083E089833B832A83008467
:10122000F185E02DCE01019609952396E2E00C941C
:10123000D433A3E0B0E0EFE1F9E00C94B8339C01C3
:1012400080919A0190919B0182179307A1F03093AE
:101250009B0120939A01E091FD03F091FE033097EA
:1012600051F084E089833B832A830084F185E02D5B
:10127000CE01019609952396E2E00C94D4339C01AB
:10128000FC0132968FEF90E04191461751F08F3F6D
:1012900019F4411101C0892F9F5F9630A9F78F3F44
:1012A00009F40895280F311D87FD3A95F9016283ED
:1012B0000895EAE7F1E09191891303C0DF011197E6
:1012C0001C9291E0E038F907B1F708952FB7F89430
:1012D0008091D7039091D803A091D903B091DA03FC
:1012E0002FBF089580912F0690913006892B91F0A1
:1012F0000E94660920911F0530912005AC01421B18
:10130000530B9A0181E040912F065091300624172B
:10131000350708F480E0817008959091520692FF9D
:1013200010C098E0899F90011124622B60932505DD
:101330000E94DB030E94660990932705809326058F
:1013400008950E94DB03089590912105292F2823F9
:10135000222361F08095892380932105882339F029
:101360000E94660980931F0590932005089580E0F0
:1013700090E0F8CFCF93C82F8091520682FF0CC027
:10138000809121058C1741F00E94660990932005F9
:1013900080931F05C0932105CF9108950E9466098F
:1013A0002091710430917204232B222321F0809329
:1013B000E5039093E6032091730430917404232B8A
:1013C000222321F08093E3039093E403E091FD0353
:1013D000F091FE03309749F082E080936F0406801D
:1013E000F781E02D8FE694E009950895209171042E
:1013F0009091740430917304662309F45AC04091AB
:101400007204242B292B232B222331F098E0909374
:101410006D0491E090936C048D3C41F40E9445086A
:101420008195809372040E94CE090895E2E3E80F4B
:10143000E231C8F7F0E0EF58FB4C0C949B330E946C
:101440004508EFCF0E944508819580937104EBCF4A
:101450000E944508FACF0E94A50880937304E3CF49
:101460000E94A5088195F9CF0E94A50881958093D7
:101470007404D9CF0E94A508FACF815D990B21E0B1
:1014800030E001C0220F8A95EAF780917004822B28
:1014900080937004C8CF80916E04816080936E0445
:1014A000C2CF80916E048260F9CF80916E04846017
:1014B000F5CF8D3C59F48091720487FF0DC01092D6
:1014C0007204222359F410926D0408C08E3C81F4FA
:1014D0008091720418169CF3222381F0809173048A
:1014E00090917404892B81119ECF10926C049BCF34
:1014F0008F3C41F427FFF0CF109271048091720469
:101500008823E0CF803D19F41216B4F3E5CF893D6E
:1015100029F413160CF710927304DECF8A3D19F4E8
:1015200037FFDACFF8CF8B3D29F497FFD5CF109254
:101530007404D2CF8C3D19F41916CCF3CDCF9FE2B1
:10154000980F983090F4815D990B41E050E0BA011A
:1015500002C0660F771F8A95E2F7CB0180959091C4
:101560007004892380937004B7CF8D3D31F480914E
:101570006E048E7F80936E04AFCF8E3D21F48091F8
:101580006E048D7FF7CF8F3D09F0A6CF80916E045A
:101590008B7FF0CFA4E0B0E0E0EDFAE00C94B8333C
:1015A0008FB7F8942091D7033091D8034091D90395
:1015B0005091DA0329833A834B835C838FBF69811F
:1015C0007A818B819C812496E2E00C94D4330F9332
:1015D0001F93CF93DF93D82FC92F4091860450914A
:1015E000870460918804709189042FB7F8948091E2
:1015F000D7039091D803A091D903B091DA032FBFFC
:10160000841B950BA60BB70B843F9140A105B10538
:1016100028F56091860470918704809188049091E8
:10162000890404EF11E020E030E06093DF03709361
:10163000E0038093E1039093E2030093DB031093B4
:10164000DC032093DD033093DE03D0938404C09346
:101650008504DF91CF911F910F9108950E94CA0ACE
:1016600002E310E020E030E0E0CF9C014FB7F894B7
:101670008091D7039091D803A091D903B091DA0358
:101680004FBF821B930B089580919901089508958F
:10169000FC019B0180918F01909190018617970723
:1016A00040F0672B29F48091E8008E778093E80062
:1016B000C90140E0009741F4411106C08091E80063
:1016C00082FF2FC080E008952091F6032223A9F124
:1016D0002530A9F12091E80023FD2DC02091E800DC
:1016E00022FDECCF2091E80020FFE4CF3091F30001
:1016F0002091F200009719F02830310558F041E0B0
:101700002830310509F040E02091E8002E77209341
:10171000E800D0CF41914093F10001972F5F3F4FF8
:10172000E9CF8091F603882341F0853041F0809124
:10173000E80083FFC3CF81E0089582E0089583E04D
:1017400008958091890187FF13C08091E80082FF8E
:1017500006C08091E8008B778093E80004C08091F8
:10176000F6038111F2CF08958091F6038823D9F30F
:101770008091E80080FFF8CF8091E8008E77ECCF71
:101780002091E4003091E50095E6A9018091EC00FC
:101790008170882331F08091E80080FF06C080E0EE
:1017A00008952091E80022FD1BC08091F603882354
:1017B00091F0853091F08091EB0085FD10C0209173
:1017C000E4003091E5004217530701F39150911165
:1017D000DCCF84E0089582E0089583E0089581E0FD
:1017E0000895E8EDF0E080818E7F80831092E20022
:1017F0001092DA001092E100A0EEB0E08C918160CE
:101800008C9380818F77808319BCA7EDB0E08C9199
:101810008E7F8C9380818F7E8083109288010895C3
:10182000982FE42FE2709093E900891308C0762F77
:10183000242F50E0E11111C091E0980FF4CF709186
:10184000EC002091ED005091F00021FD06C09F5F5B
:10185000973049F78093E90008953091EB003E7F7F
:101860003093EB003091ED003D7F3093ED003091EF
:10187000EB0031603093EB007093EC002093ED00AF
:101880005093F0002091EE0027FDE1CF0895A0E0F5
:10189000B0E0EDE4FCE00C94B233C8EDD0E0888118
:1018A0008F7E8883E7EDF0E080818160808384E033
:1018B00082BF81E08093880188818E7F888302EED9
:1018C00010E0F80110821092DA0081EEC82ED12CBF
:1018D000F601108288818F77888388818068888369
:1018E00088818F7D888319BC1092F603109287013E
:1018F0001092CD031092860190EEE92EF12CF701A3
:1019000080818B7F808388818160888342E060E072
:1019100080E00E94100CF60180818E7F8083F801A8
:10192000808181608083808188608083F7018081ED
:101930008E7F8083888180618883CDB7DEB7E8E0C1
:101940000C94CE339C012115310509F408958FE9DB
:101950009FE00197F1F700C0000021503109F3CF5B
:1019600081E08093E00080E28093D8001092C9006B
:101970008FE19EE40197F1F700C0000087E090EB53
:10198000DC018093550690935606A0935706B093BA
:10199000580688E19CE00FB6F894A8958093600003
:1019A0000FBE90936000FFCF0F931F93CF93DF93F1
:1019B000EB018A019091F603943079F58093E90068
:1019C0008FEF9091E80095FD07C095ED9A95F1F79E
:1019D000000081508111F5CF8091E80085FF1DC086
:1019E0000E94C00B811114C08091E80085FD06C0E3
:1019F0008091E8008E778093E800F2CF8881809311
:101A0000F100015011090115110511F02196ECCFDB
:101A10008091E8008E778093E800DF91CF911F914D
:101A20000F910895CF93DF93D82FC92F48E050E04E
:101A3000682F792F81E00E94D40C88E0ED2FFC2FD5
:101A4000A1E9B1E001900D928A95E1F7DF91CF9184
:101A50000895BC0146E050E084E00E94D40C089553
:101A6000BC0143E050E084E00E94D40C08959091C2
:101A7000520692FB222720F9281779F080FB92F971
:101A800090935206609151067091520684E090E066
:101A90000E94513482E00E948D0408951F93CF93D9
:101AA000DF93962F122F632F282F292B2430C8F471
:101AB0004C30B8F4C42FD0E0CC0FDD1F28E1929F4A
:101AC000C00DD11D112490E6899FC00DD11D112498
:101AD000CE0188960E943334612FCE0189960E94F0
:101AE0003334DF91CF911F910895CF93DF93C8E9ED
:101AF000D3E060E0CE010E9433342196C11584E02A
:101B0000D807B9F7DF91CF910895882381F067E274
:101B100084E290E00E94333467EB85E290E00E941B
:101B200033346BEF86E290E00E94333408956FEF18
:101B300084E290E00E9433346FEF85E290E00E94EF
:101B400033346FEFEFCF0F931F93CF93DF930DE2FB
:101B500016E0C8EAD1E0CE010E941534F801619187
:101B60008F01861719F0CE010E9433342196CC3CA8
:101B7000F1E0DF0781F7DF91CF911F910F91089579
:101B80000F931F93CF93DF930DE216E0C8EAD1E0E5
:101B9000CE010E941534F80181938F012196CC3C2F
:101BA000F1E0DF07A9F7C2E9D4E0FE018591949145
:101BB000009711F0FC0109952C96F5E0CE38DF076F
:101BC000A1F7DF91CF911F910F9108950F931F936C
:101BD000CF93DF93982F962B943020F54C3010F54F
:101BE000C42FD0E0CC0FDD1F28E1629FC00DD11DB6
:101BF000112430E6839FC00DD11D1124CE0188969B
:101C00000E941534082F10E0102F0027CE0189966E
:101C10000E9415349801282BC901DF91CF911F91A3
:101C20000F91089580E090E0F8CF462F672F209124
:101C3000F9033091FA03232B91F4703F39F4403FBC
:101C400071F48091F7039091F8030895982F972BE2
:101C5000943028F44C3018F40E94E60D089580E08A
:101C600090E00895A0E0B0E0E8E3FEE00C94B33328
:101C70007C0100912C0680912B06082BC3E0D0E05C
:101C800010E0C8010C2E02C0959587950A94E2F7E2
:101C900080FD09C02197A8F7D12C8D2DCDB7DEB7D7
:101CA000E7E00C94CF33DC2EB7018C2F0E94150E89
:101CB0000E94B505019771F3F0CFCF93DF93D82F32
:101CC000C92F0E94320E6D2F7C2F0E94150E0E948C
:101CD000B505DF91CF910895FC018481882371F0CF
:101CE00087819085009729F00E94B5050E94B8036E
:101CF0000895808191810E945D0EF8CF80E0089563
:101D00001F93CF93DF93182FD92F662399F0442385
:101D100089F00E94320EC82F682F812F9D2F0E94BC
:101D2000F703612F7D2F8C2F0E94150EDF91CF912D
:101D30001F9108950E942E04C82FF3CFFC01462F57
:101D400087819085009729F46581808191810E9427
:101D5000800E089584E290E00E941534873289F461
:101D600085E290E00E941534873B59F486E290E0CA
:101D70000E94153491E08B3F09F090E0892F81702B
:101D8000089580E0FCCFCF93DF93C091220580912E
:101D90002405C82B809121058823E9F080912F0626
:101DA00090913006892B29F00E94720981110E94BE
:101DB000B704D091210520E08AE791E0FC01308151
:101DC000019631112F5F31E080389307B9F7211167
:101DD0000E94B704CD2B8091800480958C23909134
:101DE0007F04892B8093780148E050E06FEF73E027
:101DF00088E791E00E94E833892BA9F088E0E8E7C2
:101E0000F1E0AFEFB3E001900D928A95E1F7E09138
:101E1000FD03F091FE03309731F00280F381E02D55
:101E200088E791E00995DF91CF910895CF93C82F6E
:101E30008823A1F08CEF8C0F813A90F4EAE7F1E06F
:101E40008191C817E1F121E0E038F207C9F76C2F62
:101E500088E791E00E943F090E94C30ECF91089548
:101E600080E28C0F883048F4C77081E001C0880F91
:101E7000CA95EAF70E94A904EFCF8BE58C0F833057
:101E800038F42C2F2452330BC9010E94F308E6CFFB
:101E9000E8E5EC0FEB3150F4F0E0EE0FFF1FE05CF3
:101EA000FE4F808191810E941909D8CF83E38C0F66
:101EB0008331A0F661E08C2F0E94F609CFCF8C2FE2
:101EC0000E9459090E94C30EC2CFCF93DF93EC0149
:101ED000805E9109089720F067E070E1209711F487
:101EE00069EF7FE0CE010E94AE038C2F0E94160F97
:101EF000DF91CF910895662329F020912405226077
:101F0000209324059C0130522115304308F4992771
:101F10000E94650F0895882381F19CEF980F913AF4
:101F200028F40E9459090E94C30E089590E2980F68
:101F3000983050F4877091E001C0990F8A95EAF7C4
:101F4000892F0E94AF04EFCF9BE5980F933028F4C0
:101F500080E090E00E94F308089598E5980F9B3187
:101F600028F480E090E00E941909089593E3980F07
:101F7000933118F460E00E94F6090895CF93DF933F
:101F8000EC010E948B0FCE01805E9109089720F032
:101F900061E170E1209711F460E070E1CE010E94F0
:101FA000AE03DF91CF9108951F93CF93DF93182F46
:101FB000EB010E94160F209739F4812F0E948B0F9E
:101FC000DF91CF911F9108958FE99FE00197F1F77D
:101FD00000C000002197EFCF60914D0670914E0632
:101FE000893321F060914B0670914C060E94D40F0A
:101FF0000895882321F00E94A9040E94C30E089529
:10200000882321F00E94AF040E94C30E0895882304
:1020100039F090912405892B809324050E94C30EEA
:102020000895882341F08095909124058923809319
:1020300024050E94C30E0895CF9310922205C6E096
:10204000EAE7F1E0DF018C2F1D928A95E9F780E045
:1020500090E00E94F30880E090E00E94190910923D
:1020600024050E94C30EEFE6F4E0DF011D92CA953D
:10207000E9F710926D0410926C0410926E040E94A5
:10208000CE09CF9108950E941C102FEF84E39CE0AD
:10209000215080409040E1F700C0000088E19CE0C2
:1020A0000FB6F894A895809360000FBE90936000DF
:1020B000FFCFCF92DF92EF92FF92FB018FEF9FEF66
:1020C0004430510508F481C0C080D180E280F380A3
:1020D0000E941C10D701C601B695A79597958795C4
:1020E0008170282F220FD701C60181709927AA2756
:1020F000BB27822BB701A60132E0769567955795ED
:1021000047953A95D1F74170440F440F842BB7019E
:10211000A601E3E07695679557954795EA95D1F73F
:102120004170440F440F440F842BB701A601F4E023
:102130007695679557954795FA95D1F741704295F1
:10214000407F842BB701A601A5E07695679557954A
:102150004795AA95D1F741704295440F407E842B54
:10216000B701A601B6E07695679557954795BA955C
:10217000D1F741704295440F440F407C842BB70146
:10218000A60197E076956795579547959A95D1F76B
:10219000479544274795842B80935106D1FA882789
:1021A00080F9880F9D2D9170892B909152069C7F0C
:1021B000892B80935206609151067091520684E0FB
:1021C00090E00E94513480E090E0FF90EF90DF902B
:1021D000CF900895EDE2F6E0128E138E8FEA90E034
:1021E0009183808325E0248F88E893E19383828321
:1021F0008AE090E09583848344E150E057834683EE
:1022000048E050E051874087938782876EE170E015
:10221000758764879787868780E590E0918B808BB0
:10222000538B428B48E250E0558B448B42E350E0A5
:10223000578B468B48EC50E0518F408F158E178E90
:10224000168E91A380A322A30E94A30D0E941C10AE
:10225000109252061092510680E0846080935206DC
:1022600060E074E084E090E00E9451340E94C00D70
:102270000895AAE2B0E0EFE3F1E10C94B73389E806
:1022800091E0FC0101962091F100208321E0813949
:102290009207B9F780918A01893009F456C0C8F4D1
:1022A000823009F4B3C0833009F482C0813071F107
:1022B0008091E80083FFE7C08091890190918A01B5
:1022C0009A3008F0E0C0E92FF0E0ED57FB4C0C9499
:1022D0009B338A3009F489C08B3051F78091890192
:1022E000813231F780918D0190918E01892B01F718
:1022F0008091E800877F8093E8000E94A10B809185
:102300008B01809300010E941C10D2CF8091890123
:10231000813A71F68091E800877F8093E800809190
:102320008D0190918E01892B61F060E080E090E05A
:1023300070E00E94480B8091E8008B778093E80062
:10234000B7CF68E081E991E0F3CF809189018132D4
:1023500009F0AECF80918D0190918E018D7F892BF8
:1023600009F0A6CF8091E800877F8093E8008091F4
:10237000E80082FF18C09091F3008091F20002976C
:1023800031F48091F100813011F0863021F4809198
:10239000F100809399018091E8008B778093E800A9
:1023A0000E94A10B85CF8091F6038111E0CF80CFF1
:1023B00080918901813A09F07BCF80918D019091C4
:1023C0008E01892B09F074CF8091E800877F80937C
:1023D000E8008091E80080FFFCCF809100018093AD
:1023E000F1008091E8008E77D9CF80918901813208
:1023F00009F05ECF8091E800877F8093E8000E941B
:10240000A10B80918C018093850152CF809189012D
:10241000813A09F04DCF8091E800877F8093E800F2
:102420008091E80080FFFCCF80918501D8CF803873
:1024300089F0823841F580918D018F70873018F5D1
:102440008093E9008091EB0085FB882780F910924A
:10245000E90006C0809186019091CD0391118260C0
:102460009091E800977F9093E8008093F10010929C
:10247000F1008091E8008E7723C0811116C0809111
:102480008B01813011F18091E80083FF0AC08091B7
:10249000E800877F8093E8008091EB008062809362
:1024A000EB00AA96E3E00C94D333823061F780917D
:1024B0008B01882389F01092E9008091E800877FE2
:1024C0008093E8000E94A10BDECF81E0933009F0F9
:1024D00080E08093CD03EFCF80918D018F702FEF3F
:1024E000280F263080F68093E9002091EB0020FF32
:1024F000E2CF933031F48091EB0080628093EB0067
:10250000DACF9091EB0090619093EB0021E030E006
:10251000A90102C0440F551F8A95E2F74093EA00D3
:102520001092EA008091EB008860E8CF8111ABCF78
:1025300010918B011F778091E3008078812B80932D
:10254000E3008091E800877F8093E8000E94A10B60
:102550008091E80080FFFCCF8091E3008068809349
:10256000E30083E0111101C082E08093F6038BCF7A
:102570008058823008F087CF40918B0150918C01B8
:102580004C3D83E0580799F583E08A838AE289838A
:102590004FB7F894DE01139620E03EE051E2E32FBE
:1025A000F0E050935700849120FF03C082958F7014
:1025B0003F5F8F708A30C8F0895C90E08D939D9367
:1025C0002F5F243161F74FBF8091E800877F8093B0
:1025D000E8006AE270E0CE0101960E94480B80910B
:1025E000E8008B778093E8004ECF805DE6CF809146
:1025F0008D0190918E01252F33272330310509F469
:102600004AC078F52130310509F483C08BE590E0AC
:10261000EDE3F2E02230310509F035CF2091E800FA
:10262000277F2093E80020918F013091900182173D
:10263000930708F49C0140E02115310509F06EC0B4
:1026400041116CC08091E80082FDC9CF8091F603F2
:10265000882329F2853019F28091E80083FFF2CFB8
:10266000BECF2132310509F445C02232310509F0CF
:102670000ACF8330910508F006CFFC01EE0FFF1F53
:10268000EC5DFE4F0190F081E02D8F5D9E4FDC01EF
:102690008C9190E010C0CA019927423019F1833023
:1026A000910568F4892BB1F4E4E0F3E0E4918E2F16
:1026B00090E0E4E0F3E0009709F4E5CEAFCF0397B4
:1026C00009F0E1CEEAEAF2E0E4918E2F90E0EAEA46
:1026D000F2E0F1CFECEEF2E0E4918E2F90E0ECEE40
:1026E000F2E0E9CFE8ECF2E0E4918E2F90E0E8EC44
:1026F000F2E0E1CF8330910508F0C5CEFC01EE0F8A
:10270000FF1FE65DFE4F0190F081E02D89E090E033
:1027100085CF82E190E0E8E9F2E080CF8091F60396
:10272000882309F45CCF853009F459CF8091E80003
:1027300083FD55CF8091E80082FD84CF8091E80031
:1027400080FF7ACF9091F3008091F200211531053E
:1027500019F08830910550F041E0089709F040E009
:102760008091E8008E778093E80066CF4491409393
:10277000F1003196215031090196E8CF803809F0F7
:1027800082CE8091E800877F8093E8008091870166
:102790008093F1006ECE811176CE10918B011230B4
:1027A00008F071CE8091E800877F8093E800109355
:1027B00087010E94A10B1123D1F084E08093F603DE
:1027C00042E061EC81E00E94100C42E261EC84E0A6
:1027D0000E94100C42E261EC82E00E94100C42E286
:1027E00060EC83E00E94100C8091F6034CCE809147
:1027F000E30087FDE2CF81E0E1CF80911601877F82
:1028000080931601909124059D7F9093240584FF69
:1028100006C08F7E8093160182E00E94A9048091F9
:10282000160185FF06C08F7D8093160180E20E940D
:10283000A9040E94C30E0895CF92DF92FF920F93D6
:102840001F93CF93DF93EC018B01F42E809116013F
:1028500082FF66C0C0901205D0901305CC16DD062D
:1028600019F0209709F05CC0809116018B7F80934E
:102870001601C1E081FD10C08091100590911105F5
:102880009801281B390BC1E080910F019091100134
:102890002817390708F4C0E0C17080911601C0FB09
:1028A00081F9809316016C2FC6010E94B3078091B5
:1028B000220581FF08C08091160180618093160176
:1028C00082E00E94AF048091220585FF08C08091BC
:1028D000160180628093160180E20E94AF046C2F83
:1028E000C6010E947B0FFF2031F08091480685FFD2
:1028F00002C086FF29C080914B0690914C060E9431
:10290000A20C80911205909113059C013052211563
:10291000304308F499270E94BE0F0E94FD1310C097
:10292000CE01905281159043B8F4CE0199270E94B0
:10293000BE0F8091120590911305C817D90769F34E
:102940001093110500931005DF91CF911F910F9106
:10295000FF90DF90CF900895CE01E9CFCF93DF9322
:10296000EC014A855B856E857F850E94E1089B812D
:102970009095809124058923809324058C810E9461
:10298000AF040E94C30E86E0FE0111928A95E9F71A
:10299000DF91CF910895CF93DF93EC018D8181FD7D
:1029A00014C082608D83809124059B81892B809344
:1029B00024058C810E94A9040E94C30E4885598574
:1029C0006E857F85CE010E94E10810928D041092E1
:1029D0008C048D8180FD03C0CE010E94AE14DF9176
:1029E000CF9108951F93CF93DF93182FA091820466
:1029F000B0918304109709F44AC010928504109294
:102A000084041092800410927F041696CD91DC917C
:102A10001797CE019A9581159F4108F4D07ED1E099
:102A2000C11101C0D0E01996ED91FC911A97309731
:102A300031F01B966D917C9180E00995D823DD23C0
:102A400039F08CEF8C0F813A30F58C2F0E945909A8
:102A50001123A9F0E0918204F0918304808584FD24
:102A60000EC080918104882351F0808191819C0166
:102A7000215031092F333E4710F40E94E70A0E948B
:102A8000C30E109283041092820410928104DF918D
:102A9000CF911F9108950E94C30E8C2F0E948B0F1F
:102AA000D7CFAEE1B0E0E7E5F5E10C94AD33A0900F
:102AB000F403B090F50381E090E09093F5038093E8
:102AC000F403812C912CE12C6401F12C15C0F80148
:102AD00025913491472D6F2D8E2D0E944E0D0E5F46
:102AE0001F4F73948CE07812F2CFACE0CA0ED11C69
:102AF000F394B4E0FB1639F08601000F111F085F54
:102B00001C4F712CE4CFE39480E3880E911CA4E069
:102B1000EA12DACF0E94EA101A8219821C821B8202
:102B20001E821D8218861F8288EC90E09A87898712
:102B30000CEC11E04AE050E0B801CE0101960E9491
:102B40005734065F1F4F0C31B2E01B0799F7FE01A7
:102B50003B968AE0DF011D928A95E9F77F014AE002
:102B600050E0B801C7010E945734065F1F4F043E72
:102B7000B2E01B07A1F7FE01759689E0DF011D9207
:102B80008A95E9F78FEF9FEF9A8F898F87E08E8F75
:102B90007F014AE050E0B801C7010E945734065F48
:102BA0001F4F0839B3E01B07A1F7B092F503A092BD
:102BB000F4036E96EDE00C94C93380E00E94850D1D
:102BC00060E087E290E00E9433340E9451150E9439
:102BD000750D81E00E94850D0895AAE0B0E0E3EF55
:102BE000F5E10C94B233E4EFF2E088ECDF011D92E2
:102BF0008A95E9F7E8E2F5E08CE8DF011D928A9515
:102C0000E9F784EFC82E82E0D82E7F010CE112E0B4
:102C1000F701D182C0824AE050E0B801CE010196AE
:102C20000E94053488E0FE013196D60101900D9294
:102C30008A95E1F789859A85D70113969C938E939F
:102C40001297BAE0CB0ED11CE7E0EE0EF11C065F46
:102C50001F4F043EF2E01F07D9F62A96E8E00C94D5
:102C6000CE33AAE0B0E0E7E3F6E10C94AE3306EE33
:102C700011E080ECC82E81E0D82E94EEE92E92E08F
:102C8000F92E27E0922E3FEBA32E31E0B32E8824BD
:102C90008394D6010D931D936D014AE050E0B70176
:102CA000CE0101960E940534F8013896DF01892D86
:102CB0001D928A95E9F789819A81D80111969C9392
:102CC0008E938F8112968C9312978D8113968C938D
:102CD0001397888514968C931497898515968C93F1
:102CE00015978B819C8117969C938E9316978A8556
:102CF00087FD04C01E96BC92AE921D9780FF02C055
:102D0000F801808681FF07C0D80118969C9118971A
:102D1000926018969C9382FF04C0F801908594609D
:102D2000908783FF07C0D80118969C9118979860E8
:102D300018969C9384FF04C0F80190859061908759
:102D400085FF07C0D80118968C9118978062189655
:102D50008C93015F1F4FBAE0EB0EF11CE8E9EE1611
:102D6000E3E0FE0609F095CF2A96ECE00C94CA3316
:102D7000282FCB01283070F44AE0249F90011124C1
:102D8000B90164537E4F4AE050E00E94053480E070
:102D900090E008958FEF9FEF0895AAE0B0E0E3ED93
:102DA000F6E10C94B8339C0197558F3F910509F0DB
:102DB00070F4BE016F5F7F4F822F0E94B816892B7F
:102DC00031F489859A852A96E2E00C94D433809177
:102DD000450690914606F7CFA0E0B0E0E2EFF6E1BD
:102DE0000C94B333D62E172FC42FD22F8823A9F0DB
:102DF00040931D050E94660990938401809383018E
:102E0000C77081E001C0880FCA95EAF70E94F90FE8
:102E1000CDB7DEB7E7E00C94CF3380911D054813A2
:102E200037C080918301909184010E94350B7C0111
:102E30008D2D912F0E94CD16E816F90648F5CD1379
:102E40000CC0802F0E94EC0FD77081E001C0880F6A
:102E5000DA95EAF70E940010DBCFC77011E0812FEE
:102E600001C0880FCA95EAF70E94001080E28D0F1A
:102E7000883050F48D2F877001C0110F8A95EAF7C2
:102E8000812F0E94F90FDDCF802F0E94EC0FC0CF61
:102E9000C77081E001C0880FCA95EAF7DBCF9C01BB
:102EA000CB01BA01F9013296459154916417750727
:102EB00048F0F9013496659174910E94F53380E0F1
:102EC00090E008958FEF9FEF08959C01DA0102963C
:102ED000FC0145915491FC0185919491A817B90783
:102EE00058F0F9013496859194910E94F5330E942F
:102EF000A30D80E090E008958FEF9FEF0895A8E084
:102F0000B0E0E5E8F7E10C94AE33FE01319688E0DD
:102F1000DF011D928A95E9F700E311E0EE24E394C6
:102F2000F12C5F01CC24C394D12CF80181918F0145
:102F30008F3F09F44CC0F894E82FE295EF70F0E071
:102F400021A18F70A60102C0440F551F8A95E2F798
:102F5000CA01922F982B91A392A18095892382A3D5
:102F6000789400C0ACE3B1E04501A70140955095CD
:102F70006D91F401819191914F016F3F09F44CC023
:102F8000262F22952F70205E30E0F901208130E05D
:102F90006F7002C0359527956A95E2F7217021116F
:102FA0003BC08E299F29940122503109F901918358
:102FB0008083F1E0A034BF07D9F6F8013197808112
:102FC0008F3F11F00E94D00640EA4A95F1F7EE0CCF
:102FD000FF1C51E00C33150709F0A7CF48E050E083
:102FE000B50184EC93E00E94E833892BC1F088E0BE
:102FF000F501A4ECB3E001900D928A95E1F781E030
:10300000809382010E9466099093810180938001E0
:103010002896ECE00C94CA3384239523C4CF809186
:1030200082018823A9F380918001909181010E94FF
:10303000350B059768F348E050E064EC73E08CEEE4
:1030400093E00E94E833892B49F088E0E4ECF3E058
:10305000ACEEB3E001900D928A95E1F710928201F7
:10306000D7CFA0E0B0E0E7E3F8E10C94B133EC0196
:103070000881002309F4A8C0013009F044C0898107
:10308000813049F48E010E5F1F4F8A810E94EC0F40
:10309000E8012196EDCF823039F48E010E5F1F4F8B
:1030A0008A810E94160FF4CF833039F48E010E5FAF
:1030B0001F4F8A810E948B0FEBCF843011F0219635
:1030C000E8CF2A81229680E090E06AE0AE014F5F6F
:1030D0005F4F2053330B2A30310550F00097C9F26F
:1030E000EFE9FFE03197F1F700C000000197F6CF5C
:1030F000689FF001699FF00D1124C9018E0F9F1F79
:103100002981EA01E3CFE02FF0E0E354FE4FB490D1
:10311000202F26952695269530E0F901E355FE4FA0
:10312000E4900770F12C002E02C0F594E7940A9405
:10313000E2F7F1E0EF22FF24F901E356FE4FC490DD
:10314000D12C002E02C0D594C7940A94E2F781E0F6
:10315000C822DD24F901E357FE4F1491E114F10474
:10316000A9F4C114D10409F560E070E08B2D0E9430
:10317000D40FE12FF0E002C0F595E7950A95E2F74C
:10318000E0FF87CF8CE20E94EC0F83CF81EE0E949C
:10319000160FC114D10449F460E070E08B2D0E9439
:1031A000D40F81EE0E948B0FE4CF86EE0E94160FA3
:1031B00060E070E08B2D0E94D40F86EE0E948B0F92
:1031C000E114F104B1F2EDCFCDB7DEB7E9E00C9434
:1031D000CD33A5E0B0E0EFEEF8E10C94A8337C012C
:1031E000DC0114968C91882309F472C261E0C70156
:1031F0000E949E0E8C01F7018581882319F1809130
:103200008C0490918D040097E9F008171907D1F00C
:103210009927E4E0880F991FEA95E1F7FC01EB5646
:10322000FB4F20812460208380579B4FDC010D934E
:103230001C930E94CB141092240561E0C7010E94E8
:103240009E0E8C01F7015580552009F4BCC0C801C1
:1032500097578038910508F011C2D02EFFE0F01783
:1032600008F426C28FEF93E00E941534811120C22A
:1032700008E913E0D11038C074E0C72EAE014F5FEB
:103280005F4F4A01D401EC2D1D92EA95E9F75801F0
:10329000FFEFAF1ABF0AC8010E9415348983882343
:1032A00009F406C2813009F08AC0380122E0620EBA
:1032B000711CC5010E941534D82E8A83882309F415
:1032C000F7C18FEF8D0D8330E8F4C3010E941534F0
:1032D0008B83882319F0C4010E943118580143E000
:1032E000A40EB11C8501CECF011524E0120709F40C
:1032F000DFC1C8010E9415340F5F1F4F8111F4CF49
:10330000DA94B8CF8BEF8D0D833058F5580153E028
:10331000A50EB11CC3010E9415348B83882311F3C1
:10332000C5010E9415348C83882381F08B819C8198
:103330008130AFEF9A0710F0982F8827B6E0DB16A0
:1033400051F0E7E0DE1651F00E941E295801F4E02A
:10335000AF0EB11CC7CF0E94DA28F8CF0E94FC281C
:10336000F5CF24E05301D212BDCFC3010E94153422
:10337000D82E580144E0A40EB11CC80103960E9447
:103380001534282FDD2009F493C1882309F490C156
:103390002150330B4FEF429FC001439F900D1124EA
:1033A000AD2DA150BB0B8A0F9B1F019708F49ACF3C
:1033B000EFE9FFE03197F1F700C00000F6CFC4015C
:1033C0000E9431188FCF011527E5120708F484C138
:1033D000011548E5140708F022C1680157E5D51A20
:1033E00065E774E08C2D0E94B816892B21F5C60183
:1033F00054E0880F991F5A95E1F7FC01E057FB4F05
:1034000022812130D9F42091750430917604232B48
:1034100091F02091770430917804232B61F0209172
:10342000790430917A0440917B0450917C04242BE0
:10343000352B232B59F0F701558015C02230D9F7D1
:103440002091790430917A04232BA9F3FC01EB56E7
:10345000FB4F20812E7F208380579B4F0E94CB14EF
:10346000D70115965C9080911501882309F45EC1FF
:10347000480150EE851A910840902305809122055D
:10348000482A80912105482A88E08816910408F08E
:1034900096C198012770332781E090E001C0880F22
:1034A0002A95EAF7552009F487C1482AD7018D915A
:1034B0009C910E942E0421E030E0190102C0220CF0
:1034C000331C8A95E2F760908204709083041D8219
:1034D000BD81EB2FF0E0EE0FFF1FE054FE4FC080E8
:1034E000D180C114D10409F4C0C1411004C0F60157
:1034F0008281811188C1D60113968C91139790E037
:1035000082219321892B09F47EC118968C91982FE2
:10351000977091116AC1B8E08B16910408F077C1D9
:1035200051106BC1F601A080B1800A151B0509F48A
:103530006AC1C614D70409F466C1D6011D96ED917F
:10354000FC91309721F08081882309F45CC1642DBF
:10355000C6010E941608882309F455C10A151B05E7
:1035600011F4511005C0A114B10409F058C1512C37
:1035700080E00E94F214D0928304C092820481E021
:1035800080938104F60185818093800451100DC0E1
:10359000AB2859F0808191819C0124503109213A56
:1035A000310508F044C10E945909F601A680B78090
:1035B000C5019A9581159F4110F420EEB22277241F
:1035C0007394C50101978F339E4708F0712CD60183
:1035D0001996ED91FC911A97309731F01B966D91E9
:1035E0007C9181E00995782281E05826772009F4C2
:1035F00039C1F601868197810E94840380937F04FC
:10360000C501F8E08F16910408F014C10E94E70A82
:103610000E94C30E511064C00E94C30E49C0809125
:103620001501882309F484C180918A0490918B0448
:103630000817190781F410928B0410928A041092D3
:1036400086041092870410928804109289041092C4
:10365000850410928404E0918204F09183043097F1
:1036600009F45DC0808191810817190709F057C0DE
:103670001092810480E00E94F21451C00E35FCE7E4
:103680001F0799F00F352CE7120749F050901501EC
:103690000D354CE7140709F040C0552031F0109269
:1036A000150180E00E94F21403C081E080931501AF
:1036B000809125058770882359F0F701858188233B
:1036C00039F08091520682FF03C082E00E948D048F
:1036D0002596E2E10C94C433809115018111C8CE86
:1036E0008091480680FF89C20E9466096C01D7015B
:1036F00015968C9181112EC1013E110509F40FC15F
:10370000053E110509F0D6C1809116018F7D809389
:103710001601D70115968C9171C15110A9CEC8011F
:1037200097558F3F910511F008F002C1F801FF276E
:1037300034E0EE0FFF1F3A95E1F7AF0140575B4FC2
:103740006A01D70115968C91EB56FB4F908180FB57
:1037500090F99083882309F4AFC00E946609909382
:103760008F0480938E04F60182818F5F8283809123
:10377000240590912205892B8383809121058483E0
:103780004681578166857785C6010E94E108D6018A
:1037900015968C9181FD8DC0902F812F90938C0474
:1037A00080938D048091480680FFF9C20E946609CB
:1037B0006C01F7018581ADC08095482277CE5520F8
:1037C00009F432CF10938B0400938A040E94CA0A32
:1037D000609386047093870480938804909389048F
:1037E000109285041092840461CEE8E08E16910454
:1037F00088F4552031F081FF06C0D601AD90BC9011
:1038000098CE82FD8FCE9D819F5F9D8361CE5110AA
:10381000F4CFF9CF5520B9F380FFF5CFEECF8091EB
:103820008A0490918B048A159B0569F7A0CE0E94AB
:103830008B0FBBCE0497813A910540F46A2D88E73F
:1038400091E00E943F0951106ACFE6CE0E94C30E5C
:103850008FE39CE90197F1F700C000008A2D0E94D8
:10386000160FF1CF0E94C30EEECF6114710409F45C
:1038700056CFA8E08A16910450F4642DC3010E942B
:10388000160881112DCF81E00E94F21429CFF30197
:10389000808191810817190739F4552009F4E8CE81
:1038A000808585FD3CCFE6CE552009F438CF808554
:1038B000F8CF90E080E072CFFA01448555856685A7
:1038C0007785C6010E94E108D60115968C9181FF8B
:1038D0002CC0C6010E94AE1420918C0430918D043E
:1038E000809148060217130761F410928D0410921C
:1038F0008C0480FD5BCFF7018581882309F430C1FA
:103900004EC080FF4CC20E9466096C01D70115961B
:103910008C9181111FC0013E110509F0CBC080912F
:1039200016018F7E8093160167C080914806E1CF13
:103930008091480680FDD8CED70115968C91F8016C
:10394000E851FC47E730F10508F057C1E357FB4C5D
:103950000C949B338091160182FF06C040E0B601B3
:1039600080E090E00E941C140431FCE71F07C9F1BD
:1039700005312CE7120709F1D70115968C91033117
:10398000BCE71B0709F064C0909116019160909309
:1039900016018823A9F110921305109212051092B6
:1039A0001D05C8019057839708F4FDC10631BCE797
:1039B0001B0709F078C081E02FC190911601892F73
:1039C0008E7F90FF8160809316010E94FD1380918D
:1039D000160180FF9ECEF7018581882309F40DC171
:1039E00055C0809116018E7F809316010E94FD13B1
:1039F0008091160180FDEFCFF70185818111CFCF36
:103A0000D70115968C91882309F459C00A35BCE773
:103A10001B0709F4DBC208F0BFC20130FCE71F0737
:103A200009F4D2C203302CE7120709F4C7C201150A
:103A30001C4709F044C00E941C109FEFA4E3BCE0A7
:103A40009150A040B040E1F700C000000E94B00CCF
:103A50009801305221153043F0F0D70115968C9122
:103A60009091160190FF68CF0832110508F06BC0E5
:103A70000E31110508F0B6C09801245031092A31E1
:103A8000310508F486C0882309F46AC01092130532
:103A900010921205B2C010921305109212058823DD
:103AA00071F010921D050737ECE71E0709F064C29C
:103AB00081E068C2C80190528115904370F6D70129
:103AC00017968D919C91009709F484C20E94B505C8
:103AD0008C01D7011596BC9015971696CC90C29480
:103AE0002FE0C222809125058770882301F1AB2C3D
:103AF000BB20F1F0812F807F803461F080E2800F65
:103B00008830A8F0812F807E803221F4023078F056
:103B1000CC2069F08091520682FF09C082E00E94A9
:103B20008D04809125058770AA24A3948111A12C6E
:103B3000E12FE295EF70103C08F07EC2F0E0EC5609
:103B4000FB4C0C949B3309331105C0F40D32110565
:103B500008F04DC00B32110509F449C081111BCF8B
:103B600007372CE7120709F415C282E008374CE743
:103B7000140709F045CF0E94E70306C20436110579
:103B8000B1F1882309F4D8CE1092130510921205D2
:103B9000D3CE9091480694FD76CF882309F4CDC00A
:103BA0008091210590912205892B8D7F882309F42E
:103BB0005BC010921305109212058091480681FD9A
:103BC00053C060E0C8010E94B30760E0C8010E94D2
:103BD0007B0F809121058D7F0E94BA0982E00E94AF
:103BE0008D0466CD9091480693FD4DCFD6CF909130
:103BF000480692FFD2CF8111C7CFF701858181118D
:103C000010921D05D70115968C918111CACE0631EF
:103C1000FCE71F0709F0A4CF9091220530914706D9
:103C200030FF04C0292F247421118CC1292F2A7A36
:103C300031FF04C0492F4171411120E0432F4870EA
:103C400032FF82C1392F3878332309F47DC1411105
:103C50008FC1811184C180911E05882309F48AC116
:103C600085E30E945909D8CC89E0F701A4E1B5E0C9
:103C700001900D928A95E1F71092170510921605A2
:103C8000809112059091130508171907C9F5209125
:103C9000480625FF35C03091160131FF02C026FFCE
:103CA0002FC020911005309111055601A21AB30AB8
:103CB0000E94CD16A816B90618F58091220581FF3D
:103CC00008C08091160180618093160182E00E94F5
:103CD000AF048091220585FF08C0809116018062A3
:103CE0008093160180E20E94AF04609116016695F0
:103CF000617080911205909113050E947B0FD8CCC2
:103D000080912105B0902205B82AB1FABB24B0F801
:103D10008D7F0E94BA091093130500931205D0926B
:103D20001105C0921005BB0C6894B2F89091160171
:103D3000997FB92AB092160151CF40E0B601C8016F
:103D40000E941C14B5CC06E221EE41EE6AE17CE74C
:103D50000E94EC16ADCC07E225EE45EE6BE17CE768
:103D6000F7CF06E221EE40EE68E17CE7F1CF07E213
:103D700025EE44EE69E17CE7EBCF06E221EE42EE70
:103D80006CE17CE7E5CF07E225EE46EE6DE17CE7EE
:103D9000DFCF08E221E045EE6EE17CE7D9CFD70125
:103DA00015968C91AACD84E090E00E941D349093EA
:103DB000520680935106F801E150F047E232F105D6
:103DC00020F4E056FB4C0C949B33809151068160AB
:103DD00080935106609151067091520684E090E004
:103DE0000E9451340E941C1063CC8091520688605E
:103DF00080935206EFCF809151068260E9CF809187
:103E000051068460E5CF809151068860E1CF8091B2
:103E100052068160EDCF809152068260E9CF809199
:103E200051068061D5CF809151068062D1CF8091BB
:103E300051068064CDCF0E941C108091510680688D
:103E4000C7CF809151068C60C3CF809152068360AA
:103E5000CFCF809151068E7FBBCF80915206877F56
:103E6000C7CF809151068D7FB3CF809151068B7F54
:103E7000AFCF80915106877FABCF809152068E7F66
:103E8000B7CF809152068D7FB3CF809151068F7E40
:103E90009FCF809151068F7D9BCF809151068F7B64
:103EA00097CF0E941C10809151068F7791CF8091FF
:103EB0005106837F8DCF809152068C7F99CF809160
:103EC000510682FB992790F921E0922790FB82F915
:103ED00090FB83F97DCF80915206982F9095917039
:103EE0008E7F892B90FB81F983CF90915106892F8A
:103EF0008F7B96FF80646CCF0E941C1090915106BE
:103F0000892F97FB87F9805863CF61E08EE090E0BE
:103F10000E9433345FCF60E0F9CF90915106892F32
:103F20008F7E94FF806154CF90915106892F8E7FB0
:103F300090FF81604DCF90915206892F877F93FF2C
:103F4000886056CF20E074CE442319F0927291110C
:103F500080CE882309F47FCE65E3211102C080E082
:103F600069E280931E0588E791E00E943F0954CBE7
:103F700020E0ECCF89E275CE82E008375CE71507D8
:103F800009F03ECD0E94DB0343E062E081E00E9445
:103F900062048ECB81E0EFCD0B355CE71507C1F0F5
:103FA0000C351C4709F08BCD8091520682FB882787
:103FB00080F991E089270E94370D81CD6FEF7FEF67
:103FC00080E090E00E9451340E94431081E0F3CFE2
:103FD00080E0F1CFF7018581C080D180882369F02E
:103FE000C6010E94320E182F682FC6010E94F703E7
:103FF000B601812F0E94150E69CDC6010E942E04C4
:10400000182FF6CFB12FBF70DB2E103118F0D294DD
:1040100090EFD922BB2019F1DD2059F080E2800F0A
:10402000883010F0011115C08D2D0E94A9040E9446
:10403000C30E802F0E94160FC8010E94B803882368
:1040400009F484C0BB2009F494C2CC2009F45CC0FC
:104050007DC0809124058D2980932405E8CF802F91
:104060000E948B0FDD2041F380E2800F883010F03A
:10407000011104C08D2D0E94AF0406C0D094809120
:1040800024058D21809324050E94C30ED5CFE12FF6
:10409000EF70DE2E812F807F803219F0D29480EF76
:1040A000D822002369F0013009F4B0C0BB2009F424
:1040B000C4C0CC2009F4BCC0802F0E94160F46C09B
:1040C0008091520682FD12C0BB2049F0DD2029F00C
:1040D0008D2D0E94A9040E94C30E80E0ABCF80E02A
:1040E0000E948B0FDD2009F4A7CFC4CFBB2009F4B9
:1040F00052C0C11022C08D2D0E94F90F80E0912F77
:104100000E94B803882311F1AA2009F42DC28091DE
:10411000250580FD29C2F70115828695869586952D
:104120000E94DB03C7010E94E9188091250586954E
:10413000869586950E94E70317C2F1E0CF1215C05D
:10414000009121058D2D8023D81205C010925406B0
:1041500010925306D9CF0E94660990932005809350
:104160001F050D2900932105F1CF8091490682306A
:1041700068F3C812EBCF8D2D0E94F90F8D2D0E9490
:10418000A409809123059D2D9823D916F9F28D2934
:1041900080932305DBCFC11019C08D2D0E94001024
:1041A0008D2D0E94A409809123059D2D98239111A6
:1041B00008C080E0912F0E94B803882339F2DA2CDE
:1041C00088C1D094D822D0922305F3CF809149069C
:1041D000823008F4BBCF21E0C212B8CF8091220513
:1041E0008D21882309F4B2CF8D2D0E9400108D2DD2
:1041F0000E94A409809123059D2D9823992309F4F9
:10420000A5CFD094D822D0922305A0CF80914F067D
:10421000BB2039F08C1508F499CF8D2D0E94F90F31
:104220000BCFC81608F008CF8D2D0E94001004CFC8
:104230008D2D0E94F90F802F62CFCC2081F08091CC
:104240004D0690914E06093321F080914B069091D6
:104250004C060E94A20C802F0E948B0F77CF8D2DD1
:104260000E940010802FA6CF812F8695869583709F
:10427000882361F0813009F0DFCEC8019370B1105E
:1042800002C080E090E00E941909D6CEC801937068
:10429000B11002C080E090E00E94F308CDCE6B2DFB
:1042A000802F0E94F609C8CE812F8370811135C0FE
:1042B000B11028C0402F429546954770440F440FD7
:1042C000802F8F70042E01C0880F0A94EAF7202FE8
:1042D0002071222339F02FE030E001C0220F4A95EF
:1042E000EAF72095312F369536953370323081F0CC
:1042F000333061F040912B06313039F0822B84232A
:104300000E94D5030E94E60897CE842B822BF8CF1B
:10431000822B90912B068927F3CFBB2059F110FFF8
:10432000F1CF402F429546954770440F440F802FA0
:104330008F70042E01C0880F0A94EAF7202F207195
:10434000222339F02FE030E001C0220F4A95EAF72E
:104350002095312F369536953370323089F03330D1
:1043600069F040912C06313041F0822B84230E9469
:10437000D803C8CF823030F2D4CF842B822BF7CF32
:10438000822B90912C068927F2CF412F4F70D42E8B
:10439000BB2039F0842F0E94DB03802F0E94F90F8D
:1043A000B1CF802F0E9400108D2D0E94E703AACF6D
:1043B000DB2C023F79F178F4003FC1F0013F09F4B2
:1043C00040C0BB2009F4BBC0CC2009F4B5C0802F8D
:1043D0000E94160F97CF033F21F1043F71F1B110F6
:1043E000F3CFC110B5C0812F8F71DFCF80914F0601
:1043F000BB2061F0C81608F085CF212F2F7181E016
:1044000090E001C0880F2A95EAF7BBCF8C1508F41D
:1044100079CFF3CF812F8F71B110C7CF0E94DB030B
:1044200071CF80E0BB2009F4A2CF81E0912F9F7172
:1044300001C0880F9A95EAF79ACF8091520682FDC3
:1044400006C0812F8F71BB2009F4AFCFE7CF8091D9
:104450004906823008F45DC0BB2021F1909125050A
:1044600097709430B9F41092250510922705109298
:104470002605812F8F710E94E7030E94E60884EFD2
:10448000912F0E94B80381116DC0109254061092B2
:1044900053066AC0C81688F763E0812F8F710E94A7
:1044A0008D09EBCFC81688F11092250510922705CB
:1044B0001092260564E0812F8F710E948D090E9461
:1044C000E60884EF912F0E94B8038823F1F2C1100F
:1044D000DCCF40E0D70115966C9115978D919C919A
:1044E0000E94800E80914A0683FF09C08091530686
:1044F00090915406029719F4802F0E94EC0F1092AD
:10450000540610925306AD2CFFCD81E00E948D041D
:10451000D6CFBB2031F063E0812F8F710E948D09CF
:10452000F1CE81E00E948D0451E05C1508F0EACEE6
:1045300082E00E948D04E6CE812F8F716FCFCC2058
:1045400009F451CF80914D0690914E06093321F028
:1045500080914B0690914C060E94A20C802F0E94E5
:104560008B0FD0CEC11091CF60E0C7010E949E0E8C
:10457000AFC8C110EBCD23CEA0E0B0E0E2ECF2E298
:104580000C94B33380915704803108F049C0809176
:104590005604882309F444C0C091080489E0D82E49
:1045A000809107048C17E1F1EC2EF12CDC9EE001E8
:1045B0001124FE01E75FFB4F84818823B1F19181D3
:1045C00080915204981331C09081809151049813C6
:1045D0002CC08581811129C00281138180915304EF
:1045E00090915404081B190B60E081E594E00E944F
:1045F0009E0E0E94CD1608171907B8F48091570433
:104600008F70806180935704C15FDB4F88818F700A
:104610008061888381E594E00E94E9180E94830408
:10462000CDB7DEB7E7E00C94CF33E7012196C77032
:10463000B7CFAFE0B0E0EFE1F3E20C94AB338C0125
:1046400086E0F801DE011A9601900D928A95E1F755
:10465000D801CC9011967C90119715966C90159777
:104660001296ED90FC90139714965C9081E5A82E1D
:1046700084E0B82E80915504811118C0552099F01E
:10468000662009F4BFC1C8010E946C0E882309F49A
:10469000B9C189E0F801A1E5B4E001900D928A95D5
:1046A000E1F70E94BC22FF24F3944BC060E081E557
:1046B00094E00E949E0ED0905604809153049091F5
:1046C0005404DD2009F449C14701881A990A60E0C1
:1046D00081E594E00E949E0E0E94CD1688169906F0
:1046E00008F0F6C05520F9F2B090570490915204AA
:1046F000F8018181FFE0FB1508F4A1C0F62C9813A6
:1047000025C090915104D8018C9198131FC020911D
:1047100058043091590417968D919C9128173907A8
:10472000A9F4611077C08B2D8F708061809357043E
:1047300081E594E00E94E91880915704F80186838E
:10474000F12C8F2D2F96EFE00C94C733611062C0CF
:10475000E091080480910704AE2F99E0A81302C0ED
:1047600099E02AC02A2F30E09A9FD0011124A75F38
:10477000BB4F11964C911197741207C04C91C41203
:1047800004C015964C91411147C1D9011196A770EB
:10479000E5CF2E2F30E09E9FF0011124E75FFB4F05
:1047A0004181741206C04081C41203C04581411189
:1047B000C7CFF9013196E7708E13EBCF8A859B85C1
:1047C0000E945D0E292F22952F70903448F02A5FA9
:1047D0002F702230C8F0C8010E94E918FD2CB1CF1B
:1047E0009F70223038F0992351F0F8019681903172
:1047F00030F4A7CF992319F0882309F4A2CF805E63
:10480000883008F49ECFE7CF803F08F49ACF815FCD
:104810008230F7CF80915704816080935704809154
:104820004A0681FD8DCF81E594E00E94E91889E078
:10483000E1E5F4E0DF011D928A95E9F781CF981355
:1048400021C090915104D8018C9198131BC02091E4
:1048500058043091590417968D919C9118972817F8
:10486000390781F461100EC01696BC92C8010E94EF
:10487000E91889E0F801A1E5B4E001900D928A956C
:10488000E1F711CFC8010E946C0E882309F4BAC069
:10489000662009F4B7C080915704803208F4F9CE3D
:1048A00080915104909152049A838983FC82EB8217
:1048B000809155048D831E82BF828091580490910F
:1048C000590499878887CE0101960E94E918E1CEA4
:1048D000D0905704BFE0BD1508F0A5CF552009F4CE
:1048E000E2CE90915204F801818198131AC0909100
:1048F00051048081981315C02091580430915904B7
:10490000878190852817390761F461100AC0D68223
:10491000C8010E94E91889E0D5011D928A95E9F73E
:10492000C2CEC8010E946C0E882309F46BC06620B9
:1049300009F468C080915704803208F4AACE8091AF
:104940005104909152049A838983FC82EB82809176
:1049500055048D831E82DF82B0CF6701C81AD90A41
:1049600060E081E594E00E949E0E0E94CD16C8167C
:10497000D90608F04BC0552009F495CE662009F4FD
:1049800041C090915204F8018181981331C09091F7
:104990005104808198132CC02091580430915904FF
:1049A000878190852817390719F5809153049091D4
:1049B0005404E81AF90AF8ECEF16F10408F059CF9C
:1049C0008091570480FD55CF803108F452CFD80133
:1049D00016968C931697982F907F903F09F446CFA8
:1049E000982F907F905F8F70892B16968C933ECF77
:1049F000C8010E946C0E81114CCE809157048160D9
:104A000080935704C8010E94E9184DCE89E0F50152
:104A100011928A95E9F794CE90914A0690FFA0CE24
:104A200002CFA2E1B0E0E7E1F5E20C94B6330A87E9
:104A30001B872C873D874E875F87688B798B8A8B96
:104A4000CE010A960E94192381112BC089E0FE0134
:104A50003A96DE01119601900D928A95E1F7209128
:104A60000704409108048E858823D9F030E0C901FD
:104A700001968770992750E084179507E9F099E02F
:104A8000929FD001939FB00D1124A75FBB4FFE01F1
:104A9000319601900D929A95E1F7809307040E9458
:104AA000830419E08091080490910704891312C0CF
:104AB0006296E4E00C94D2330E941C10109207041A
:104AC0001092080489E0E1E5F4E0DF011D928A9587
:104AD000E9F7E7CF189FC0011124875F9B4F0E9421
:104AE0001923882329F38091080490E001968770A8
:104AF000992780930804D6CFEF92FF920F931F93CC
:104B0000CF93DF9380912806E0919E01CDE0811143
:104B100031C0CDB7DEB7E6E00C94D033D1E0DE0F84
:104B2000D0939E01EE2EF12CCE9FF0011124E05483
:104B3000FA4F84818823E9F087819085892B21F4BD
:104B400081859285019659F40081118122813381FA
:104B5000448155816681778180850E941125CE9D93
:104B6000F001CF9DF00D1124E054FA4F1482109201
:104B70002405ED2F80912806E81780F21092280670
:104B800010929E01C6CFA4E0B0E0E9ECF5E20C94EF
:104B9000A9332091BF05298317E0912E01E010E091
:104BA0008DE0382E94E0492E552453948091BE0513
:104BB0009981891308C00E947C250E94D9072496F8
:104BC000E1E10C94C5335981452F50E05C834B8360
:104BD000FA01EE0FFF1FEC54FA4F80819181989EED
:104BE000D001999EB00D1124FD01E85DFA4FFA83C2
:104BF000E983248121115DC070902806E0ECF5E086
:104C000060E070E0812C671508F051C0A384B48483
:104C1000A981BA81CD90DC904FEF5FEF612C262DFA
:104C200030E07901EE0CFF1CEC0CFD1CD701ED907F
:104C3000FC90E114F10439F0AE14BF0409F09A01BC
:104C40006394A901ECCF4F3F5407E1F1D80102C0B2
:104C5000AA0FBB1F4A95E2F78A2AA801062C02C0B8
:104C6000440F551F0A94E2F79A0121503109482D4B
:104C700050E02417350729F5369EF001379EF00DD8
:104C80001124E054FA4F989ED001999EB00D112442
:104C9000A85DBA4F12962D913C91139730872783C8
:104CA0004482108211829287818715965C920E94BD
:104CB000EA078B819C8101969A838983837089831B
:104CC00075CF14826F5F7F4F3D969DCF10922A065D
:104CD00010922906109217018091BE058093BF059E
:104CE0000E94D9070E947C250895ACE1B0E0EBE773
:104CF000F6E20C94A8334B8B5C8B6D8B7E8B8F8B89
:104D0000988F882349F0809153069091540601961C
:104D10009093540680935306588C5110109224059A
:104D2000188A198A1A8A86E0FE017396DE011A969D
:104D300001900D928A95E1F78091520682FF21C081
:104D400080912F0690913006892BD9F00E94660938
:104D50002091260530912705821B930B20912F0669
:104D6000309130068217930738F08091250582FD37
:104D700003C082E00E948D040E94720981110E948A
:104D8000B7048E85882379F061E0CE010A960E94EF
:104D90009E0E5C0180352CE7920789F4552011F1B5
:104DA00081E0809317010A851B852C853D854E8502
:104DB0005F85688979898A890E941125C8C08135F3
:104DC0003CE7930729F4552069F00E946626EBCF53
:104DD00082359C4739F4552029F0809117018111C3
:104DE000F4CFDECF88E2E82E85E0F82E412C812C2E
:104DF000912C66246394712CD7014D915C91CC2445
:104E0000CA94DD24DA9420E0822F90E0FC01EE0FBA
:104E1000FF1FE40FF51F608171816115710539F085
:104E2000A616B70609F0C6012F5F6C01EDCFBFEFE4
:104E3000CB16DB0609F473C1F70154813581468135
:104E4000511104C180911701882309F411C1552023
:104E500009F40EC10091430610914406311114C0AB
:104E600081E090E00C2C01C0880F0A94EAF7482BEF
:104E700046838091BC059091BD058017910720F471
:104E80001093BD050093BC05A30102C0440F551F3C
:104E90002A95E2F79A0121503109D70116968C9193
:104EA00090E02817390781F48091290690912A060D
:104EB000009709F450C00E94350B0817190708F035
:104EC0004AC081E0F7018483852D482ABFEF8B1A01
:104ED0009B0AE7E0EE0EF11CF4E18F16910409F055
:104EE0008BCF552009F42FC1442009F41AC10E9428
:104EF000660990932A0680932906809128068830B7
:104F000030F591E0980F9093280699E0FE013A96CB
:104F1000DE01119601900D929A95E1F72DE0829FA6
:104F2000C001112480549A4F29E0FE013196DC0122
:104F300001900D922A95E1F72FEF3FEFDC011A96D1
:104F40003C932E9319971C96BC92AE921B976C962D
:104F5000E2E10C94C4332091BF058091BE05922FED
:104F6000E0E0F0E06701281314C09093BF05EE1550
:104F7000FF0509F4A9CF90E0FC01EE0FFF1FEC54F0
:104F8000FA4F918280820196837099278093BE05A3
:104F90009BCF022F10E0F801EE0FFF1FEC54FA4FE9
:104FA00060817181F7E0F69FD001F79FB00D112469
:104FB000A85DBA4F4D915C9111975C8F4B8F50E07B
:104FC00030E040E0E42FF0E0EE0FFF1F6B8D7C8DB2
:104FD000E60FF71F2080318021143104E1F0F70142
:104FE0000190F081E02DFA8FE98F30E005C02616A0
:104FF000370609F4552D3F5FE32FF0E0EE0FFF1F5A
:10500000698D7A8DE60FF71F6081718161157105D9
:1050100071F74F5FD7CF5523B1F0F601341708F081
:10502000FD0131E03483EE15FF0509F49ECF9213A4
:1050300005C0EA17FB0711F49F5F937098012F5F7B
:105040003F4F237090CFE0E0F0E0F8CF50E0311117
:105050002FC0B30102C0660F771F2A95E2F7CB017C
:1050600001974817590799F4C4010E94EA070FC035
:1050700050E031111DC0D30102C0AA0FBB1F2A95F9
:10508000E2F79D01215031092417350709F080E02E
:10509000F30102C0EE0FFF1FCA94E2F76F01C09444
:1050A000D70116969C9116979C2116969C930DCF2E
:1050B000CA010C2C02C0959587950A94E2F79A01D3
:1050C0002150310924233523232B39F580FF25C0B6
:1050D000F70182819381892BD9F087E0FE01319617
:1050E000DF011D928A95E9F70E9466099C018B8376
:1050F0009C8384E08D83F70192818381792F988747
:10510000898709811A8144E05E816F810E9411259F
:10511000D70115961C9281E0BBCF8170B9CF80E09A
:10512000D4CE9091BE058091BF05981309C00E940E
:105130007C2510922A06109229060E94D90733CEA8
:105140000E94C32530CE9091BF058091BE0598176F
:1051500029F00E94C3254110FACE25CE0E947C255D
:1051600010922A06109229060E94D907F4CFA6E0D1
:10517000B0E0EDEBF8E20C94B6330E9466098C01C6
:105180008091FB039091FC038017910779F01982BD
:105190001A820E946609BC0149815A8180E090E030
:1051A0000E9475261093FC030093FB032696E4E00F
:1051B0000C94D233A6E0B0E0E0EEF8E20C94B83301
:1051C0009093F8038093F703811520E2920730F45F
:1051D0000E94650F2696E2E00C94D43380EF898319
:1051E0008A830E9466098160BC0149815A8181E0FD
:1051F00091E00E947526EECFA6E0B0E0E2E0F9E291
:105200000C94B8339093F8038093F703811520E250
:10521000920730F40E94BE0F2696E2E00C94D4333D
:1052200080EF89838A830E9466098160BC0149817D
:105230005A8181E090E00E947526EECFCF93DF93F4
:10524000D82FC92F0E94DA2880914B0690914C06E6
:105250000E94A20C8D2F9C2F0E94FC28DF91CF91E1
:1052600008950F931F93CF93DF938C01862F65E7EB
:1052700074E00E94B816892BB1F4C0917504D091E6
:105280007604209781F0F8018281833051F4CE01B9
:105290000E941E29CE010E941E29CE010E941E29B5
:1052A00002C08430D0F7DF91CF911F910F91089504
:1052B0000F931F93CF93DF938C01EB0165E774E0AD
:1052C0008C2F0E94B816892B09F05AC0FE01FF27C7
:1052D000D80112968C911297E454FC4F8130A9F4B6
:1052E00015968C9182FD51C080FF4FC082E0808373
:1052F00080917704909178040097B9F480917504B7
:10530000909176040097E1F110C08230B9F51596BE
:105310008C9182FD28C080FD0BC083E0808380914A
:10532000790490917A04009701F10E94DA2828C04C
:1053300084E0808380917B0490917C040097A9F79E
:105340008091750490917604009711F10E941E29B6
:105350008091770490917804009739F780917504D3
:1053600090917604E2CF85E08083809175049091DE
:105370007604009729F00E941E29F0CF86E08083F2
:10538000DF91CF911F910F91089581E08083B6CF77
:105390008091770490917804B5CF0F931F93CF93AA
:1053A000DF938C01EB0165E774E08C2F0E94B81647
:1053B000892BA1F480914B0690914C060E94A20C7F
:1053C000DD27C454DC4F8881F801128218828330B3
:1053D000F1F048F4813059F0823081F0DF91CF91C3
:1053E0001F910F9108958430B9F08530B9F78091FD
:1053F000750490917604009789F306C08091770434
:1054000090917804009799F30E94FC28E7CF80914F
:10541000790490917A04F6CF80917B0490917C047A
:10542000009791F72091750430917604809177046C
:105430009091780421153105F1F2009729F7C901FF
:10544000E3CFCDB7DEB7AE970FB6F894DEBF0FBE91
:10545000CDBF85B7806885BF85B7806885BF84B7B5
:10546000877F84BF0FB6F894A8958091600088610B
:1054700080936000109260000FBE80E890E00FB64D
:10548000F89480936100909361000FBE8EEC96E0DB
:1054900090937701809376010E94F6060E94ED15A5
:1054A0000E9431160E94C00D0E94F10B0E94470C11
:1054B0008091E20084608093E20078948091F6030A
:1054C000882399F08091E9001091EC00179511273D
:1054D00017958F70182B1092E9008091E80083FDDA
:1054E0000E9439111F701093E90082E084BD93E09F
:1054F00095BD9AEF97BD80936E000E94AA0E811110
:1055000002C00E94DD1500E311E08CE3E82E81E08B
:10551000F82ED8018D918D018F3F11F00E94D00699
:10552000E016F106B1F787E90E94D00687EF0E94E6
:10553000D00686EF0E94D00685EF0E94D00688E054
:10554000ECEEF3E0DF01282F1D922A95E9F7E4EC59
:10555000F3E0DF011D928A95E9F780E090E00E9478
:105560001D34853E9E4F21F40E94AA0E811163C016
:1055700065EE7EEF80E090E00E94513460E082E0D2
:1055800090E00E94333481E080932B0661E083E059
:1055900090E00E94333460E074E184E090E00E9487
:1055A000513460E086E090E00E94333460E087E0B0
:1055B00090E00E94333440E050E0BA0188E090E08F
:1055C0000E94453460E083E290E00E94333460E062
:1055D0008CE090E00E94333460E08DE090E00E9427
:1055E000333419821A821B821C821D821E821F8202
:1055F000188648E050E067E170E0CE0101960E9415
:10560000233440E050E0BA018FE190E00E9445343D
:1056100080E00E94850D0E94DD1540E050E0BA0157
:105620008FE090E00E94453440E050E0BA0183E111
:1056300090E00E94453482E090E00E94153480930F
:10564000CE0384E090E00E941D3490935206809334
:1056500051060E947F17EFEFF6E721E0E150F0409E
:105660002040E1F700C000000E947F178091EC030A
:1056700080FF08C06FEF7FEF80E090E00E94513420
:105680000E94B00C83E090E00E9415340E94D50384
:1056900085E091E09093FE038093FD03B4EF4B2EE1
:1056A000B3E05B2E8091F603853049F48091F603D8
:1056B000853009F45EC00E941C100E94E6080E941A
:1056C0007F17AFECAA2EA3E0BA2E0CEE13E047ED45
:1056D00053E0D801F501219131918D919D914E17A3
:1056E0005F0709F497C028173907A9F3FCEE8F2E3E
:1056F000F3E09F2E312CF401E190F1904F01D501A0
:105700006D907D905D016E147F0461F16E247F24A5
:10571000212CCC24C394D12CC3018C219D21892B15
:10572000B9F029823A820E9466099C838B83B1E09A
:10573000BD8391E097012C213D21232B09F490E0BA
:105740009E8349815A816B817C818D810E9475265F
:105750002394CC0CDD1CECE02E12DECFF501329749
:10576000F182E0823394F4E03F12C5CF0E94CA0A6E
:1057700057C08091F603843021F11092CC0388E168
:1057800090E0A0E40FB6F894A895809360000FBE57
:10579000A093600083B7817F846083BF83B78160FB
:1057A00083BF7894889583B78E7F83BF0FB6F894B4
:1057B000A8958091600088618093600010926000DD
:1057C0000FBE8091CD03882309F470CF0E947F170C
:1057D000ECEEF3E081919191892B21F44E165F0656
:1057E000C9F764CF80E189BD82E189BD09B400FEBB
:1057F000FDCF8091D8008F7D8093D8008091E0000C
:1058000082608093E0008091E00081FDFCCF0E94E7
:105810001C104CCF2817390709F068CF0E94B72811
:105820008091840490918504892B09F43EC04091B5
:10583000DF035091E0036091E1037091E2032FB721
:10584000F8948091D7039091D803A091D903B09197
:10585000DA032FBF841B950BA60BB70B4091DB031C
:105860005091DC036091DD037091DE03841795078E
:10587000A607B707D0F080918404909185040E9418
:10588000650F10928504109284041092DF03109229
:10589000E0031092E1031092E2031092DB031092F6
:1058A000DC031092DD031092DE03C0908C04D090D4
:1058B0008D04C114D10409F180918E0490918F045C
:1058C0000E94350B7C01C6010E94CD168E159F05E6
:1058D000A0F480918C0490918D04992764E0880F46
:1058E000991F6A95E1F7FC01EB56FB4F208122FDE1
:1058F00004C080579B4F0E94CB14809117018823CE
:1059000001F18091290690912A060097D1F00E941A
:10591000350B2091BC053091BD052817390788F457
:105920009091BF058091BE05981709F4B8C00E94F8
:10593000C3251092BD051092BC0510922A06109244
:1059400029068091480680FF1CC08091160182FFC5
:1059500018C00E946609BC01809110059091110544
:105960009B01281B390B80910F0190911001281782
:10597000390738F041E080911205909113050E949B
:105980001C1486E0EFE6F4E0DE01119601900D9222
:105990008A95E1F7D0907004E0907104F090720461
:1059A000B0907304C0907404109271041092720449
:1059B00010927304109274048F2D8E29882399F00D
:1059C0008091E5039091E6030E94350B9C01809144
:1059D0006D04882309F46CC04091140150E0421713
:1059E000530708F473C08C2D8B29882399F080917C
:1059F000E3039091E4030E94350B9C0180916C04B9
:105A0000882309F49CC04091120150E042175307CB
:105A100008F4A3C080917004D81216C0809171045C
:105A2000882311F08E1110C090917204992311F007
:105A30009F110AC020917404211106C020917304A3
:105A4000211102C0892B81110E94CE0986E0FE013E
:105A50003196AFE6B4E001900D928A95E1F70E948D
:105A6000E6089091E703891721F08093E7030E94ED
:105A7000CA0A8091F603843009F014CE83E0809343
:105A8000E9008091E80082FF0DCE8091E80085FD5D
:105A90009DC08091E8008B778093E80003CE0E9440
:105AA0007C2510922A06109229060E94D90749CF18
:105AB000409113019AE0499FA00111244217530716
:105AC00008F091CF8F5F80936D0402C08F3FD1F7B4
:105AD000EE2059F00E9445089FEF1E140CF491E04F
